{
  "contractName": "Marketplace",
  "abi": [
    {
      "inputs": [],
      "stateMutability": "nonpayable",
      "type": "constructor"
    },
    {
      "anonymous": false,
      "inputs": [
        {
          "indexed": false,
          "internalType": "uint256",
          "name": "itemId",
          "type": "uint256"
        },
        {
          "indexed": true,
          "internalType": "address",
          "name": "nft",
          "type": "address"
        },
        {
          "indexed": false,
          "internalType": "uint256",
          "name": "tokenId",
          "type": "uint256"
        },
        {
          "indexed": false,
          "internalType": "uint256",
          "name": "price",
          "type": "uint256"
        },
        {
          "indexed": true,
          "internalType": "address",
          "name": "seller",
          "type": "address"
        },
        {
          "indexed": true,
          "internalType": "address",
          "name": "buyer",
          "type": "address"
        }
      ],
      "name": "Bought",
      "type": "event"
    },
    {
      "anonymous": false,
      "inputs": [
        {
          "indexed": false,
          "internalType": "uint256",
          "name": "itemId",
          "type": "uint256"
        },
        {
          "indexed": true,
          "internalType": "address",
          "name": "nft",
          "type": "address"
        },
        {
          "indexed": false,
          "internalType": "uint256",
          "name": "tokenId",
          "type": "uint256"
        },
        {
          "indexed": false,
          "internalType": "uint256",
          "name": "price",
          "type": "uint256"
        },
        {
          "indexed": true,
          "internalType": "address",
          "name": "seller",
          "type": "address"
        }
      ],
      "name": "Offered",
      "type": "event"
    },
    {
      "inputs": [],
      "name": "feeAccount",
      "outputs": [
        {
          "internalType": "address payable",
          "name": "",
          "type": "address"
        }
      ],
      "stateMutability": "view",
      "type": "function",
      "constant": true
    },
    {
      "inputs": [],
      "name": "feePercent",
      "outputs": [
        {
          "internalType": "uint256",
          "name": "",
          "type": "uint256"
        }
      ],
      "stateMutability": "view",
      "type": "function",
      "constant": true
    },
    {
      "inputs": [],
      "name": "itemCount",
      "outputs": [
        {
          "internalType": "uint256",
          "name": "",
          "type": "uint256"
        }
      ],
      "stateMutability": "view",
      "type": "function",
      "constant": true
    },
    {
      "inputs": [
        {
          "internalType": "uint256",
          "name": "",
          "type": "uint256"
        },
        {
          "internalType": "uint256",
          "name": "",
          "type": "uint256"
        }
      ],
      "name": "itemTracks",
      "outputs": [
        {
          "internalType": "uint256",
          "name": "itemId",
          "type": "uint256"
        },
        {
          "internalType": "string",
          "name": "eventName",
          "type": "string"
        },
        {
          "internalType": "uint256",
          "name": "price",
          "type": "uint256"
        },
        {
          "internalType": "address",
          "name": "from",
          "type": "address"
        },
        {
          "internalType": "address",
          "name": "to",
          "type": "address"
        },
        {
          "internalType": "uint256",
          "name": "time",
          "type": "uint256"
        }
      ],
      "stateMutability": "view",
      "type": "function",
      "constant": true
    },
    {
      "inputs": [
        {
          "internalType": "uint256",
          "name": "",
          "type": "uint256"
        }
      ],
      "name": "items",
      "outputs": [
        {
          "internalType": "uint256",
          "name": "itemId",
          "type": "uint256"
        },
        {
          "internalType": "contract IERC721",
          "name": "nft",
          "type": "address"
        },
        {
          "internalType": "uint256",
          "name": "tokenId",
          "type": "uint256"
        },
        {
          "internalType": "uint256",
          "name": "price",
          "type": "uint256"
        },
        {
          "internalType": "address payable",
          "name": "seller",
          "type": "address"
        },
        {
          "internalType": "bool",
          "name": "sold",
          "type": "bool"
        },
        {
          "internalType": "bool",
          "name": "check",
          "type": "bool"
        }
      ],
      "stateMutability": "view",
      "type": "function",
      "constant": true
    },
    {
      "inputs": [
        {
          "internalType": "contract IERC721",
          "name": "_nft",
          "type": "address"
        },
        {
          "internalType": "uint256",
          "name": "_tokenId",
          "type": "uint256"
        },
        {
          "internalType": "uint256",
          "name": "_price",
          "type": "uint256"
        },
        {
          "internalType": "address",
          "name": "_seller",
          "type": "address"
        }
      ],
      "name": "makeItem",
      "outputs": [],
      "stateMutability": "nonpayable",
      "type": "function"
    },
    {
      "inputs": [
        {
          "internalType": "uint256",
          "name": "_itemId",
          "type": "uint256"
        },
        {
          "internalType": "address",
          "name": "_buyer",
          "type": "address"
        }
      ],
      "name": "purchaseItem",
      "outputs": [],
      "stateMutability": "payable",
      "type": "function",
      "payable": true
    },
    {
      "inputs": [
        {
          "internalType": "uint256",
          "name": "_itemId",
          "type": "uint256"
        }
      ],
      "name": "getTotalPrice",
      "outputs": [
        {
          "internalType": "uint256",
          "name": "",
          "type": "uint256"
        }
      ],
      "stateMutability": "view",
      "type": "function",
      "constant": true
    },
    {
      "inputs": [],
      "name": "getItemCount",
      "outputs": [
        {
          "internalType": "uint256",
          "name": "",
          "type": "uint256"
        }
      ],
      "stateMutability": "view",
      "type": "function",
      "constant": true
    },
    {
      "inputs": [
        {
          "internalType": "uint256",
          "name": "_itemId",
          "type": "uint256"
        }
      ],
      "name": "Checked",
      "outputs": [],
      "stateMutability": "nonpayable",
      "type": "function"
    },
    {
      "inputs": [
        {
          "internalType": "uint256",
          "name": "_itemId",
          "type": "uint256"
        },
        {
          "internalType": "string",
          "name": "_eventName",
          "type": "string"
        },
        {
          "internalType": "uint256",
          "name": "_price",
          "type": "uint256"
        },
        {
          "internalType": "address",
          "name": "_from",
          "type": "address"
        },
        {
          "internalType": "address",
          "name": "_to",
          "type": "address"
        },
        {
          "internalType": "uint256",
          "name": "_time",
          "type": "uint256"
        }
      ],
      "name": "addHistory",
      "outputs": [],
      "stateMutability": "nonpayable",
      "type": "function"
    }
  ],
  "bytecode": "0x60c060405234801561001057600080fd5b5060016000819055503373ffffffffffffffffffffffffffffffffffffffff1660808173ffffffffffffffffffffffffffffffffffffffff1681525050600160a0818152505060805160a05161191061008960003960008181610c4c0152610d420152600081816106d301526109ef01526119106000f3fe60806040526004361061009c5760003560e01c80637749cf23116100645780637749cf231461018b5780637bfe9efd146101b65780637fd6f15c146101d2578063a2443428146101fd578063bfb231d214610226578063ca7dd375146102695761009c565b80632d121be4146100a15780633a945135146100ca57806365e17c9d146100f357806368f0d4011461011e5780636bfb0d0114610160575b600080fd5b3480156100ad57600080fd5b506100c860048036038101906100c39190610f28565b6102a6565b005b3480156100d657600080fd5b506100f160048036038101906100ec91906110d5565b610569565b005b3480156100ff57600080fd5b506101086106d1565b604051610115919061119f565b60405180910390f35b34801561012a57600080fd5b50610145600480360381019061014091906111ba565b6106f5565b604051610157969594939291906112a0565b60405180910390f35b34801561016c57600080fd5b50610175610816565b6040516101829190611308565b60405180910390f35b34801561019757600080fd5b506101a061081c565b6040516101ad9190611308565b60405180910390f35b6101d060048036038101906101cb9190611323565b610826565b005b3480156101de57600080fd5b506101e7610c4a565b6040516101f49190611308565b60405180910390f35b34801561020957600080fd5b50610224600480360381019061021f9190611363565b610c6e565b005b34801561023257600080fd5b5061024d60048036038101906102489190611363565b610ca0565b604051610260979695949392919061140a565b60405180910390f35b34801561027557600080fd5b50610290600480360381019061028b9190611363565b610d3c565b60405161029d9190611308565b60405180910390f35b600260005414156102ec576040517f08c379a00000000000000000000000000000000000000000000000000000000081526004016102e3906114c5565b60405180910390fd5b600260008190555060008211156103d8578373ffffffffffffffffffffffffffffffffffffffff166323b872dd3330866040518463ffffffff1660e01b815260040161033a939291906114e5565b600060405180830381600087803b15801561035457600080fd5b505af1158015610368573d6000803e3d6000fd5b505050508073ffffffffffffffffffffffffffffffffffffffff168473ffffffffffffffffffffffffffffffffffffffff167f655a0cf9c8db81512be9a76dc1c5ae5380b8816ce6ad659cd61b715e2999d59a60015486866040516103cf9392919061151c565b60405180910390a35b600160008154809291906103eb90611582565b91905055506040518060e0016040528060015481526020018573ffffffffffffffffffffffffffffffffffffffff1681526020018481526020018381526020018273ffffffffffffffffffffffffffffffffffffffff168152602001600015158152602001600015158152506003600060015481526020019081526020016000206000820151816000015560208201518160010160006101000a81548173ffffffffffffffffffffffffffffffffffffffff021916908373ffffffffffffffffffffffffffffffffffffffff160217905550604082015181600201556060820151816003015560808201518160040160006101000a81548173ffffffffffffffffffffffffffffffffffffffff021916908373ffffffffffffffffffffffffffffffffffffffff16021790555060a08201518160040160146101000a81548160ff02191690831515021790555060c08201518160040160156101000a81548160ff021916908315150217905550905050600160008190555050505050565b600260008781526020019081526020016000206040518060c001604052808881526020018781526020018681526020018573ffffffffffffffffffffffffffffffffffffffff1681526020018473ffffffffffffffffffffffffffffffffffffffff168152602001838152509080600181540180825580915050600190039060005260206000209060060201600090919091909150600082015181600001556020820151816001019080519060200190610624929190610d9f565b506040820151816002015560608201518160030160006101000a81548173ffffffffffffffffffffffffffffffffffffffff021916908373ffffffffffffffffffffffffffffffffffffffff16021790555060808201518160040160006101000a81548173ffffffffffffffffffffffffffffffffffffffff021916908373ffffffffffffffffffffffffffffffffffffffff16021790555060a082015181600501555050505050505050565b7f000000000000000000000000000000000000000000000000000000000000000081565b6002602052816000526040600020818154811061071157600080fd5b90600052602060002090600602016000915091505080600001549080600101805461073b906115fa565b80601f0160208091040260200160405190810160405280929190818152602001828054610767906115fa565b80156107b45780601f10610789576101008083540402835291602001916107b4565b820191906000526020600020905b81548152906001019060200180831161079757829003601f168201915b5050505050908060020154908060030160009054906101000a900473ffffffffffffffffffffffffffffffffffffffff16908060040160009054906101000a900473ffffffffffffffffffffffffffffffffffffffff16908060050154905086565b60015481565b6000600154905090565b6002600054141561086c576040517f08c379a0000000000000000000000000000000000000000000000000000000008152600401610863906114c5565b60405180910390fd5b6002600081905550600061087f83610d3c565b905060006003600085815260200190815260200160002090506000841180156108aa57506001548411155b6108e9576040517f08c379a00000000000000000000000000000000000000000000000000000000081526004016108e090611678565b60405180910390fd5b8134101561092c576040517f08c379a00000000000000000000000000000000000000000000000000000000081526004016109239061170a565b60405180910390fd5b8060040160149054906101000a900460ff161561097e576040517f08c379a000000000000000000000000000000000000000000000000000000000815260040161097590611776565b60405180910390fd5b8060040160009054906101000a900473ffffffffffffffffffffffffffffffffffffffff1673ffffffffffffffffffffffffffffffffffffffff166108fc82600301549081150290604051600060405180830381858888f193505050501580156109ec573d6000803e3d6000fd5b507f000000000000000000000000000000000000000000000000000000000000000073ffffffffffffffffffffffffffffffffffffffff166108fc826003015484610a379190611796565b9081150290604051600060405180830381858888f19350505050158015610a62573d6000803e3d6000fd5b5060018160040160146101000a81548160ff0219169083151502179055508060010160009054906101000a900473ffffffffffffffffffffffffffffffffffffffff1673ffffffffffffffffffffffffffffffffffffffff166323b872dd303384600201546040518463ffffffff1660e01b8152600401610ae5939291906114e5565b600060405180830381600087803b158015610aff57600080fd5b505af1158015610b13573d6000803e3d6000fd5b505050508273ffffffffffffffffffffffffffffffffffffffff168160040160009054906101000a900473ffffffffffffffffffffffffffffffffffffffff1673ffffffffffffffffffffffffffffffffffffffff168260010160009054906101000a900473ffffffffffffffffffffffffffffffffffffffff1673ffffffffffffffffffffffffffffffffffffffff167f8b4c9c8a607d67b321582dd8461041b1dc2ceeca70c8b7f37f8e02095cf2e76d8785600201548660030154604051610bdf9392919061151c565b60405180910390a4826003600086815260200190815260200160002060040160006101000a81548173ffffffffffffffffffffffffffffffffffffffff021916908373ffffffffffffffffffffffffffffffffffffffff160217905550505060016000819055505050565b7f000000000000000000000000000000000000000000000000000000000000000081565b60016003600083815260200190815260200160002060040160156101000a81548160ff02191690831515021790555050565b60036020528060005260406000206000915090508060000154908060010160009054906101000a900473ffffffffffffffffffffffffffffffffffffffff16908060020154908060030154908060040160009054906101000a900473ffffffffffffffffffffffffffffffffffffffff16908060040160149054906101000a900460ff16908060040160159054906101000a900460ff16905087565b600060647f00000000000000000000000000000000000000000000000000000000000000006064610d6d91906117ca565b6003600085815260200190815260200160002060030154610d8e9190611820565b610d9891906118a9565b9050919050565b828054610dab906115fa565b90600052602060002090601f016020900481019282610dcd5760008555610e14565b82601f10610de657805160ff1916838001178555610e14565b82800160010185558215610e14579182015b82811115610e13578251825591602001919060010190610df8565b5b509050610e219190610e25565b5090565b5b80821115610e3e576000816000905550600101610e26565b5090565b6000604051905090565b600080fd5b600080fd5b600073ffffffffffffffffffffffffffffffffffffffff82169050919050565b6000610e8182610e56565b9050919050565b6000610e9382610e76565b9050919050565b610ea381610e88565b8114610eae57600080fd5b50565b600081359050610ec081610e9a565b92915050565b6000819050919050565b610ed981610ec6565b8114610ee457600080fd5b50565b600081359050610ef681610ed0565b92915050565b610f0581610e76565b8114610f1057600080fd5b50565b600081359050610f2281610efc565b92915050565b60008060008060808587031215610f4257610f41610e4c565b5b6000610f5087828801610eb1565b9450506020610f6187828801610ee7565b9350506040610f7287828801610ee7565b9250506060610f8387828801610f13565b91505092959194509250565b600080fd5b600080fd5b6000601f19601f8301169050919050565b7f4e487b7100000000000000000000000000000000000000000000000000000000600052604160045260246000fd5b610fe282610f99565b810181811067ffffffffffffffff8211171561100157611000610faa565b5b80604052505050565b6000611014610e42565b90506110208282610fd9565b919050565b600067ffffffffffffffff8211156110405761103f610faa565b5b61104982610f99565b9050602081019050919050565b82818337600083830152505050565b600061107861107384611025565b61100a565b90508281526020810184848401111561109457611093610f94565b5b61109f848285611056565b509392505050565b600082601f8301126110bc576110bb610f8f565b5b81356110cc848260208601611065565b91505092915050565b60008060008060008060c087890312156110f2576110f1610e4c565b5b600061110089828a01610ee7565b965050602087013567ffffffffffffffff81111561112157611120610e51565b5b61112d89828a016110a7565b955050604061113e89828a01610ee7565b945050606061114f89828a01610f13565b935050608061116089828a01610f13565b92505060a061117189828a01610ee7565b9150509295509295509295565b600061118982610e56565b9050919050565b6111998161117e565b82525050565b60006020820190506111b46000830184611190565b92915050565b600080604083850312156111d1576111d0610e4c565b5b60006111df85828601610ee7565b92505060206111f085828601610ee7565b9150509250929050565b61120381610ec6565b82525050565b600081519050919050565b600082825260208201905092915050565b60005b83811015611243578082015181840152602081019050611228565b83811115611252576000848401525b50505050565b600061126382611209565b61126d8185611214565b935061127d818560208601611225565b61128681610f99565b840191505092915050565b61129a81610e76565b82525050565b600060c0820190506112b560008301896111fa565b81810360208301526112c78188611258565b90506112d660408301876111fa565b6112e36060830186611291565b6112f06080830185611291565b6112fd60a08301846111fa565b979650505050505050565b600060208201905061131d60008301846111fa565b92915050565b6000806040838503121561133a57611339610e4c565b5b600061134885828601610ee7565b925050602061135985828601610f13565b9150509250929050565b60006020828403121561137957611378610e4c565b5b600061138784828501610ee7565b91505092915050565b6000819050919050565b60006113b56113b06113ab84610e56565b611390565b610e56565b9050919050565b60006113c78261139a565b9050919050565b60006113d9826113bc565b9050919050565b6113e9816113ce565b82525050565b60008115159050919050565b611404816113ef565b82525050565b600060e08201905061141f600083018a6111fa565b61142c60208301896113e0565b61143960408301886111fa565b61144660608301876111fa565b6114536080830186611190565b61146060a08301856113fb565b61146d60c08301846113fb565b98975050505050505050565b7f5265656e7472616e637947756172643a207265656e7472616e742063616c6c00600082015250565b60006114af601f83611214565b91506114ba82611479565b602082019050919050565b600060208201905081810360008301526114de816114a2565b9050919050565b60006060820190506114fa6000830186611291565b6115076020830185611291565b61151460408301846111fa565b949350505050565b600060608201905061153160008301866111fa565b61153e60208301856111fa565b61154b60408301846111fa565b949350505050565b7f4e487b7100000000000000000000000000000000000000000000000000000000600052601160045260246000fd5b600061158d82610ec6565b91507fffffffffffffffffffffffffffffffffffffffffffffffffffffffffffffffff8214156115c0576115bf611553565b5b600182019050919050565b7f4e487b7100000000000000000000000000000000000000000000000000000000600052602260045260246000fd5b6000600282049050600182168061161257607f821691505b60208210811415611626576116256115cb565b5b50919050565b7f6974656d20646f65736e27742065786973740000000000000000000000000000600082015250565b6000611662601283611214565b915061166d8261162c565b602082019050919050565b6000602082019050818103600083015261169181611655565b9050919050565b7f6e6f7420656e6f75676820657468657220746f20636f766572206974656d207060008201527f7269636520616e64206d61726b65742066656500000000000000000000000000602082015250565b60006116f4603383611214565b91506116ff82611698565b604082019050919050565b60006020820190508181036000830152611723816116e7565b9050919050565b7f6974656d20616c726561647920736f6c64000000000000000000000000000000600082015250565b6000611760601183611214565b915061176b8261172a565b602082019050919050565b6000602082019050818103600083015261178f81611753565b9050919050565b60006117a182610ec6565b91506117ac83610ec6565b9250828210156117bf576117be611553565b5b828203905092915050565b60006117d582610ec6565b91506117e083610ec6565b9250827fffffffffffffffffffffffffffffffffffffffffffffffffffffffffffffffff0382111561181557611814611553565b5b828201905092915050565b600061182b82610ec6565b915061183683610ec6565b9250817fffffffffffffffffffffffffffffffffffffffffffffffffffffffffffffffff048311821515161561186f5761186e611553565b5b828202905092915050565b7f4e487b7100000000000000000000000000000000000000000000000000000000600052601260045260246000fd5b60006118b482610ec6565b91506118bf83610ec6565b9250826118cf576118ce61187a565b5b82820490509291505056fea2646970667358221220d92cbc5d06a24b352751e366ea4cb9531b67b0e09a0d54099b64263bf93548b864736f6c634300080b0033",
  "immutableReferences": {
    "2462": [
      {
        "length": 32,
        "start": 1747
      },
      {
        "length": 32,
        "start": 2543
      }
    ],
    "2464": [
      {
        "length": 32,
        "start": 3148
      },
      {
        "length": 32,
        "start": 3394
      }
    ]
  },
  "source": "// SPDX-License-Identifier: MIT\r\npragma solidity ^0.8.0;\r\n\r\nimport \"../../node_modules/@openzeppelin/contracts/token/ERC721/IERC721.sol\";\r\n\r\nimport \"../../node_modules/@openzeppelin/contracts/security/ReentrancyGuard.sol\";\r\n\r\n\r\n\r\n\r\ncontract Marketplace is ReentrancyGuard {\r\n\r\n    // Variables\r\n    address payable public immutable feeAccount; // the account that receives fees\r\n    uint public immutable feePercent; // the fee percentage on sales \r\n    uint public itemCount; \r\n\r\n    struct Item {\r\n        uint itemId;\r\n        IERC721 nft;\r\n        uint tokenId;\r\n        uint price;\r\n        address payable seller;\r\n        bool sold;\r\n        bool check;\r\n    }\r\n\r\n    struct ItemHistory{\r\n        uint itemId;\r\n        string eventName;\r\n        uint price;\r\n        address from;\r\n        address to;\r\n        uint time;\r\n    }\r\n\r\n    mapping(uint => ItemHistory[]) public itemTracks;\r\n\r\n    // itemId -> Item\r\n    mapping(uint => Item) public items;\r\n\r\n    event Offered(\r\n        uint itemId,\r\n        address indexed nft,\r\n        uint tokenId,\r\n        uint price,\r\n        address indexed seller\r\n    );\r\n    event Bought(\r\n        uint itemId,\r\n        address indexed nft,\r\n        uint tokenId,\r\n        uint price,\r\n        address indexed seller,\r\n        address indexed buyer\r\n    );\r\n\r\n    constructor() {\r\n        feeAccount = payable(msg.sender);\r\n        feePercent = 1;\r\n    }\r\n\r\n    // Make item to offer on the marketplace\r\n    function makeItem(IERC721 _nft, uint _tokenId, uint _price, address _seller) external nonReentrant {\r\n        if (_price > 0)\r\n        {\r\n            // transfer nft to marketplace\r\n            _nft.transferFrom(msg.sender, address(this), _tokenId);\r\n\r\n             // emit Offered event\r\n            emit Offered(\r\n                itemCount,\r\n                address(_nft),\r\n                _tokenId,\r\n                _price,\r\n                _seller\r\n            );\r\n        }\r\n        //require(_price > 0, \"Price must be greater than zero\");\r\n        // increment itemCount\r\n        itemCount ++;\r\n        \r\n        // add new item to items mapping\r\n        items[itemCount] = Item (\r\n            itemCount,\r\n            _nft,\r\n            _tokenId,\r\n            _price,\r\n            payable(_seller),\r\n            false, \r\n            false\r\n        );\r\n       \r\n    }\r\n\r\n    function purchaseItem(uint _itemId, address _buyer) external payable nonReentrant {\r\n        uint _totalPrice = getTotalPrice(_itemId);\r\n        Item storage item = items[_itemId];\r\n        require(_itemId > 0 && _itemId <= itemCount, \"item doesn't exist\");\r\n        require(msg.value >= _totalPrice, \"not enough ether to cover item price and market fee\");\r\n        require(!item.sold, \"item already sold\");\r\n        // pay seller and feeAccount\r\n        item.seller.transfer(item.price);\r\n        feeAccount.transfer(_totalPrice - item.price);\r\n        // update item to sold\r\n        item.sold = true;\r\n        // transfer nft to buyer\r\n        item.nft.transferFrom(address(this), msg.sender, item.tokenId);\r\n        // emit Bought event\r\n        emit Bought(\r\n            _itemId,\r\n            address(item.nft),\r\n            item.tokenId,\r\n            item.price,\r\n            item.seller,\r\n            _buyer\r\n        );\r\n\r\n        //change seller to buyer\r\n        items[_itemId].seller = payable(_buyer);\r\n    }\r\n    function getTotalPrice(uint _itemId) view public returns(uint){\r\n        return((items[_itemId].price*(100 + feePercent))/100);\r\n    }\r\n\r\n    function getItemCount() view public returns(uint){\r\n        return itemCount;\r\n    }\r\n\r\n    function Checked(uint _itemId) external {\r\n        //kim tra xem  tn ti cha\r\n\r\n        //thay i thnh  c xc nhn\r\n        items[_itemId].check = true;\r\n    }\r\n\r\n    function addHistory( uint _itemId, string memory _eventName, uint _price, address _from, address _to, uint _time) public {\r\n        itemTracks[_itemId].push(ItemHistory(_itemId, _eventName, _price, _from, _to, _time));\r\n    }\r\n}",
  "sourcePath": "E:\\Code\\React\\marketplace\\src\\contracts\\Marketplace.sol",
  "compiler": {
    "name": "solc",
    "version": "0.8.11+commit.d7f03943.Emscripten.clang"
  },
  "schemaVersion": "3.4.7",
  "updatedAt": "2022-10-07T01:12:56.270Z",
  "networkType": "ethereum",
  "devdoc": {
    "kind": "dev",
    "methods": {},
    "version": 1
  },
  "userdoc": {
    "kind": "user",
    "methods": {},
    "version": 1
  }
}