{
  "contractName": "Marketplace",
  "abi": [
    {
      "inputs": [],
      "stateMutability": "nonpayable",
      "type": "constructor"
    },
    {
      "anonymous": false,
      "inputs": [
        {
          "indexed": false,
          "internalType": "uint256",
          "name": "itemId",
          "type": "uint256"
        },
        {
          "indexed": true,
          "internalType": "address",
          "name": "nft",
          "type": "address"
        },
        {
          "indexed": false,
          "internalType": "uint256",
          "name": "tokenId",
          "type": "uint256"
        },
        {
          "indexed": false,
          "internalType": "uint256",
          "name": "price",
          "type": "uint256"
        },
        {
          "indexed": true,
          "internalType": "address",
          "name": "seller",
          "type": "address"
        },
        {
          "indexed": true,
          "internalType": "address",
          "name": "buyer",
          "type": "address"
        }
      ],
      "name": "Bought",
      "type": "event"
    },
    {
      "anonymous": false,
      "inputs": [
        {
          "indexed": false,
          "internalType": "uint256",
          "name": "itemId",
          "type": "uint256"
        },
        {
          "indexed": true,
          "internalType": "address",
          "name": "nft",
          "type": "address"
        },
        {
          "indexed": false,
          "internalType": "uint256",
          "name": "tokenId",
          "type": "uint256"
        },
        {
          "indexed": false,
          "internalType": "uint256",
          "name": "price",
          "type": "uint256"
        },
        {
          "indexed": true,
          "internalType": "address",
          "name": "seller",
          "type": "address"
        }
      ],
      "name": "Offered",
      "type": "event"
    },
    {
      "inputs": [
        {
          "internalType": "uint256",
          "name": "",
          "type": "uint256"
        },
        {
          "internalType": "uint256",
          "name": "",
          "type": "uint256"
        }
      ],
      "name": "downloaders",
      "outputs": [
        {
          "internalType": "address",
          "name": "",
          "type": "address"
        }
      ],
      "stateMutability": "view",
      "type": "function",
      "constant": true
    },
    {
      "inputs": [],
      "name": "feeAccount",
      "outputs": [
        {
          "internalType": "address payable",
          "name": "",
          "type": "address"
        }
      ],
      "stateMutability": "view",
      "type": "function",
      "constant": true
    },
    {
      "inputs": [],
      "name": "feePercent",
      "outputs": [
        {
          "internalType": "uint256",
          "name": "",
          "type": "uint256"
        }
      ],
      "stateMutability": "view",
      "type": "function",
      "constant": true
    },
    {
      "inputs": [],
      "name": "itemCount",
      "outputs": [
        {
          "internalType": "uint256",
          "name": "",
          "type": "uint256"
        }
      ],
      "stateMutability": "view",
      "type": "function",
      "constant": true
    },
    {
      "inputs": [
        {
          "internalType": "uint256",
          "name": "",
          "type": "uint256"
        },
        {
          "internalType": "uint256",
          "name": "",
          "type": "uint256"
        }
      ],
      "name": "itemTracks",
      "outputs": [
        {
          "internalType": "uint256",
          "name": "itemId",
          "type": "uint256"
        },
        {
          "internalType": "string",
          "name": "eventName",
          "type": "string"
        },
        {
          "internalType": "uint256",
          "name": "price",
          "type": "uint256"
        },
        {
          "internalType": "address",
          "name": "from",
          "type": "address"
        },
        {
          "internalType": "address",
          "name": "to",
          "type": "address"
        },
        {
          "internalType": "uint256",
          "name": "time",
          "type": "uint256"
        }
      ],
      "stateMutability": "view",
      "type": "function",
      "constant": true
    },
    {
      "inputs": [
        {
          "internalType": "uint256",
          "name": "",
          "type": "uint256"
        }
      ],
      "name": "items",
      "outputs": [
        {
          "internalType": "uint256",
          "name": "itemId",
          "type": "uint256"
        },
        {
          "internalType": "contract IERC721",
          "name": "nft",
          "type": "address"
        },
        {
          "internalType": "uint256",
          "name": "tokenId",
          "type": "uint256"
        },
        {
          "internalType": "uint256",
          "name": "price",
          "type": "uint256"
        },
        {
          "internalType": "address payable",
          "name": "seller",
          "type": "address"
        },
        {
          "internalType": "bool",
          "name": "sold",
          "type": "bool"
        },
        {
          "internalType": "bool",
          "name": "check",
          "type": "bool"
        }
      ],
      "stateMutability": "view",
      "type": "function",
      "constant": true
    },
    {
      "inputs": [
        {
          "internalType": "contract IERC721",
          "name": "_nft",
          "type": "address"
        },
        {
          "internalType": "uint256",
          "name": "_tokenId",
          "type": "uint256"
        },
        {
          "internalType": "uint256",
          "name": "_price",
          "type": "uint256"
        },
        {
          "internalType": "address",
          "name": "_seller",
          "type": "address"
        }
      ],
      "name": "makeItem",
      "outputs": [],
      "stateMutability": "nonpayable",
      "type": "function"
    },
    {
      "inputs": [
        {
          "internalType": "uint256",
          "name": "_itemId",
          "type": "uint256"
        },
        {
          "internalType": "address",
          "name": "_buyer",
          "type": "address"
        }
      ],
      "name": "purchaseItem",
      "outputs": [],
      "stateMutability": "payable",
      "type": "function",
      "payable": true
    },
    {
      "inputs": [
        {
          "internalType": "uint256",
          "name": "_itemId",
          "type": "uint256"
        },
        {
          "internalType": "address",
          "name": "_buyer",
          "type": "address"
        }
      ],
      "name": "purchaseDownloadItem",
      "outputs": [],
      "stateMutability": "payable",
      "type": "function",
      "payable": true
    },
    {
      "inputs": [
        {
          "internalType": "uint256",
          "name": "_itemId",
          "type": "uint256"
        },
        {
          "internalType": "uint256",
          "name": "_price",
          "type": "uint256"
        },
        {
          "internalType": "address payable",
          "name": "_seller",
          "type": "address"
        }
      ],
      "name": "OfferItem",
      "outputs": [],
      "stateMutability": "nonpayable",
      "type": "function"
    },
    {
      "inputs": [
        {
          "internalType": "uint256",
          "name": "_itemId",
          "type": "uint256"
        }
      ],
      "name": "getTotalPrice",
      "outputs": [
        {
          "internalType": "uint256",
          "name": "",
          "type": "uint256"
        }
      ],
      "stateMutability": "view",
      "type": "function",
      "constant": true
    },
    {
      "inputs": [],
      "name": "getItemCount",
      "outputs": [
        {
          "internalType": "uint256",
          "name": "",
          "type": "uint256"
        }
      ],
      "stateMutability": "view",
      "type": "function",
      "constant": true
    },
    {
      "inputs": [
        {
          "internalType": "uint256",
          "name": "_itemId",
          "type": "uint256"
        }
      ],
      "name": "Checked",
      "outputs": [],
      "stateMutability": "nonpayable",
      "type": "function"
    },
    {
      "inputs": [
        {
          "internalType": "uint256",
          "name": "_itemId",
          "type": "uint256"
        },
        {
          "internalType": "string",
          "name": "_eventName",
          "type": "string"
        },
        {
          "internalType": "uint256",
          "name": "_price",
          "type": "uint256"
        },
        {
          "internalType": "address",
          "name": "_from",
          "type": "address"
        },
        {
          "internalType": "address",
          "name": "_to",
          "type": "address"
        },
        {
          "internalType": "uint256",
          "name": "_time",
          "type": "uint256"
        }
      ],
      "name": "addHistory",
      "outputs": [],
      "stateMutability": "nonpayable",
      "type": "function"
    },
    {
      "inputs": [
        {
          "internalType": "uint256",
          "name": "_itemId",
          "type": "uint256"
        }
      ],
      "name": "getHistories",
      "outputs": [
        {
          "components": [
            {
              "internalType": "uint256",
              "name": "itemId",
              "type": "uint256"
            },
            {
              "internalType": "string",
              "name": "eventName",
              "type": "string"
            },
            {
              "internalType": "uint256",
              "name": "price",
              "type": "uint256"
            },
            {
              "internalType": "address",
              "name": "from",
              "type": "address"
            },
            {
              "internalType": "address",
              "name": "to",
              "type": "address"
            },
            {
              "internalType": "uint256",
              "name": "time",
              "type": "uint256"
            }
          ],
          "internalType": "struct Marketplace.ItemHistory[]",
          "name": "",
          "type": "tuple[]"
        }
      ],
      "stateMutability": "view",
      "type": "function",
      "constant": true
    },
    {
      "inputs": [
        {
          "internalType": "uint256",
          "name": "_itemId",
          "type": "uint256"
        },
        {
          "internalType": "uint256",
          "name": "_historyId",
          "type": "uint256"
        }
      ],
      "name": "getHistory",
      "outputs": [
        {
          "components": [
            {
              "internalType": "uint256",
              "name": "itemId",
              "type": "uint256"
            },
            {
              "internalType": "string",
              "name": "eventName",
              "type": "string"
            },
            {
              "internalType": "uint256",
              "name": "price",
              "type": "uint256"
            },
            {
              "internalType": "address",
              "name": "from",
              "type": "address"
            },
            {
              "internalType": "address",
              "name": "to",
              "type": "address"
            },
            {
              "internalType": "uint256",
              "name": "time",
              "type": "uint256"
            }
          ],
          "internalType": "struct Marketplace.ItemHistory",
          "name": "",
          "type": "tuple"
        }
      ],
      "stateMutability": "view",
      "type": "function",
      "constant": true
    },
    {
      "inputs": [
        {
          "internalType": "uint256",
          "name": "_itemId",
          "type": "uint256"
        }
      ],
      "name": "getDownloaders",
      "outputs": [
        {
          "internalType": "address[]",
          "name": "",
          "type": "address[]"
        }
      ],
      "stateMutability": "view",
      "type": "function",
      "constant": true
    }
  ],
  "bytecode": "0x60c060405234801561001057600080fd5b5060016000819055503373ffffffffffffffffffffffffffffffffffffffff1660808173ffffffffffffffffffffffffffffffffffffffff1681525050600160a0818152505060805160a0516127a561009060003960008181611441015261164e01526000818161061501528181610d1e01526111e401526127a56000f3fe6080604052600436106100fd5760003560e01c80637749cf2311610095578063a244342811610064578063a244342814610331578063b3344c941461035a578063bfb231d214610383578063ca7dd375146103c6578063e6ebe1e114610403576100fd565b80637749cf23146102825780637bfe9efd146102ad5780637fd6f15c146102c957806391264efb146102f4576100fd565b806365e17c9d116100d157806365e17c9d146101ad57806368f0d401146101d85780636906679b1461021a5780636bfb0d0114610257576100fd565b80623aa4bb146101025780632d121be41461011e5780633a945135146101475780635931b16914610170575b600080fd5b61011c600480360381019061011791906118f9565b610440565b005b34801561012a57600080fd5b5061014560048036038101906101409190611977565b610723565b005b34801561015357600080fd5b5061016e60048036038101906101699190611b24565b6109e6565b005b34801561017c57600080fd5b5061019760048036038101906101929190611bcd565b610b4e565b6040516101a49190611deb565b60405180910390f35b3480156101b957600080fd5b506101c2610d1c565b6040516101cf9190611e2e565b60405180910390f35b3480156101e457600080fd5b506101ff60048036038101906101fa9190611e49565b610d40565b60405161021196959493929190611ef1565b60405180910390f35b34801561022657600080fd5b50610241600480360381019061023c9190611e49565b610e61565b60405161024e9190611fe2565b60405180910390f35b34801561026357600080fd5b5061026c61100b565b6040516102799190612004565b60405180910390f35b34801561028e57600080fd5b50610297611011565b6040516102a49190612004565b60405180910390f35b6102c760048036038101906102c291906118f9565b61101b565b005b3480156102d557600080fd5b506102de61143f565b6040516102eb9190612004565b60405180910390f35b34801561030057600080fd5b5061031b60048036038101906103169190611e49565b611463565b604051610328919061201f565b60405180910390f35b34801561033d57600080fd5b5061035860048036038101906103539190611bcd565b6114b1565b005b34801561036657600080fd5b50610381600480360381019061037c9190612066565b6114e3565b005b34801561038f57600080fd5b506103aa60048036038101906103a59190611bcd565b6115ac565b6040516103bd9796959493929190612133565b60405180910390f35b3480156103d257600080fd5b506103ed60048036038101906103e89190611bcd565b611648565b6040516103fa9190612004565b60405180910390f35b34801561040f57600080fd5b5061042a60048036038101906104259190611bcd565b6116ab565b6040516104379190612251565b60405180910390f35b60026000541415610486576040517f08c379a000000000000000000000000000000000000000000000000000000000815260040161047d906122bf565b60405180910390fd5b6002600081905550600061049983611648565b905060006004600085815260200190815260200160002090506000841180156104c457506001548411155b610503576040517f08c379a00000000000000000000000000000000000000000000000000000000081526004016104fa9061232b565b60405180910390fd5b81341015610546576040517f08c379a000000000000000000000000000000000000000000000000000000000815260040161053d906123bd565b60405180910390fd5b8060040160149054906101000a900460ff1615610598576040517f08c379a000000000000000000000000000000000000000000000000000000000815260040161058f90612429565b60405180910390fd5b8060040160009054906101000a900473ffffffffffffffffffffffffffffffffffffffff1673ffffffffffffffffffffffffffffffffffffffff166108fc600283600301546105e791906124a7565b9081150290604051600060405180830381858888f19350505050158015610612573d6000803e3d6000fd5b507f000000000000000000000000000000000000000000000000000000000000000073ffffffffffffffffffffffffffffffffffffffff166108fc6002836003015461065e91906124a7565b60028561066b91906124a7565b61067591906124d8565b9081150290604051600060405180830381858888f193505050501580156106a0573d6000803e3d6000fd5b5060026000858152602001908152602001600020839080600181540180825580915050600190039060005260206000200160009091909190916101000a81548173ffffffffffffffffffffffffffffffffffffffff021916908373ffffffffffffffffffffffffffffffffffffffff160217905550505060016000819055505050565b60026000541415610769576040517f08c379a0000000000000000000000000000000000000000000000000000000008152600401610760906122bf565b60405180910390fd5b60026000819055506000821115610855578373ffffffffffffffffffffffffffffffffffffffff166323b872dd3330866040518463ffffffff1660e01b81526004016107b79392919061250c565b600060405180830381600087803b1580156107d157600080fd5b505af11580156107e5573d6000803e3d6000fd5b505050508073ffffffffffffffffffffffffffffffffffffffff168473ffffffffffffffffffffffffffffffffffffffff167f655a0cf9c8db81512be9a76dc1c5ae5380b8816ce6ad659cd61b715e2999d59a600154868660405161084c93929190612543565b60405180910390a35b600160008154809291906108689061257a565b91905055506040518060e0016040528060015481526020018573ffffffffffffffffffffffffffffffffffffffff1681526020018481526020018381526020018273ffffffffffffffffffffffffffffffffffffffff168152602001600015158152602001600015158152506004600060015481526020019081526020016000206000820151816000015560208201518160010160006101000a81548173ffffffffffffffffffffffffffffffffffffffff021916908373ffffffffffffffffffffffffffffffffffffffff160217905550604082015181600201556060820151816003015560808201518160040160006101000a81548173ffffffffffffffffffffffffffffffffffffffff021916908373ffffffffffffffffffffffffffffffffffffffff16021790555060a08201518160040160146101000a81548160ff02191690831515021790555060c08201518160040160156101000a81548160ff021916908315150217905550905050600160008190555050505050565b600360008781526020019081526020016000206040518060c001604052808881526020018781526020018681526020018573ffffffffffffffffffffffffffffffffffffffff1681526020018473ffffffffffffffffffffffffffffffffffffffff168152602001838152509080600181540180825580915050600190039060005260206000209060060201600090919091909150600082015181600001556020820151816001019080519060200190610aa192919061174c565b506040820151816002015560608201518160030160006101000a81548173ffffffffffffffffffffffffffffffffffffffff021916908373ffffffffffffffffffffffffffffffffffffffff16021790555060808201518160040160006101000a81548173ffffffffffffffffffffffffffffffffffffffff021916908373ffffffffffffffffffffffffffffffffffffffff16021790555060a082015181600501555050505050505050565b606060036000838152602001908152602001600020805480602002602001604051908101604052809291908181526020016000905b82821015610d1157838290600052602060002090600602016040518060c001604052908160008201548152602001600182018054610bc0906125f2565b80601f0160208091040260200160405190810160405280929190818152602001828054610bec906125f2565b8015610c395780601f10610c0e57610100808354040283529160200191610c39565b820191906000526020600020905b815481529060010190602001808311610c1c57829003601f168201915b50505050508152602001600282015481526020016003820160009054906101000a900473ffffffffffffffffffffffffffffffffffffffff1673ffffffffffffffffffffffffffffffffffffffff1673ffffffffffffffffffffffffffffffffffffffff1681526020016004820160009054906101000a900473ffffffffffffffffffffffffffffffffffffffff1673ffffffffffffffffffffffffffffffffffffffff1673ffffffffffffffffffffffffffffffffffffffff16815260200160058201548152505081526020019060010190610b83565b505050509050919050565b7f000000000000000000000000000000000000000000000000000000000000000081565b60036020528160005260406000208181548110610d5c57600080fd5b906000526020600020906006020160009150915050806000015490806001018054610d86906125f2565b80601f0160208091040260200160405190810160405280929190818152602001828054610db2906125f2565b8015610dff5780601f10610dd457610100808354040283529160200191610dff565b820191906000526020600020905b815481529060010190602001808311610de257829003601f168201915b5050505050908060020154908060030160009054906101000a900473ffffffffffffffffffffffffffffffffffffffff16908060040160009054906101000a900473ffffffffffffffffffffffffffffffffffffffff16908060050154905086565b610e696117d2565b600360008481526020019081526020016000208281548110610e8e57610e8d612624565b5b90600052602060002090600602016040518060c001604052908160008201548152602001600182018054610ec1906125f2565b80601f0160208091040260200160405190810160405280929190818152602001828054610eed906125f2565b8015610f3a5780601f10610f0f57610100808354040283529160200191610f3a565b820191906000526020600020905b815481529060010190602001808311610f1d57829003601f168201915b50505050508152602001600282015481526020016003820160009054906101000a900473ffffffffffffffffffffffffffffffffffffffff1673ffffffffffffffffffffffffffffffffffffffff1673ffffffffffffffffffffffffffffffffffffffff1681526020016004820160009054906101000a900473ffffffffffffffffffffffffffffffffffffffff1673ffffffffffffffffffffffffffffffffffffffff1673ffffffffffffffffffffffffffffffffffffffff168152602001600582015481525050905092915050565b60015481565b6000600154905090565b60026000541415611061576040517f08c379a0000000000000000000000000000000000000000000000000000000008152600401611058906122bf565b60405180910390fd5b6002600081905550600061107483611648565b9050600060046000858152602001908152602001600020905060008411801561109f57506001548411155b6110de576040517f08c379a00000000000000000000000000000000000000000000000000000000081526004016110d59061232b565b60405180910390fd5b81341015611121576040517f08c379a0000000000000000000000000000000000000000000000000000000008152600401611118906123bd565b60405180910390fd5b8060040160149054906101000a900460ff1615611173576040517f08c379a000000000000000000000000000000000000000000000000000000000815260040161116a90612429565b60405180910390fd5b8060040160009054906101000a900473ffffffffffffffffffffffffffffffffffffffff1673ffffffffffffffffffffffffffffffffffffffff166108fc82600301549081150290604051600060405180830381858888f193505050501580156111e1573d6000803e3d6000fd5b507f000000000000000000000000000000000000000000000000000000000000000073ffffffffffffffffffffffffffffffffffffffff166108fc82600301548461122c91906124d8565b9081150290604051600060405180830381858888f19350505050158015611257573d6000803e3d6000fd5b5060018160040160146101000a81548160ff0219169083151502179055508060010160009054906101000a900473ffffffffffffffffffffffffffffffffffffffff1673ffffffffffffffffffffffffffffffffffffffff166323b872dd303384600201546040518463ffffffff1660e01b81526004016112da9392919061250c565b600060405180830381600087803b1580156112f457600080fd5b505af1158015611308573d6000803e3d6000fd5b505050508273ffffffffffffffffffffffffffffffffffffffff168160040160009054906101000a900473ffffffffffffffffffffffffffffffffffffffff1673ffffffffffffffffffffffffffffffffffffffff168260010160009054906101000a900473ffffffffffffffffffffffffffffffffffffffff1673ffffffffffffffffffffffffffffffffffffffff167f8b4c9c8a607d67b321582dd8461041b1dc2ceeca70c8b7f37f8e02095cf2e76d87856002015486600301546040516113d493929190612543565b60405180910390a4826004600086815260200190815260200160002060040160006101000a81548173ffffffffffffffffffffffffffffffffffffffff021916908373ffffffffffffffffffffffffffffffffffffffff160217905550505060016000819055505050565b7f000000000000000000000000000000000000000000000000000000000000000081565b6002602052816000526040600020818154811061147f57600080fd5b906000526020600020016000915091509054906101000a900473ffffffffffffffffffffffffffffffffffffffff1681565b60016004600083815260200190815260200160002060040160156101000a81548160ff02191690831515021790555050565b60008211611526576040517f08c379a000000000000000000000000000000000000000000000000000000000815260040161151d9061269f565b60405180910390fd5b6000600460008581526020019081526020016000209050818160040160006101000a81548173ffffffffffffffffffffffffffffffffffffffff021916908373ffffffffffffffffffffffffffffffffffffffff16021790555060008160040160146101000a81548160ff02191690831515021790555082816003018190555050505050565b60046020528060005260406000206000915090508060000154908060010160009054906101000a900473ffffffffffffffffffffffffffffffffffffffff16908060020154908060030154908060040160009054906101000a900473ffffffffffffffffffffffffffffffffffffffff16908060040160149054906101000a900460ff16908060040160159054906101000a900460ff16905087565b600060647f0000000000000000000000000000000000000000000000000000000000000000606461167991906126bf565b600460008581526020019081526020016000206003015461169a9190612715565b6116a491906124a7565b9050919050565b60606002600083815260200190815260200160002080548060200260200160405190810160405280929190818152602001828054801561174057602002820191906000526020600020905b8160009054906101000a900473ffffffffffffffffffffffffffffffffffffffff1673ffffffffffffffffffffffffffffffffffffffff16815260200190600101908083116116f6575b50505050509050919050565b828054611758906125f2565b90600052602060002090601f01602090048101928261177a57600085556117c1565b82601f1061179357805160ff19168380011785556117c1565b828001600101855582156117c1579182015b828111156117c05782518255916020019190600101906117a5565b5b5090506117ce9190611834565b5090565b6040518060c00160405280600081526020016060815260200160008152602001600073ffffffffffffffffffffffffffffffffffffffff168152602001600073ffffffffffffffffffffffffffffffffffffffff168152602001600081525090565b5b8082111561184d576000816000905550600101611835565b5090565b6000604051905090565b600080fd5b600080fd5b6000819050919050565b61187881611865565b811461188357600080fd5b50565b6000813590506118958161186f565b92915050565b600073ffffffffffffffffffffffffffffffffffffffff82169050919050565b60006118c68261189b565b9050919050565b6118d6816118bb565b81146118e157600080fd5b50565b6000813590506118f3816118cd565b92915050565b600080604083850312156119105761190f61185b565b5b600061191e85828601611886565b925050602061192f858286016118e4565b9150509250929050565b6000611944826118bb565b9050919050565b61195481611939565b811461195f57600080fd5b50565b6000813590506119718161194b565b92915050565b600080600080608085870312156119915761199061185b565b5b600061199f87828801611962565b94505060206119b087828801611886565b93505060406119c187828801611886565b92505060606119d2878288016118e4565b91505092959194509250565b600080fd5b600080fd5b6000601f19601f8301169050919050565b7f4e487b7100000000000000000000000000000000000000000000000000000000600052604160045260246000fd5b611a31826119e8565b810181811067ffffffffffffffff82111715611a5057611a4f6119f9565b5b80604052505050565b6000611a63611851565b9050611a6f8282611a28565b919050565b600067ffffffffffffffff821115611a8f57611a8e6119f9565b5b611a98826119e8565b9050602081019050919050565b82818337600083830152505050565b6000611ac7611ac284611a74565b611a59565b905082815260208101848484011115611ae357611ae26119e3565b5b611aee848285611aa5565b509392505050565b600082601f830112611b0b57611b0a6119de565b5b8135611b1b848260208601611ab4565b91505092915050565b60008060008060008060c08789031215611b4157611b4061185b565b5b6000611b4f89828a01611886565b965050602087013567ffffffffffffffff811115611b7057611b6f611860565b5b611b7c89828a01611af6565b9550506040611b8d89828a01611886565b9450506060611b9e89828a016118e4565b9350506080611baf89828a016118e4565b92505060a0611bc089828a01611886565b9150509295509295509295565b600060208284031215611be357611be261185b565b5b6000611bf184828501611886565b91505092915050565b600081519050919050565b600082825260208201905092915050565b6000819050602082019050919050565b611c2f81611865565b82525050565b600081519050919050565b600082825260208201905092915050565b60005b83811015611c6f578082015181840152602081019050611c54565b83811115611c7e576000848401525b50505050565b6000611c8f82611c35565b611c998185611c40565b9350611ca9818560208601611c51565b611cb2816119e8565b840191505092915050565b611cc6816118bb565b82525050565b600060c083016000830151611ce46000860182611c26565b5060208301518482036020860152611cfc8282611c84565b9150506040830151611d116040860182611c26565b506060830151611d246060860182611cbd565b506080830151611d376080860182611cbd565b5060a0830151611d4a60a0860182611c26565b508091505092915050565b6000611d618383611ccc565b905092915050565b6000602082019050919050565b6000611d8182611bfa565b611d8b8185611c05565b935083602082028501611d9d85611c16565b8060005b85811015611dd95784840389528151611dba8582611d55565b9450611dc583611d69565b925060208a01995050600181019050611da1565b50829750879550505050505092915050565b60006020820190508181036000830152611e058184611d76565b905092915050565b6000611e188261189b565b9050919050565b611e2881611e0d565b82525050565b6000602082019050611e436000830184611e1f565b92915050565b60008060408385031215611e6057611e5f61185b565b5b6000611e6e85828601611886565b9250506020611e7f85828601611886565b9150509250929050565b611e9281611865565b82525050565b600082825260208201905092915050565b6000611eb482611c35565b611ebe8185611e98565b9350611ece818560208601611c51565b611ed7816119e8565b840191505092915050565b611eeb816118bb565b82525050565b600060c082019050611f066000830189611e89565b8181036020830152611f188188611ea9565b9050611f276040830187611e89565b611f346060830186611ee2565b611f416080830185611ee2565b611f4e60a0830184611e89565b979650505050505050565b600060c083016000830151611f716000860182611c26565b5060208301518482036020860152611f898282611c84565b9150506040830151611f9e6040860182611c26565b506060830151611fb16060860182611cbd565b506080830151611fc46080860182611cbd565b5060a0830151611fd760a0860182611c26565b508091505092915050565b60006020820190508181036000830152611ffc8184611f59565b905092915050565b60006020820190506120196000830184611e89565b92915050565b60006020820190506120346000830184611ee2565b92915050565b61204381611e0d565b811461204e57600080fd5b50565b6000813590506120608161203a565b92915050565b60008060006060848603121561207f5761207e61185b565b5b600061208d86828701611886565b935050602061209e86828701611886565b92505060406120af86828701612051565b9150509250925092565b6000819050919050565b60006120de6120d96120d48461189b565b6120b9565b61189b565b9050919050565b60006120f0826120c3565b9050919050565b6000612102826120e5565b9050919050565b612112816120f7565b82525050565b60008115159050919050565b61212d81612118565b82525050565b600060e082019050612148600083018a611e89565b6121556020830189612109565b6121626040830188611e89565b61216f6060830187611e89565b61217c6080830186611e1f565b61218960a0830185612124565b61219660c0830184612124565b98975050505050505050565b600081519050919050565b600082825260208201905092915050565b6000819050602082019050919050565b60006121da8383611cbd565b60208301905092915050565b6000602082019050919050565b60006121fe826121a2565b61220881856121ad565b9350612213836121be565b8060005b8381101561224457815161222b88826121ce565b9750612236836121e6565b925050600181019050612217565b5085935050505092915050565b6000602082019050818103600083015261226b81846121f3565b905092915050565b7f5265656e7472616e637947756172643a207265656e7472616e742063616c6c00600082015250565b60006122a9601f83611e98565b91506122b482612273565b602082019050919050565b600060208201905081810360008301526122d88161229c565b9050919050565b7f6974656d20646f65736e27742065786973740000000000000000000000000000600082015250565b6000612315601283611e98565b9150612320826122df565b602082019050919050565b6000602082019050818103600083015261234481612308565b9050919050565b7f6e6f7420656e6f75676820657468657220746f20636f766572206974656d207060008201527f7269636520616e64206d61726b65742066656500000000000000000000000000602082015250565b60006123a7603383611e98565b91506123b28261234b565b604082019050919050565b600060208201905081810360008301526123d68161239a565b9050919050565b7f6974656d20616c726561647920736f6c64000000000000000000000000000000600082015250565b6000612413601183611e98565b915061241e826123dd565b602082019050919050565b6000602082019050818103600083015261244281612406565b9050919050565b7f4e487b7100000000000000000000000000000000000000000000000000000000600052601260045260246000fd5b7f4e487b7100000000000000000000000000000000000000000000000000000000600052601160045260246000fd5b60006124b282611865565b91506124bd83611865565b9250826124cd576124cc612449565b5b828204905092915050565b60006124e382611865565b91506124ee83611865565b92508282101561250157612500612478565b5b828203905092915050565b60006060820190506125216000830186611ee2565b61252e6020830185611ee2565b61253b6040830184611e89565b949350505050565b60006060820190506125586000830186611e89565b6125656020830185611e89565b6125726040830184611e89565b949350505050565b600061258582611865565b91507fffffffffffffffffffffffffffffffffffffffffffffffffffffffffffffffff8214156125b8576125b7612478565b5b600182019050919050565b7f4e487b7100000000000000000000000000000000000000000000000000000000600052602260045260246000fd5b6000600282049050600182168061260a57607f821691505b6020821081141561261e5761261d6125c3565b5b50919050565b7f4e487b7100000000000000000000000000000000000000000000000000000000600052603260045260246000fd5b7f5072696365206d75737420626520686967686572207468616e20300000000000600082015250565b6000612689601b83611e98565b915061269482612653565b602082019050919050565b600060208201905081810360008301526126b88161267c565b9050919050565b60006126ca82611865565b91506126d583611865565b9250827fffffffffffffffffffffffffffffffffffffffffffffffffffffffffffffffff0382111561270a57612709612478565b5b828201905092915050565b600061272082611865565b915061272b83611865565b9250817fffffffffffffffffffffffffffffffffffffffffffffffffffffffffffffffff048311821515161561276457612763612478565b5b82820290509291505056fea264697066735822122073065ca004b3c7ebd2579459ea2a703772e8d61b32bd708604a38198b676d42c64736f6c634300080b0033",
  "immutableReferences": {
    "2462": [
      {
        "length": 32,
        "start": 1557
      },
      {
        "length": 32,
        "start": 3358
      },
      {
        "length": 32,
        "start": 4580
      }
    ],
    "2464": [
      {
        "length": 32,
        "start": 5185
      },
      {
        "length": 32,
        "start": 5710
      }
    ]
  },
  "source": "// SPDX-License-Identifier: MIT\r\npragma solidity ^0.8.0;\r\n\r\nimport \"../../node_modules/@openzeppelin/contracts/token/ERC721/IERC721.sol\";\r\n\r\nimport \"../../node_modules/@openzeppelin/contracts/security/ReentrancyGuard.sol\";\r\n\r\n\r\n\r\n\r\ncontract Marketplace is ReentrancyGuard {\r\n\r\n    // Variables\r\n    address payable public immutable feeAccount; // the account that receives fees\r\n    uint public immutable feePercent; // the fee percentage on sales \r\n    uint public itemCount; \r\n\r\n    struct Item {\r\n        uint itemId;\r\n        IERC721 nft;\r\n        uint tokenId;\r\n        uint price;\r\n        address payable seller;\r\n        bool sold;\r\n        bool check;\r\n    }\r\n\r\n    struct ItemHistory{\r\n        uint itemId;\r\n        string eventName;\r\n        uint price;\r\n        address from;\r\n        address to;\r\n        uint time;\r\n    }\r\n\r\n    //itemId -> address[]\r\n    mapping(uint => address[]) public downloaders;\r\n\r\n    //itemId -> ItemHistory[]\r\n    mapping(uint => ItemHistory[]) public itemTracks;\r\n\r\n    // itemId -> Item\r\n    mapping(uint => Item) public items;\r\n\r\n    event Offered(\r\n        uint itemId,\r\n        address indexed nft,\r\n        uint tokenId,\r\n        uint price,\r\n        address indexed seller\r\n    );\r\n    event Bought(\r\n        uint itemId,\r\n        address indexed nft,\r\n        uint tokenId,\r\n        uint price,\r\n        address indexed seller,\r\n        address indexed buyer\r\n    );\r\n\r\n    constructor() {\r\n        feeAccount = payable(msg.sender);\r\n        feePercent = 1;\r\n    }\r\n\r\n    // Make item to offer on the marketplace\r\n    function makeItem(IERC721 _nft, uint _tokenId, uint _price, address _seller) external nonReentrant {\r\n        if (_price > 0)\r\n        {\r\n            // transfer nft to marketplace\r\n            _nft.transferFrom(msg.sender, address(this), _tokenId);\r\n\r\n             // emit Offered event\r\n            emit Offered(\r\n                itemCount,\r\n                address(_nft),\r\n                _tokenId,\r\n                _price,\r\n                _seller\r\n            );\r\n        }\r\n        //require(_price > 0, \"Price must be greater than zero\");\r\n        // increment itemCount\r\n        itemCount ++;\r\n        \r\n        // add new item to items mapping\r\n        items[itemCount] = Item (\r\n            itemCount,\r\n            _nft,\r\n            _tokenId,\r\n            _price,\r\n            payable(_seller),\r\n            false, \r\n            false\r\n        );\r\n       \r\n    }\r\n\r\n    function purchaseItem(uint _itemId, address _buyer) external payable nonReentrant {\r\n        uint _totalPrice = getTotalPrice(_itemId);\r\n        Item storage item = items[_itemId];\r\n        require(_itemId > 0 && _itemId <= itemCount, \"item doesn't exist\");\r\n        require(msg.value >= _totalPrice, \"not enough ether to cover item price and market fee\");\r\n        require(!item.sold, \"item already sold\");\r\n        // pay seller and feeAccount\r\n        item.seller.transfer(item.price);\r\n        feeAccount.transfer(_totalPrice - item.price);\r\n        // update item to sold\r\n        item.sold = true;\r\n        // transfer nft to buyer\r\n        item.nft.transferFrom(address(this), msg.sender, item.tokenId);\r\n        // emit Bought event\r\n        emit Bought(\r\n            _itemId,\r\n            address(item.nft),\r\n            item.tokenId,\r\n            item.price,\r\n            item.seller,\r\n            _buyer\r\n        );\r\n\r\n        //change seller to buyer\r\n        items[_itemId].seller = payable(_buyer);\r\n    }\r\n\r\n    function purchaseDownloadItem(uint _itemId, address _buyer) external payable nonReentrant {\r\n        uint _totalPrice = getTotalPrice(_itemId);\r\n        Item storage item = items[_itemId];\r\n        require(_itemId > 0 && _itemId <= itemCount, \"item doesn't exist\");\r\n        require(msg.value >= _totalPrice, \"not enough ether to cover item price and market fee\");\r\n        require(!item.sold, \"item already sold\");\r\n\r\n        // pay seller and feeAccount\r\n        item.seller.transfer(item.price/2);\r\n        feeAccount.transfer(_totalPrice/2 - item.price/2);\r\n        \r\n       //add buyer to downloader\r\n       downloaders[_itemId].push(_buyer);\r\n       \r\n    }\r\n\r\n    function OfferItem(uint _itemId, uint _price, address payable _seller) external {\r\n        \r\n        require(_price>0, \"Price must be higher than 0\");\r\n        Item storage item = items[_itemId];\r\n        //transfer to marketplace\r\n         \r\n        //_nft.transferFrom(msg.sender, address(this), item.tokenId);\r\n        item.seller = _seller;\r\n\r\n         //change sold from true to false\r\n        item.sold = false;\r\n\r\n        //set price\r\n        item.price = _price;\r\n    }\r\n\r\n\r\n\r\n    function getTotalPrice(uint _itemId) view public returns(uint){\r\n        return((items[_itemId].price*(100 + feePercent))/100);\r\n    }\r\n\r\n    function getItemCount() view public returns(uint){\r\n        return itemCount;\r\n    }\r\n\r\n    function Checked(uint _itemId) external {\r\n        //kim tra xem  tn ti cha\r\n\r\n        //thay i thnh  c xc nhn\r\n        items[_itemId].check = true;\r\n    }\r\n\r\n    function addHistory( uint _itemId, string memory _eventName, uint _price, address _from, address _to, uint _time) public {\r\n        itemTracks[_itemId].push(ItemHistory(_itemId, _eventName, _price, _from, _to, _time));\r\n    }\r\n\r\n    function getHistories(uint _itemId) public view returns (ItemHistory[] memory){\r\n        return itemTracks[_itemId];\r\n    }\r\n\r\n    function getHistory(uint _itemId, uint _historyId) public view returns (ItemHistory memory){\r\n        return itemTracks[_itemId][_historyId];\r\n    }\r\n    function getDownloaders(uint _itemId) public view returns (address[] memory){\r\n        return downloaders[_itemId];\r\n    }\r\n\r\n}",
  "sourcePath": "E:\\Code\\React\\marketplace\\src\\contracts\\Marketplace.sol",
  "compiler": {
    "name": "solc",
    "version": "0.8.11+commit.d7f03943.Emscripten.clang"
  },
  "schemaVersion": "3.4.7",
  "updatedAt": "2022-10-14T01:30:35.673Z",
  "networkType": "ethereum",
  "devdoc": {
    "kind": "dev",
    "methods": {},
    "version": 1
  },
  "userdoc": {
    "kind": "user",
    "methods": {},
    "version": 1
  }
}