{
  "contractName": "Marketplace",
  "abi": [
    {
      "inputs": [],
      "stateMutability": "nonpayable",
      "type": "constructor"
    },
    {
      "anonymous": false,
      "inputs": [
        {
          "indexed": false,
          "internalType": "uint256",
          "name": "itemId",
          "type": "uint256"
        },
        {
          "indexed": true,
          "internalType": "address",
          "name": "nft",
          "type": "address"
        },
        {
          "indexed": false,
          "internalType": "uint256",
          "name": "tokenId",
          "type": "uint256"
        },
        {
          "indexed": false,
          "internalType": "uint256",
          "name": "price",
          "type": "uint256"
        },
        {
          "indexed": true,
          "internalType": "address",
          "name": "seller",
          "type": "address"
        },
        {
          "indexed": true,
          "internalType": "address",
          "name": "buyer",
          "type": "address"
        }
      ],
      "name": "Bought",
      "type": "event"
    },
    {
      "anonymous": false,
      "inputs": [
        {
          "indexed": false,
          "internalType": "uint256",
          "name": "itemId",
          "type": "uint256"
        },
        {
          "indexed": true,
          "internalType": "address",
          "name": "nft",
          "type": "address"
        },
        {
          "indexed": false,
          "internalType": "uint256",
          "name": "tokenId",
          "type": "uint256"
        },
        {
          "indexed": false,
          "internalType": "uint256",
          "name": "price",
          "type": "uint256"
        },
        {
          "indexed": true,
          "internalType": "address",
          "name": "seller",
          "type": "address"
        }
      ],
      "name": "Offered",
      "type": "event"
    },
    {
      "inputs": [
        {
          "internalType": "uint256",
          "name": "",
          "type": "uint256"
        },
        {
          "internalType": "uint256",
          "name": "",
          "type": "uint256"
        }
      ],
      "name": "downloaders",
      "outputs": [
        {
          "internalType": "address",
          "name": "",
          "type": "address"
        }
      ],
      "stateMutability": "view",
      "type": "function",
      "constant": true
    },
    {
      "inputs": [],
      "name": "feeAccount",
      "outputs": [
        {
          "internalType": "address payable",
          "name": "",
          "type": "address"
        }
      ],
      "stateMutability": "view",
      "type": "function",
      "constant": true
    },
    {
      "inputs": [],
      "name": "feePercent",
      "outputs": [
        {
          "internalType": "uint256",
          "name": "",
          "type": "uint256"
        }
      ],
      "stateMutability": "view",
      "type": "function",
      "constant": true
    },
    {
      "inputs": [],
      "name": "itemCount",
      "outputs": [
        {
          "internalType": "uint256",
          "name": "",
          "type": "uint256"
        }
      ],
      "stateMutability": "view",
      "type": "function",
      "constant": true
    },
    {
      "inputs": [
        {
          "internalType": "uint256",
          "name": "",
          "type": "uint256"
        },
        {
          "internalType": "uint256",
          "name": "",
          "type": "uint256"
        }
      ],
      "name": "itemTracks",
      "outputs": [
        {
          "internalType": "uint256",
          "name": "itemId",
          "type": "uint256"
        },
        {
          "internalType": "string",
          "name": "eventName",
          "type": "string"
        },
        {
          "internalType": "uint256",
          "name": "price",
          "type": "uint256"
        },
        {
          "internalType": "address",
          "name": "from",
          "type": "address"
        },
        {
          "internalType": "address",
          "name": "to",
          "type": "address"
        },
        {
          "internalType": "uint256",
          "name": "time",
          "type": "uint256"
        }
      ],
      "stateMutability": "view",
      "type": "function",
      "constant": true
    },
    {
      "inputs": [
        {
          "internalType": "uint256",
          "name": "",
          "type": "uint256"
        }
      ],
      "name": "items",
      "outputs": [
        {
          "internalType": "uint256",
          "name": "itemId",
          "type": "uint256"
        },
        {
          "internalType": "contract IERC721",
          "name": "nft",
          "type": "address"
        },
        {
          "internalType": "uint256",
          "name": "tokenId",
          "type": "uint256"
        },
        {
          "internalType": "uint256",
          "name": "price",
          "type": "uint256"
        },
        {
          "internalType": "address payable",
          "name": "seller",
          "type": "address"
        },
        {
          "internalType": "bool",
          "name": "sold",
          "type": "bool"
        },
        {
          "internalType": "bool",
          "name": "check",
          "type": "bool"
        }
      ],
      "stateMutability": "view",
      "type": "function",
      "constant": true
    },
    {
      "inputs": [
        {
          "internalType": "contract IERC721",
          "name": "_nft",
          "type": "address"
        },
        {
          "internalType": "uint256",
          "name": "_tokenId",
          "type": "uint256"
        },
        {
          "internalType": "uint256",
          "name": "_price",
          "type": "uint256"
        },
        {
          "internalType": "address",
          "name": "_seller",
          "type": "address"
        }
      ],
      "name": "makeItem",
      "outputs": [],
      "stateMutability": "nonpayable",
      "type": "function"
    },
    {
      "inputs": [
        {
          "internalType": "uint256",
          "name": "_itemId",
          "type": "uint256"
        },
        {
          "internalType": "address",
          "name": "_buyer",
          "type": "address"
        }
      ],
      "name": "purchaseItem",
      "outputs": [],
      "stateMutability": "payable",
      "type": "function",
      "payable": true
    },
    {
      "inputs": [
        {
          "internalType": "uint256",
          "name": "_itemId",
          "type": "uint256"
        },
        {
          "internalType": "address",
          "name": "_buyer",
          "type": "address"
        }
      ],
      "name": "transferItem",
      "outputs": [],
      "stateMutability": "payable",
      "type": "function",
      "payable": true
    },
    {
      "inputs": [
        {
          "internalType": "uint256",
          "name": "_itemId",
          "type": "uint256"
        },
        {
          "internalType": "address",
          "name": "_buyer",
          "type": "address"
        }
      ],
      "name": "purchaseDownloadItem",
      "outputs": [],
      "stateMutability": "payable",
      "type": "function",
      "payable": true
    },
    {
      "inputs": [
        {
          "internalType": "uint256",
          "name": "_itemId",
          "type": "uint256"
        },
        {
          "internalType": "uint256",
          "name": "_price",
          "type": "uint256"
        },
        {
          "internalType": "address payable",
          "name": "_seller",
          "type": "address"
        }
      ],
      "name": "OfferItem",
      "outputs": [],
      "stateMutability": "nonpayable",
      "type": "function"
    },
    {
      "inputs": [
        {
          "internalType": "uint256",
          "name": "_itemId",
          "type": "uint256"
        }
      ],
      "name": "getTotalPrice",
      "outputs": [
        {
          "internalType": "uint256",
          "name": "",
          "type": "uint256"
        }
      ],
      "stateMutability": "view",
      "type": "function",
      "constant": true
    },
    {
      "inputs": [],
      "name": "getItemCount",
      "outputs": [
        {
          "internalType": "uint256",
          "name": "",
          "type": "uint256"
        }
      ],
      "stateMutability": "view",
      "type": "function",
      "constant": true
    },
    {
      "inputs": [
        {
          "internalType": "uint256",
          "name": "_itemId",
          "type": "uint256"
        }
      ],
      "name": "Checked",
      "outputs": [],
      "stateMutability": "nonpayable",
      "type": "function"
    },
    {
      "inputs": [
        {
          "internalType": "uint256",
          "name": "_itemId",
          "type": "uint256"
        },
        {
          "internalType": "string",
          "name": "_eventName",
          "type": "string"
        },
        {
          "internalType": "uint256",
          "name": "_price",
          "type": "uint256"
        },
        {
          "internalType": "address",
          "name": "_from",
          "type": "address"
        },
        {
          "internalType": "address",
          "name": "_to",
          "type": "address"
        },
        {
          "internalType": "uint256",
          "name": "_time",
          "type": "uint256"
        }
      ],
      "name": "addHistory",
      "outputs": [],
      "stateMutability": "nonpayable",
      "type": "function"
    },
    {
      "inputs": [
        {
          "internalType": "uint256",
          "name": "_itemId",
          "type": "uint256"
        }
      ],
      "name": "getHistories",
      "outputs": [
        {
          "components": [
            {
              "internalType": "uint256",
              "name": "itemId",
              "type": "uint256"
            },
            {
              "internalType": "string",
              "name": "eventName",
              "type": "string"
            },
            {
              "internalType": "uint256",
              "name": "price",
              "type": "uint256"
            },
            {
              "internalType": "address",
              "name": "from",
              "type": "address"
            },
            {
              "internalType": "address",
              "name": "to",
              "type": "address"
            },
            {
              "internalType": "uint256",
              "name": "time",
              "type": "uint256"
            }
          ],
          "internalType": "struct Marketplace.ItemHistory[]",
          "name": "",
          "type": "tuple[]"
        }
      ],
      "stateMutability": "view",
      "type": "function",
      "constant": true
    },
    {
      "inputs": [
        {
          "internalType": "uint256",
          "name": "_itemId",
          "type": "uint256"
        },
        {
          "internalType": "uint256",
          "name": "_historyId",
          "type": "uint256"
        }
      ],
      "name": "getHistory",
      "outputs": [
        {
          "components": [
            {
              "internalType": "uint256",
              "name": "itemId",
              "type": "uint256"
            },
            {
              "internalType": "string",
              "name": "eventName",
              "type": "string"
            },
            {
              "internalType": "uint256",
              "name": "price",
              "type": "uint256"
            },
            {
              "internalType": "address",
              "name": "from",
              "type": "address"
            },
            {
              "internalType": "address",
              "name": "to",
              "type": "address"
            },
            {
              "internalType": "uint256",
              "name": "time",
              "type": "uint256"
            }
          ],
          "internalType": "struct Marketplace.ItemHistory",
          "name": "",
          "type": "tuple"
        }
      ],
      "stateMutability": "view",
      "type": "function",
      "constant": true
    },
    {
      "inputs": [
        {
          "internalType": "uint256",
          "name": "_itemId",
          "type": "uint256"
        }
      ],
      "name": "getDownloaders",
      "outputs": [
        {
          "internalType": "address[]",
          "name": "",
          "type": "address[]"
        }
      ],
      "stateMutability": "view",
      "type": "function",
      "constant": true
    }
  ],
  "bytecode": "0x60c060405234801561001057600080fd5b5060016000819055503373ffffffffffffffffffffffffffffffffffffffff1660808173ffffffffffffffffffffffffffffffffffffffff1681525050600160a0818152505060805160a051612a6861009060003960008181611468015261191101526000818161063c01528181610d45015261120b0152612a686000f3fe6080604052600436106101085760003560e01c80637bfe9efd11610095578063a422910111610064578063a422910114610365578063b3344c9414610381578063bfb231d2146103aa578063ca7dd375146103ed578063e6ebe1e11461042a57610108565b80637bfe9efd146102b85780637fd6f15c146102d457806391264efb146102ff578063a24434281461033c57610108565b806365e17c9d116100dc57806365e17c9d146101b857806368f0d401146101e35780636906679b146102255780636bfb0d01146102625780637749cf231461028d57610108565b80623aa4bb1461010d5780632d121be4146101295780633a945135146101525780635931b1691461017b575b600080fd5b61012760048036038101906101229190611bbc565b610467565b005b34801561013557600080fd5b50610150600480360381019061014b9190611c3a565b61074a565b005b34801561015e57600080fd5b5061017960048036038101906101749190611de7565b610a0d565b005b34801561018757600080fd5b506101a2600480360381019061019d9190611e90565b610b75565b6040516101af91906120ae565b60405180910390f35b3480156101c457600080fd5b506101cd610d43565b6040516101da91906120f1565b60405180910390f35b3480156101ef57600080fd5b5061020a6004803603810190610205919061210c565b610d67565b60405161021c969594939291906121b4565b60405180910390f35b34801561023157600080fd5b5061024c6004803603810190610247919061210c565b610e88565b60405161025991906122a5565b60405180910390f35b34801561026e57600080fd5b50610277611032565b60405161028491906122c7565b60405180910390f35b34801561029957600080fd5b506102a2611038565b6040516102af91906122c7565b60405180910390f35b6102d260048036038101906102cd9190611bbc565b611042565b005b3480156102e057600080fd5b506102e9611466565b6040516102f691906122c7565b60405180910390f35b34801561030b57600080fd5b506103266004803603810190610321919061210c565b61148a565b60405161033391906122e2565b60405180910390f35b34801561034857600080fd5b50610363600480360381019061035e9190611e90565b6114d8565b005b61037f600480360381019061037a9190611bbc565b61150a565b005b34801561038d57600080fd5b506103a860048036038101906103a39190612329565b6117a6565b005b3480156103b657600080fd5b506103d160048036038101906103cc9190611e90565b61186f565b6040516103e497969594939291906123f6565b60405180910390f35b3480156103f957600080fd5b50610414600480360381019061040f9190611e90565b61190b565b60405161042191906122c7565b60405180910390f35b34801561043657600080fd5b50610451600480360381019061044c9190611e90565b61196e565b60405161045e9190612514565b60405180910390f35b600260005414156104ad576040517f08c379a00000000000000000000000000000000000000000000000000000000081526004016104a490612582565b60405180910390fd5b600260008190555060006104c08361190b565b905060006004600085815260200190815260200160002090506000841180156104eb57506001548411155b61052a576040517f08c379a0000000000000000000000000000000000000000000000000000000008152600401610521906125ee565b60405180910390fd5b8134101561056d576040517f08c379a000000000000000000000000000000000000000000000000000000000815260040161056490612680565b60405180910390fd5b8060040160149054906101000a900460ff16156105bf576040517f08c379a00000000000000000000000000000000000000000000000000000000081526004016105b6906126ec565b60405180910390fd5b8060040160009054906101000a900473ffffffffffffffffffffffffffffffffffffffff1673ffffffffffffffffffffffffffffffffffffffff166108fc6002836003015461060e919061276a565b9081150290604051600060405180830381858888f19350505050158015610639573d6000803e3d6000fd5b507f000000000000000000000000000000000000000000000000000000000000000073ffffffffffffffffffffffffffffffffffffffff166108fc60028360030154610685919061276a565b600285610692919061276a565b61069c919061279b565b9081150290604051600060405180830381858888f193505050501580156106c7573d6000803e3d6000fd5b5060026000858152602001908152602001600020839080600181540180825580915050600190039060005260206000200160009091909190916101000a81548173ffffffffffffffffffffffffffffffffffffffff021916908373ffffffffffffffffffffffffffffffffffffffff160217905550505060016000819055505050565b60026000541415610790576040517f08c379a000000000000000000000000000000000000000000000000000000000815260040161078790612582565b60405180910390fd5b6002600081905550600082111561087c578373ffffffffffffffffffffffffffffffffffffffff166323b872dd3330866040518463ffffffff1660e01b81526004016107de939291906127cf565b600060405180830381600087803b1580156107f857600080fd5b505af115801561080c573d6000803e3d6000fd5b505050508073ffffffffffffffffffffffffffffffffffffffff168473ffffffffffffffffffffffffffffffffffffffff167f655a0cf9c8db81512be9a76dc1c5ae5380b8816ce6ad659cd61b715e2999d59a600154868660405161087393929190612806565b60405180910390a35b6001600081548092919061088f9061283d565b91905055506040518060e0016040528060015481526020018573ffffffffffffffffffffffffffffffffffffffff1681526020018481526020018381526020018273ffffffffffffffffffffffffffffffffffffffff168152602001600015158152602001600015158152506004600060015481526020019081526020016000206000820151816000015560208201518160010160006101000a81548173ffffffffffffffffffffffffffffffffffffffff021916908373ffffffffffffffffffffffffffffffffffffffff160217905550604082015181600201556060820151816003015560808201518160040160006101000a81548173ffffffffffffffffffffffffffffffffffffffff021916908373ffffffffffffffffffffffffffffffffffffffff16021790555060a08201518160040160146101000a81548160ff02191690831515021790555060c08201518160040160156101000a81548160ff021916908315150217905550905050600160008190555050505050565b600360008781526020019081526020016000206040518060c001604052808881526020018781526020018681526020018573ffffffffffffffffffffffffffffffffffffffff1681526020018473ffffffffffffffffffffffffffffffffffffffff168152602001838152509080600181540180825580915050600190039060005260206000209060060201600090919091909150600082015181600001556020820151816001019080519060200190610ac8929190611a0f565b506040820151816002015560608201518160030160006101000a81548173ffffffffffffffffffffffffffffffffffffffff021916908373ffffffffffffffffffffffffffffffffffffffff16021790555060808201518160040160006101000a81548173ffffffffffffffffffffffffffffffffffffffff021916908373ffffffffffffffffffffffffffffffffffffffff16021790555060a082015181600501555050505050505050565b606060036000838152602001908152602001600020805480602002602001604051908101604052809291908181526020016000905b82821015610d3857838290600052602060002090600602016040518060c001604052908160008201548152602001600182018054610be7906128b5565b80601f0160208091040260200160405190810160405280929190818152602001828054610c13906128b5565b8015610c605780601f10610c3557610100808354040283529160200191610c60565b820191906000526020600020905b815481529060010190602001808311610c4357829003601f168201915b50505050508152602001600282015481526020016003820160009054906101000a900473ffffffffffffffffffffffffffffffffffffffff1673ffffffffffffffffffffffffffffffffffffffff1673ffffffffffffffffffffffffffffffffffffffff1681526020016004820160009054906101000a900473ffffffffffffffffffffffffffffffffffffffff1673ffffffffffffffffffffffffffffffffffffffff1673ffffffffffffffffffffffffffffffffffffffff16815260200160058201548152505081526020019060010190610baa565b505050509050919050565b7f000000000000000000000000000000000000000000000000000000000000000081565b60036020528160005260406000208181548110610d8357600080fd5b906000526020600020906006020160009150915050806000015490806001018054610dad906128b5565b80601f0160208091040260200160405190810160405280929190818152602001828054610dd9906128b5565b8015610e265780601f10610dfb57610100808354040283529160200191610e26565b820191906000526020600020905b815481529060010190602001808311610e0957829003601f168201915b5050505050908060020154908060030160009054906101000a900473ffffffffffffffffffffffffffffffffffffffff16908060040160009054906101000a900473ffffffffffffffffffffffffffffffffffffffff16908060050154905086565b610e90611a95565b600360008481526020019081526020016000208281548110610eb557610eb46128e7565b5b90600052602060002090600602016040518060c001604052908160008201548152602001600182018054610ee8906128b5565b80601f0160208091040260200160405190810160405280929190818152602001828054610f14906128b5565b8015610f615780601f10610f3657610100808354040283529160200191610f61565b820191906000526020600020905b815481529060010190602001808311610f4457829003601f168201915b50505050508152602001600282015481526020016003820160009054906101000a900473ffffffffffffffffffffffffffffffffffffffff1673ffffffffffffffffffffffffffffffffffffffff1673ffffffffffffffffffffffffffffffffffffffff1681526020016004820160009054906101000a900473ffffffffffffffffffffffffffffffffffffffff1673ffffffffffffffffffffffffffffffffffffffff1673ffffffffffffffffffffffffffffffffffffffff168152602001600582015481525050905092915050565b60015481565b6000600154905090565b60026000541415611088576040517f08c379a000000000000000000000000000000000000000000000000000000000815260040161107f90612582565b60405180910390fd5b6002600081905550600061109b8361190b565b905060006004600085815260200190815260200160002090506000841180156110c657506001548411155b611105576040517f08c379a00000000000000000000000000000000000000000000000000000000081526004016110fc906125ee565b60405180910390fd5b81341015611148576040517f08c379a000000000000000000000000000000000000000000000000000000000815260040161113f90612680565b60405180910390fd5b8060040160149054906101000a900460ff161561119a576040517f08c379a0000000000000000000000000000000000000000000000000000000008152600401611191906126ec565b60405180910390fd5b8060040160009054906101000a900473ffffffffffffffffffffffffffffffffffffffff1673ffffffffffffffffffffffffffffffffffffffff166108fc82600301549081150290604051600060405180830381858888f19350505050158015611208573d6000803e3d6000fd5b507f000000000000000000000000000000000000000000000000000000000000000073ffffffffffffffffffffffffffffffffffffffff166108fc826003015484611253919061279b565b9081150290604051600060405180830381858888f1935050505015801561127e573d6000803e3d6000fd5b5060018160040160146101000a81548160ff0219169083151502179055508060010160009054906101000a900473ffffffffffffffffffffffffffffffffffffffff1673ffffffffffffffffffffffffffffffffffffffff166323b872dd303384600201546040518463ffffffff1660e01b8152600401611301939291906127cf565b600060405180830381600087803b15801561131b57600080fd5b505af115801561132f573d6000803e3d6000fd5b505050508273ffffffffffffffffffffffffffffffffffffffff168160040160009054906101000a900473ffffffffffffffffffffffffffffffffffffffff1673ffffffffffffffffffffffffffffffffffffffff168260010160009054906101000a900473ffffffffffffffffffffffffffffffffffffffff1673ffffffffffffffffffffffffffffffffffffffff167f8b4c9c8a607d67b321582dd8461041b1dc2ceeca70c8b7f37f8e02095cf2e76d87856002015486600301546040516113fb93929190612806565b60405180910390a4826004600086815260200190815260200160002060040160006101000a81548173ffffffffffffffffffffffffffffffffffffffff021916908373ffffffffffffffffffffffffffffffffffffffff160217905550505060016000819055505050565b7f000000000000000000000000000000000000000000000000000000000000000081565b600260205281600052604060002081815481106114a657600080fd5b906000526020600020016000915091509054906101000a900473ffffffffffffffffffffffffffffffffffffffff1681565b60016004600083815260200190815260200160002060040160156101000a81548160ff02191690831515021790555050565b60026000541415611550576040517f08c379a000000000000000000000000000000000000000000000000000000000815260040161154790612582565b60405180910390fd5b6002600081905550600060046000848152602001908152602001600020905060008311801561158157506001548311155b6115c0576040517f08c379a00000000000000000000000000000000000000000000000000000000081526004016115b7906125ee565b60405180910390fd5b60018160040160146101000a81548160ff0219169083151502179055508060010160009054906101000a900473ffffffffffffffffffffffffffffffffffffffff1673ffffffffffffffffffffffffffffffffffffffff166323b872dd338484600201546040518463ffffffff1660e01b8152600401611642939291906127cf565b600060405180830381600087803b15801561165c57600080fd5b505af1158015611670573d6000803e3d6000fd5b505050508173ffffffffffffffffffffffffffffffffffffffff168160040160009054906101000a900473ffffffffffffffffffffffffffffffffffffffff1673ffffffffffffffffffffffffffffffffffffffff168260010160009054906101000a900473ffffffffffffffffffffffffffffffffffffffff1673ffffffffffffffffffffffffffffffffffffffff167f8b4c9c8a607d67b321582dd8461041b1dc2ceeca70c8b7f37f8e02095cf2e76d868560020154866003015460405161173c93929190612806565b60405180910390a4816004600085815260200190815260200160002060040160006101000a81548173ffffffffffffffffffffffffffffffffffffffff021916908373ffffffffffffffffffffffffffffffffffffffff1602179055505060016000819055505050565b600082116117e9576040517f08c379a00000000000000000000000000000000000000000000000000000000081526004016117e090612962565b60405180910390fd5b6000600460008581526020019081526020016000209050818160040160006101000a81548173ffffffffffffffffffffffffffffffffffffffff021916908373ffffffffffffffffffffffffffffffffffffffff16021790555060008160040160146101000a81548160ff02191690831515021790555082816003018190555050505050565b60046020528060005260406000206000915090508060000154908060010160009054906101000a900473ffffffffffffffffffffffffffffffffffffffff16908060020154908060030154908060040160009054906101000a900473ffffffffffffffffffffffffffffffffffffffff16908060040160149054906101000a900460ff16908060040160159054906101000a900460ff16905087565b600060647f0000000000000000000000000000000000000000000000000000000000000000606461193c9190612982565b600460008581526020019081526020016000206003015461195d91906129d8565b611967919061276a565b9050919050565b606060026000838152602001908152602001600020805480602002602001604051908101604052809291908181526020018280548015611a0357602002820191906000526020600020905b8160009054906101000a900473ffffffffffffffffffffffffffffffffffffffff1673ffffffffffffffffffffffffffffffffffffffff16815260200190600101908083116119b9575b50505050509050919050565b828054611a1b906128b5565b90600052602060002090601f016020900481019282611a3d5760008555611a84565b82601f10611a5657805160ff1916838001178555611a84565b82800160010185558215611a84579182015b82811115611a83578251825591602001919060010190611a68565b5b509050611a919190611af7565b5090565b6040518060c00160405280600081526020016060815260200160008152602001600073ffffffffffffffffffffffffffffffffffffffff168152602001600073ffffffffffffffffffffffffffffffffffffffff168152602001600081525090565b5b80821115611b10576000816000905550600101611af8565b5090565b6000604051905090565b600080fd5b600080fd5b6000819050919050565b611b3b81611b28565b8114611b4657600080fd5b50565b600081359050611b5881611b32565b92915050565b600073ffffffffffffffffffffffffffffffffffffffff82169050919050565b6000611b8982611b5e565b9050919050565b611b9981611b7e565b8114611ba457600080fd5b50565b600081359050611bb681611b90565b92915050565b60008060408385031215611bd357611bd2611b1e565b5b6000611be185828601611b49565b9250506020611bf285828601611ba7565b9150509250929050565b6000611c0782611b7e565b9050919050565b611c1781611bfc565b8114611c2257600080fd5b50565b600081359050611c3481611c0e565b92915050565b60008060008060808587031215611c5457611c53611b1e565b5b6000611c6287828801611c25565b9450506020611c7387828801611b49565b9350506040611c8487828801611b49565b9250506060611c9587828801611ba7565b91505092959194509250565b600080fd5b600080fd5b6000601f19601f8301169050919050565b7f4e487b7100000000000000000000000000000000000000000000000000000000600052604160045260246000fd5b611cf482611cab565b810181811067ffffffffffffffff82111715611d1357611d12611cbc565b5b80604052505050565b6000611d26611b14565b9050611d328282611ceb565b919050565b600067ffffffffffffffff821115611d5257611d51611cbc565b5b611d5b82611cab565b9050602081019050919050565b82818337600083830152505050565b6000611d8a611d8584611d37565b611d1c565b905082815260208101848484011115611da657611da5611ca6565b5b611db1848285611d68565b509392505050565b600082601f830112611dce57611dcd611ca1565b5b8135611dde848260208601611d77565b91505092915050565b60008060008060008060c08789031215611e0457611e03611b1e565b5b6000611e1289828a01611b49565b965050602087013567ffffffffffffffff811115611e3357611e32611b23565b5b611e3f89828a01611db9565b9550506040611e5089828a01611b49565b9450506060611e6189828a01611ba7565b9350506080611e7289828a01611ba7565b92505060a0611e8389828a01611b49565b9150509295509295509295565b600060208284031215611ea657611ea5611b1e565b5b6000611eb484828501611b49565b91505092915050565b600081519050919050565b600082825260208201905092915050565b6000819050602082019050919050565b611ef281611b28565b82525050565b600081519050919050565b600082825260208201905092915050565b60005b83811015611f32578082015181840152602081019050611f17565b83811115611f41576000848401525b50505050565b6000611f5282611ef8565b611f5c8185611f03565b9350611f6c818560208601611f14565b611f7581611cab565b840191505092915050565b611f8981611b7e565b82525050565b600060c083016000830151611fa76000860182611ee9565b5060208301518482036020860152611fbf8282611f47565b9150506040830151611fd46040860182611ee9565b506060830151611fe76060860182611f80565b506080830151611ffa6080860182611f80565b5060a083015161200d60a0860182611ee9565b508091505092915050565b60006120248383611f8f565b905092915050565b6000602082019050919050565b600061204482611ebd565b61204e8185611ec8565b93508360208202850161206085611ed9565b8060005b8581101561209c578484038952815161207d8582612018565b94506120888361202c565b925060208a01995050600181019050612064565b50829750879550505050505092915050565b600060208201905081810360008301526120c88184612039565b905092915050565b60006120db82611b5e565b9050919050565b6120eb816120d0565b82525050565b600060208201905061210660008301846120e2565b92915050565b6000806040838503121561212357612122611b1e565b5b600061213185828601611b49565b925050602061214285828601611b49565b9150509250929050565b61215581611b28565b82525050565b600082825260208201905092915050565b600061217782611ef8565b612181818561215b565b9350612191818560208601611f14565b61219a81611cab565b840191505092915050565b6121ae81611b7e565b82525050565b600060c0820190506121c9600083018961214c565b81810360208301526121db818861216c565b90506121ea604083018761214c565b6121f760608301866121a5565b61220460808301856121a5565b61221160a083018461214c565b979650505050505050565b600060c0830160008301516122346000860182611ee9565b506020830151848203602086015261224c8282611f47565b91505060408301516122616040860182611ee9565b5060608301516122746060860182611f80565b5060808301516122876080860182611f80565b5060a083015161229a60a0860182611ee9565b508091505092915050565b600060208201905081810360008301526122bf818461221c565b905092915050565b60006020820190506122dc600083018461214c565b92915050565b60006020820190506122f760008301846121a5565b92915050565b612306816120d0565b811461231157600080fd5b50565b600081359050612323816122fd565b92915050565b60008060006060848603121561234257612341611b1e565b5b600061235086828701611b49565b935050602061236186828701611b49565b925050604061237286828701612314565b9150509250925092565b6000819050919050565b60006123a161239c61239784611b5e565b61237c565b611b5e565b9050919050565b60006123b382612386565b9050919050565b60006123c5826123a8565b9050919050565b6123d5816123ba565b82525050565b60008115159050919050565b6123f0816123db565b82525050565b600060e08201905061240b600083018a61214c565b61241860208301896123cc565b612425604083018861214c565b612432606083018761214c565b61243f60808301866120e2565b61244c60a08301856123e7565b61245960c08301846123e7565b98975050505050505050565b600081519050919050565b600082825260208201905092915050565b6000819050602082019050919050565b600061249d8383611f80565b60208301905092915050565b6000602082019050919050565b60006124c182612465565b6124cb8185612470565b93506124d683612481565b8060005b838110156125075781516124ee8882612491565b97506124f9836124a9565b9250506001810190506124da565b5085935050505092915050565b6000602082019050818103600083015261252e81846124b6565b905092915050565b7f5265656e7472616e637947756172643a207265656e7472616e742063616c6c00600082015250565b600061256c601f8361215b565b915061257782612536565b602082019050919050565b6000602082019050818103600083015261259b8161255f565b9050919050565b7f6974656d20646f65736e27742065786973740000000000000000000000000000600082015250565b60006125d860128361215b565b91506125e3826125a2565b602082019050919050565b60006020820190508181036000830152612607816125cb565b9050919050565b7f6e6f7420656e6f75676820657468657220746f20636f766572206974656d207060008201527f7269636520616e64206d61726b65742066656500000000000000000000000000602082015250565b600061266a60338361215b565b91506126758261260e565b604082019050919050565b600060208201905081810360008301526126998161265d565b9050919050565b7f6974656d20616c726561647920736f6c64000000000000000000000000000000600082015250565b60006126d660118361215b565b91506126e1826126a0565b602082019050919050565b60006020820190508181036000830152612705816126c9565b9050919050565b7f4e487b7100000000000000000000000000000000000000000000000000000000600052601260045260246000fd5b7f4e487b7100000000000000000000000000000000000000000000000000000000600052601160045260246000fd5b600061277582611b28565b915061278083611b28565b9250826127905761278f61270c565b5b828204905092915050565b60006127a682611b28565b91506127b183611b28565b9250828210156127c4576127c361273b565b5b828203905092915050565b60006060820190506127e460008301866121a5565b6127f160208301856121a5565b6127fe604083018461214c565b949350505050565b600060608201905061281b600083018661214c565b612828602083018561214c565b612835604083018461214c565b949350505050565b600061284882611b28565b91507fffffffffffffffffffffffffffffffffffffffffffffffffffffffffffffffff82141561287b5761287a61273b565b5b600182019050919050565b7f4e487b7100000000000000000000000000000000000000000000000000000000600052602260045260246000fd5b600060028204905060018216806128cd57607f821691505b602082108114156128e1576128e0612886565b5b50919050565b7f4e487b7100000000000000000000000000000000000000000000000000000000600052603260045260246000fd5b7f5072696365206d75737420626520686967686572207468616e20300000000000600082015250565b600061294c601b8361215b565b915061295782612916565b602082019050919050565b6000602082019050818103600083015261297b8161293f565b9050919050565b600061298d82611b28565b915061299883611b28565b9250827fffffffffffffffffffffffffffffffffffffffffffffffffffffffffffffffff038211156129cd576129cc61273b565b5b828201905092915050565b60006129e382611b28565b91506129ee83611b28565b9250817fffffffffffffffffffffffffffffffffffffffffffffffffffffffffffffffff0483118215151615612a2757612a2661273b565b5b82820290509291505056fea2646970667358221220e574257102b7ab4428c9d47992b1edb3d6762860cd81106b1489be90a29f01ae64736f6c634300080b0033",
  "immutableReferences": {
    "2462": [
      {
        "length": 32,
        "start": 1596
      },
      {
        "length": 32,
        "start": 3397
      },
      {
        "length": 32,
        "start": 4619
      }
    ],
    "2464": [
      {
        "length": 32,
        "start": 5224
      },
      {
        "length": 32,
        "start": 6417
      }
    ]
  },
  "source": "// SPDX-License-Identifier: MIT\r\npragma solidity ^0.8.0;\r\n\r\nimport \"../../node_modules/@openzeppelin/contracts/token/ERC721/IERC721.sol\";\r\n\r\nimport \"../../node_modules/@openzeppelin/contracts/security/ReentrancyGuard.sol\";\r\n\r\n\r\n\r\n\r\ncontract Marketplace is ReentrancyGuard {\r\n\r\n    // Variables\r\n    address payable public immutable feeAccount; // the account that receives fees\r\n    uint public immutable feePercent; // the fee percentage on sales \r\n    uint public itemCount; \r\n\r\n    struct Item {\r\n        uint itemId;\r\n        IERC721 nft;\r\n        uint tokenId;\r\n        uint price;\r\n        address payable seller;\r\n        bool sold;\r\n        bool check;\r\n    }\r\n\r\n    struct ItemHistory{\r\n        uint itemId;\r\n        string eventName;\r\n        uint price;\r\n        address from;\r\n        address to;\r\n        uint time;\r\n    }\r\n\r\n    //itemId -> address[]\r\n    mapping(uint => address[]) public downloaders;\r\n\r\n    //itemId -> ItemHistory[]\r\n    mapping(uint => ItemHistory[]) public itemTracks;\r\n\r\n    // itemId -> Item\r\n    mapping(uint => Item) public items;\r\n\r\n    event Offered(\r\n        uint itemId,\r\n        address indexed nft,\r\n        uint tokenId,\r\n        uint price,\r\n        address indexed seller\r\n    );\r\n    event Bought(\r\n        uint itemId,\r\n        address indexed nft,\r\n        uint tokenId,\r\n        uint price,\r\n        address indexed seller,\r\n        address indexed buyer\r\n    );\r\n\r\n    constructor() {\r\n        feeAccount = payable(msg.sender);\r\n        feePercent = 1;\r\n    }\r\n\r\n    // Make item to offer on the marketplace\r\n    function makeItem(IERC721 _nft, uint _tokenId, uint _price, address _seller) external nonReentrant {\r\n        if (_price > 0)\r\n        {\r\n            // transfer nft to marketplace\r\n            _nft.transferFrom(msg.sender, address(this), _tokenId);\r\n\r\n             // emit Offered event\r\n            emit Offered(\r\n                itemCount,\r\n                address(_nft),\r\n                _tokenId,\r\n                _price,\r\n                _seller\r\n            );\r\n        }\r\n        //require(_price > 0, \"Price must be greater than zero\");\r\n        // increment itemCount\r\n        itemCount ++;\r\n        \r\n        // add new item to items mapping\r\n        items[itemCount] = Item (\r\n            itemCount,\r\n            _nft,\r\n            _tokenId,\r\n            _price,\r\n            payable(_seller),\r\n            false, \r\n            false\r\n        );\r\n       \r\n    }\r\n\r\n    function purchaseItem(uint _itemId, address _buyer) external payable nonReentrant {\r\n        uint _totalPrice = getTotalPrice(_itemId);\r\n        Item storage item = items[_itemId];\r\n        require(_itemId > 0 && _itemId <= itemCount, \"item doesn't exist\");\r\n        require(msg.value >= _totalPrice, \"not enough ether to cover item price and market fee\");\r\n        require(!item.sold, \"item already sold\");\r\n        // pay seller and feeAccount\r\n        item.seller.transfer(item.price);\r\n        feeAccount.transfer(_totalPrice - item.price);\r\n        // update item to sold\r\n        item.sold = true;\r\n        // transfer nft to buyer\r\n        item.nft.transferFrom(address(this), msg.sender, item.tokenId);\r\n        // emit Bought event\r\n        emit Bought(\r\n            _itemId,\r\n            address(item.nft),\r\n            item.tokenId,\r\n            item.price,\r\n            item.seller,\r\n            _buyer\r\n        );\r\n\r\n        //change seller to buyer\r\n        items[_itemId].seller = payable(_buyer);\r\n    }\r\n\r\n    function transferItem(uint _itemId, address _buyer) external payable nonReentrant {\r\n        Item storage item = items[_itemId];\r\n        require(_itemId > 0 && _itemId <= itemCount, \"item doesn't exist\");\r\n\r\n        // update item to sold\r\n        item.sold = true;\r\n        // transfer nft to buyer\r\n        item.nft.transferFrom(msg.sender, _buyer, item.tokenId);\r\n        // emit Bought event\r\n        emit Bought(\r\n            _itemId,\r\n            address(item.nft),\r\n            item.tokenId,\r\n            item.price,\r\n            item.seller,\r\n            _buyer\r\n        );\r\n\r\n        //change seller to buyer\r\n        items[_itemId].seller = payable(_buyer);\r\n    }\r\n\r\n    function purchaseDownloadItem(uint _itemId, address _buyer) external payable nonReentrant {\r\n        uint _totalPrice = getTotalPrice(_itemId);\r\n        Item storage item = items[_itemId];\r\n        require(_itemId > 0 && _itemId <= itemCount, \"item doesn't exist\");\r\n        require(msg.value >= _totalPrice, \"not enough ether to cover item price and market fee\");\r\n        require(!item.sold, \"item already sold\");\r\n\r\n        // pay seller and feeAccount\r\n        item.seller.transfer(item.price/2);\r\n        feeAccount.transfer(_totalPrice/2 - item.price/2);\r\n        \r\n       //add buyer to downloader\r\n       downloaders[_itemId].push(_buyer);\r\n       \r\n    }\r\n\r\n    function OfferItem(uint _itemId, uint _price, address payable _seller) external {\r\n        \r\n        require(_price>0, \"Price must be higher than 0\");\r\n        Item storage item = items[_itemId];\r\n        //transfer to marketplace\r\n         \r\n        //_nft.transferFrom(msg.sender, address(this), item.tokenId);\r\n        item.seller = _seller;\r\n\r\n         //change sold from true to false\r\n        item.sold = false;\r\n\r\n        //set price\r\n        item.price = _price;\r\n    }\r\n\r\n\r\n\r\n    function getTotalPrice(uint _itemId) view public returns(uint){\r\n        return((items[_itemId].price*(100 + feePercent))/100);\r\n    }\r\n\r\n    function getItemCount() view public returns(uint){\r\n        return itemCount;\r\n    }\r\n\r\n    function Checked(uint _itemId) external {\r\n        //kim tra xem  tn ti cha\r\n\r\n        //thay i thnh  c xc nhn\r\n        items[_itemId].check = true;\r\n    }\r\n\r\n    function addHistory( uint _itemId, string memory _eventName, uint _price, address _from, address _to, uint _time) public {\r\n        itemTracks[_itemId].push(ItemHistory(_itemId, _eventName, _price, _from, _to, _time));\r\n    }\r\n\r\n    function getHistories(uint _itemId) public view returns (ItemHistory[] memory){\r\n        return itemTracks[_itemId];\r\n    }\r\n\r\n    function getHistory(uint _itemId, uint _historyId) public view returns (ItemHistory memory){\r\n        return itemTracks[_itemId][_historyId];\r\n    }\r\n    function getDownloaders(uint _itemId) public view returns (address[] memory){\r\n        return downloaders[_itemId];\r\n    }\r\n\r\n}",
  "sourcePath": "E:\\Code\\React\\marketplace\\src\\contracts\\Marketplace.sol",
  "compiler": {
    "name": "solc",
    "version": "0.8.11+commit.d7f03943.Emscripten.clang"
  },
  "schemaVersion": "3.4.7",
  "updatedAt": "2022-11-08T12:56:21.533Z",
  "networkType": "ethereum",
  "devdoc": {
    "kind": "dev",
    "methods": {},
    "version": 1
  },
  "userdoc": {
    "kind": "user",
    "methods": {},
    "version": 1
  }
}