{
  "contractName": "Marketplace",
  "abi": [
    {
      "inputs": [],
      "stateMutability": "nonpayable",
      "type": "constructor"
    },
    {
      "anonymous": false,
      "inputs": [
        {
          "indexed": false,
          "internalType": "uint256",
          "name": "itemId",
          "type": "uint256"
        },
        {
          "indexed": true,
          "internalType": "address",
          "name": "nft",
          "type": "address"
        },
        {
          "indexed": false,
          "internalType": "uint256",
          "name": "tokenId",
          "type": "uint256"
        },
        {
          "indexed": false,
          "internalType": "uint256",
          "name": "price",
          "type": "uint256"
        },
        {
          "indexed": true,
          "internalType": "address",
          "name": "seller",
          "type": "address"
        },
        {
          "indexed": true,
          "internalType": "address",
          "name": "buyer",
          "type": "address"
        }
      ],
      "name": "Bought",
      "type": "event"
    },
    {
      "anonymous": false,
      "inputs": [
        {
          "indexed": false,
          "internalType": "uint256",
          "name": "itemId",
          "type": "uint256"
        },
        {
          "indexed": true,
          "internalType": "address",
          "name": "nft",
          "type": "address"
        },
        {
          "indexed": false,
          "internalType": "uint256",
          "name": "tokenId",
          "type": "uint256"
        },
        {
          "indexed": false,
          "internalType": "uint256",
          "name": "price",
          "type": "uint256"
        },
        {
          "indexed": true,
          "internalType": "address",
          "name": "seller",
          "type": "address"
        }
      ],
      "name": "Offered",
      "type": "event"
    },
    {
      "inputs": [
        {
          "internalType": "uint256",
          "name": "",
          "type": "uint256"
        },
        {
          "internalType": "uint256",
          "name": "",
          "type": "uint256"
        }
      ],
      "name": "downloaders",
      "outputs": [
        {
          "internalType": "address",
          "name": "",
          "type": "address"
        }
      ],
      "stateMutability": "view",
      "type": "function",
      "constant": true
    },
    {
      "inputs": [],
      "name": "feeAccount",
      "outputs": [
        {
          "internalType": "address payable",
          "name": "",
          "type": "address"
        }
      ],
      "stateMutability": "view",
      "type": "function",
      "constant": true
    },
    {
      "inputs": [],
      "name": "feePercent",
      "outputs": [
        {
          "internalType": "uint256",
          "name": "",
          "type": "uint256"
        }
      ],
      "stateMutability": "view",
      "type": "function",
      "constant": true
    },
    {
      "inputs": [],
      "name": "itemCount",
      "outputs": [
        {
          "internalType": "uint256",
          "name": "",
          "type": "uint256"
        }
      ],
      "stateMutability": "view",
      "type": "function",
      "constant": true
    },
    {
      "inputs": [
        {
          "internalType": "uint256",
          "name": "",
          "type": "uint256"
        },
        {
          "internalType": "uint256",
          "name": "",
          "type": "uint256"
        }
      ],
      "name": "itemTracks",
      "outputs": [
        {
          "internalType": "uint256",
          "name": "itemId",
          "type": "uint256"
        },
        {
          "internalType": "string",
          "name": "eventName",
          "type": "string"
        },
        {
          "internalType": "uint256",
          "name": "price",
          "type": "uint256"
        },
        {
          "internalType": "address",
          "name": "from",
          "type": "address"
        },
        {
          "internalType": "address",
          "name": "to",
          "type": "address"
        },
        {
          "internalType": "uint256",
          "name": "time",
          "type": "uint256"
        }
      ],
      "stateMutability": "view",
      "type": "function",
      "constant": true
    },
    {
      "inputs": [
        {
          "internalType": "uint256",
          "name": "",
          "type": "uint256"
        }
      ],
      "name": "items",
      "outputs": [
        {
          "internalType": "uint256",
          "name": "itemId",
          "type": "uint256"
        },
        {
          "internalType": "contract IERC721",
          "name": "nft",
          "type": "address"
        },
        {
          "internalType": "uint256",
          "name": "tokenId",
          "type": "uint256"
        },
        {
          "internalType": "uint256",
          "name": "price",
          "type": "uint256"
        },
        {
          "internalType": "address payable",
          "name": "seller",
          "type": "address"
        },
        {
          "internalType": "bool",
          "name": "sold",
          "type": "bool"
        },
        {
          "internalType": "bool",
          "name": "check",
          "type": "bool"
        }
      ],
      "stateMutability": "view",
      "type": "function",
      "constant": true
    },
    {
      "inputs": [
        {
          "internalType": "contract IERC721",
          "name": "_nft",
          "type": "address"
        },
        {
          "internalType": "uint256",
          "name": "_tokenId",
          "type": "uint256"
        },
        {
          "internalType": "uint256",
          "name": "_price",
          "type": "uint256"
        },
        {
          "internalType": "address",
          "name": "_seller",
          "type": "address"
        }
      ],
      "name": "makeItem",
      "outputs": [],
      "stateMutability": "nonpayable",
      "type": "function"
    },
    {
      "inputs": [
        {
          "internalType": "contract IERC721",
          "name": "_nft",
          "type": "address"
        },
        {
          "internalType": "uint256",
          "name": "_tokenId",
          "type": "uint256"
        },
        {
          "internalType": "uint256",
          "name": "_price",
          "type": "uint256"
        },
        {
          "internalType": "address",
          "name": "_seller",
          "type": "address"
        }
      ],
      "name": "listingItem",
      "outputs": [],
      "stateMutability": "nonpayable",
      "type": "function"
    },
    {
      "inputs": [
        {
          "internalType": "uint256",
          "name": "_itemId",
          "type": "uint256"
        },
        {
          "internalType": "address",
          "name": "_buyer",
          "type": "address"
        }
      ],
      "name": "purchaseItem",
      "outputs": [],
      "stateMutability": "payable",
      "type": "function",
      "payable": true
    },
    {
      "inputs": [
        {
          "internalType": "uint256",
          "name": "_itemId",
          "type": "uint256"
        },
        {
          "internalType": "address",
          "name": "_buyer",
          "type": "address"
        }
      ],
      "name": "transferItem",
      "outputs": [],
      "stateMutability": "payable",
      "type": "function",
      "payable": true
    },
    {
      "inputs": [
        {
          "internalType": "uint256",
          "name": "_itemId",
          "type": "uint256"
        },
        {
          "internalType": "address",
          "name": "_buyer",
          "type": "address"
        }
      ],
      "name": "purchaseDownloadItem",
      "outputs": [],
      "stateMutability": "payable",
      "type": "function",
      "payable": true
    },
    {
      "inputs": [
        {
          "internalType": "uint256",
          "name": "_itemId",
          "type": "uint256"
        },
        {
          "internalType": "uint256",
          "name": "_price",
          "type": "uint256"
        },
        {
          "internalType": "address payable",
          "name": "_seller",
          "type": "address"
        }
      ],
      "name": "OfferItem",
      "outputs": [],
      "stateMutability": "nonpayable",
      "type": "function"
    },
    {
      "inputs": [
        {
          "internalType": "uint256",
          "name": "_itemId",
          "type": "uint256"
        }
      ],
      "name": "getTotalPrice",
      "outputs": [
        {
          "internalType": "uint256",
          "name": "",
          "type": "uint256"
        }
      ],
      "stateMutability": "view",
      "type": "function",
      "constant": true
    },
    {
      "inputs": [],
      "name": "getItemCount",
      "outputs": [
        {
          "internalType": "uint256",
          "name": "",
          "type": "uint256"
        }
      ],
      "stateMutability": "view",
      "type": "function",
      "constant": true
    },
    {
      "inputs": [
        {
          "internalType": "uint256",
          "name": "_itemId",
          "type": "uint256"
        }
      ],
      "name": "Checked",
      "outputs": [],
      "stateMutability": "nonpayable",
      "type": "function"
    },
    {
      "inputs": [
        {
          "internalType": "uint256",
          "name": "_itemId",
          "type": "uint256"
        },
        {
          "internalType": "string",
          "name": "_eventName",
          "type": "string"
        },
        {
          "internalType": "uint256",
          "name": "_price",
          "type": "uint256"
        },
        {
          "internalType": "address",
          "name": "_from",
          "type": "address"
        },
        {
          "internalType": "address",
          "name": "_to",
          "type": "address"
        },
        {
          "internalType": "uint256",
          "name": "_time",
          "type": "uint256"
        }
      ],
      "name": "addHistory",
      "outputs": [],
      "stateMutability": "nonpayable",
      "type": "function"
    },
    {
      "inputs": [
        {
          "internalType": "uint256",
          "name": "_itemId",
          "type": "uint256"
        }
      ],
      "name": "getHistories",
      "outputs": [
        {
          "components": [
            {
              "internalType": "uint256",
              "name": "itemId",
              "type": "uint256"
            },
            {
              "internalType": "string",
              "name": "eventName",
              "type": "string"
            },
            {
              "internalType": "uint256",
              "name": "price",
              "type": "uint256"
            },
            {
              "internalType": "address",
              "name": "from",
              "type": "address"
            },
            {
              "internalType": "address",
              "name": "to",
              "type": "address"
            },
            {
              "internalType": "uint256",
              "name": "time",
              "type": "uint256"
            }
          ],
          "internalType": "struct Marketplace.ItemHistory[]",
          "name": "",
          "type": "tuple[]"
        }
      ],
      "stateMutability": "view",
      "type": "function",
      "constant": true
    },
    {
      "inputs": [
        {
          "internalType": "uint256",
          "name": "_itemId",
          "type": "uint256"
        },
        {
          "internalType": "uint256",
          "name": "_historyId",
          "type": "uint256"
        }
      ],
      "name": "getHistory",
      "outputs": [
        {
          "components": [
            {
              "internalType": "uint256",
              "name": "itemId",
              "type": "uint256"
            },
            {
              "internalType": "string",
              "name": "eventName",
              "type": "string"
            },
            {
              "internalType": "uint256",
              "name": "price",
              "type": "uint256"
            },
            {
              "internalType": "address",
              "name": "from",
              "type": "address"
            },
            {
              "internalType": "address",
              "name": "to",
              "type": "address"
            },
            {
              "internalType": "uint256",
              "name": "time",
              "type": "uint256"
            }
          ],
          "internalType": "struct Marketplace.ItemHistory",
          "name": "",
          "type": "tuple"
        }
      ],
      "stateMutability": "view",
      "type": "function",
      "constant": true
    },
    {
      "inputs": [
        {
          "internalType": "uint256",
          "name": "_itemId",
          "type": "uint256"
        }
      ],
      "name": "getDownloaders",
      "outputs": [
        {
          "internalType": "address[]",
          "name": "",
          "type": "address[]"
        }
      ],
      "stateMutability": "view",
      "type": "function",
      "constant": true
    }
  ],
  "bytecode": "0x60c060405234801561001057600080fd5b5060016000819055503373ffffffffffffffffffffffffffffffffffffffff1660808173ffffffffffffffffffffffffffffffffffffffff1681525050600160a0818152505060805160a051612bdc610090600039600081816115dc0152611a8501526000818161067001528181610d79015261137f0152612bdc6000f3fe6080604052600436106101135760003560e01c80637749cf23116100a0578063a422910111610064578063a422910114610399578063b3344c94146103b5578063bfb231d2146103de578063ca7dd37514610421578063e6ebe1e11461045e57610113565b80637749cf23146102c15780637bfe9efd146102ec5780637fd6f15c1461030857806391264efb14610333578063a24434281461037057610113565b806365e17c9d116100e757806365e17c9d146101c357806367a29dda146101ee57806368f0d401146102175780636906679b146102595780636bfb0d011461029657610113565b80623aa4bb146101185780632d121be4146101345780633a9451351461015d5780635931b16914610186575b600080fd5b610132600480360381019061012d9190611d30565b61049b565b005b34801561014057600080fd5b5061015b60048036038101906101569190611dae565b61077e565b005b34801561016957600080fd5b50610184600480360381019061017f9190611f5b565b610a41565b005b34801561019257600080fd5b506101ad60048036038101906101a89190612004565b610ba9565b6040516101ba9190612222565b60405180910390f35b3480156101cf57600080fd5b506101d8610d77565b6040516101e59190612265565b60405180910390f35b3480156101fa57600080fd5b5061021560048036038101906102109190611dae565b610d9b565b005b34801561022357600080fd5b5061023e60048036038101906102399190612280565b610edb565b60405161025096959493929190612328565b60405180910390f35b34801561026557600080fd5b50610280600480360381019061027b9190612280565b610ffc565b60405161028d9190612419565b60405180910390f35b3480156102a257600080fd5b506102ab6111a6565b6040516102b8919061243b565b60405180910390f35b3480156102cd57600080fd5b506102d66111ac565b6040516102e3919061243b565b60405180910390f35b61030660048036038101906103019190611d30565b6111b6565b005b34801561031457600080fd5b5061031d6115da565b60405161032a919061243b565b60405180910390f35b34801561033f57600080fd5b5061035a60048036038101906103559190612280565b6115fe565b6040516103679190612456565b60405180910390f35b34801561037c57600080fd5b5061039760048036038101906103929190612004565b61164c565b005b6103b360048036038101906103ae9190611d30565b61167e565b005b3480156103c157600080fd5b506103dc60048036038101906103d7919061249d565b61191a565b005b3480156103ea57600080fd5b5061040560048036038101906104009190612004565b6119e3565b604051610418979695949392919061256a565b60405180910390f35b34801561042d57600080fd5b5061044860048036038101906104439190612004565b611a7f565b604051610455919061243b565b60405180910390f35b34801561046a57600080fd5b5061048560048036038101906104809190612004565b611ae2565b6040516104929190612688565b60405180910390f35b600260005414156104e1576040517f08c379a00000000000000000000000000000000000000000000000000000000081526004016104d8906126f6565b60405180910390fd5b600260008190555060006104f483611a7f565b9050600060046000858152602001908152602001600020905060008411801561051f57506001548411155b61055e576040517f08c379a000000000000000000000000000000000000000000000000000000000815260040161055590612762565b60405180910390fd5b813410156105a1576040517f08c379a0000000000000000000000000000000000000000000000000000000008152600401610598906127f4565b60405180910390fd5b8060040160149054906101000a900460ff16156105f3576040517f08c379a00000000000000000000000000000000000000000000000000000000081526004016105ea90612860565b60405180910390fd5b8060040160009054906101000a900473ffffffffffffffffffffffffffffffffffffffff1673ffffffffffffffffffffffffffffffffffffffff166108fc6002836003015461064291906128de565b9081150290604051600060405180830381858888f1935050505015801561066d573d6000803e3d6000fd5b507f000000000000000000000000000000000000000000000000000000000000000073ffffffffffffffffffffffffffffffffffffffff166108fc600283600301546106b991906128de565b6002856106c691906128de565b6106d0919061290f565b9081150290604051600060405180830381858888f193505050501580156106fb573d6000803e3d6000fd5b5060026000858152602001908152602001600020839080600181540180825580915050600190039060005260206000200160009091909190916101000a81548173ffffffffffffffffffffffffffffffffffffffff021916908373ffffffffffffffffffffffffffffffffffffffff160217905550505060016000819055505050565b600260005414156107c4576040517f08c379a00000000000000000000000000000000000000000000000000000000081526004016107bb906126f6565b60405180910390fd5b600260008190555060008211156108b0578373ffffffffffffffffffffffffffffffffffffffff166323b872dd3330866040518463ffffffff1660e01b815260040161081293929190612943565b600060405180830381600087803b15801561082c57600080fd5b505af1158015610840573d6000803e3d6000fd5b505050508073ffffffffffffffffffffffffffffffffffffffff168473ffffffffffffffffffffffffffffffffffffffff167f655a0cf9c8db81512be9a76dc1c5ae5380b8816ce6ad659cd61b715e2999d59a60015486866040516108a79392919061297a565b60405180910390a35b600160008154809291906108c3906129b1565b91905055506040518060e0016040528060015481526020018573ffffffffffffffffffffffffffffffffffffffff1681526020018481526020018381526020018273ffffffffffffffffffffffffffffffffffffffff168152602001600015158152602001600015158152506004600060015481526020019081526020016000206000820151816000015560208201518160010160006101000a81548173ffffffffffffffffffffffffffffffffffffffff021916908373ffffffffffffffffffffffffffffffffffffffff160217905550604082015181600201556060820151816003015560808201518160040160006101000a81548173ffffffffffffffffffffffffffffffffffffffff021916908373ffffffffffffffffffffffffffffffffffffffff16021790555060a08201518160040160146101000a81548160ff02191690831515021790555060c08201518160040160156101000a81548160ff021916908315150217905550905050600160008190555050505050565b600360008781526020019081526020016000206040518060c001604052808881526020018781526020018681526020018573ffffffffffffffffffffffffffffffffffffffff1681526020018473ffffffffffffffffffffffffffffffffffffffff168152602001838152509080600181540180825580915050600190039060005260206000209060060201600090919091909150600082015181600001556020820151816001019080519060200190610afc929190611b83565b506040820151816002015560608201518160030160006101000a81548173ffffffffffffffffffffffffffffffffffffffff021916908373ffffffffffffffffffffffffffffffffffffffff16021790555060808201518160040160006101000a81548173ffffffffffffffffffffffffffffffffffffffff021916908373ffffffffffffffffffffffffffffffffffffffff16021790555060a082015181600501555050505050505050565b606060036000838152602001908152602001600020805480602002602001604051908101604052809291908181526020016000905b82821015610d6c57838290600052602060002090600602016040518060c001604052908160008201548152602001600182018054610c1b90612a29565b80601f0160208091040260200160405190810160405280929190818152602001828054610c4790612a29565b8015610c945780601f10610c6957610100808354040283529160200191610c94565b820191906000526020600020905b815481529060010190602001808311610c7757829003601f168201915b50505050508152602001600282015481526020016003820160009054906101000a900473ffffffffffffffffffffffffffffffffffffffff1673ffffffffffffffffffffffffffffffffffffffff1673ffffffffffffffffffffffffffffffffffffffff1681526020016004820160009054906101000a900473ffffffffffffffffffffffffffffffffffffffff1673ffffffffffffffffffffffffffffffffffffffff1673ffffffffffffffffffffffffffffffffffffffff16815260200160058201548152505081526020019060010190610bde565b505050509050919050565b7f000000000000000000000000000000000000000000000000000000000000000081565b60026000541415610de1576040517f08c379a0000000000000000000000000000000000000000000000000000000008152600401610dd8906126f6565b60405180910390fd5b60026000819055506000821115610ecd578373ffffffffffffffffffffffffffffffffffffffff166323b872dd3330866040518463ffffffff1660e01b8152600401610e2f93929190612943565b600060405180830381600087803b158015610e4957600080fd5b505af1158015610e5d573d6000803e3d6000fd5b505050508073ffffffffffffffffffffffffffffffffffffffff168473ffffffffffffffffffffffffffffffffffffffff167f655a0cf9c8db81512be9a76dc1c5ae5380b8816ce6ad659cd61b715e2999d59a6001548686604051610ec49392919061297a565b60405180910390a35b600160008190555050505050565b60036020528160005260406000208181548110610ef757600080fd5b906000526020600020906006020160009150915050806000015490806001018054610f2190612a29565b80601f0160208091040260200160405190810160405280929190818152602001828054610f4d90612a29565b8015610f9a5780601f10610f6f57610100808354040283529160200191610f9a565b820191906000526020600020905b815481529060010190602001808311610f7d57829003601f168201915b5050505050908060020154908060030160009054906101000a900473ffffffffffffffffffffffffffffffffffffffff16908060040160009054906101000a900473ffffffffffffffffffffffffffffffffffffffff16908060050154905086565b611004611c09565b60036000848152602001908152602001600020828154811061102957611028612a5b565b5b90600052602060002090600602016040518060c00160405290816000820154815260200160018201805461105c90612a29565b80601f016020809104026020016040519081016040528092919081815260200182805461108890612a29565b80156110d55780601f106110aa576101008083540402835291602001916110d5565b820191906000526020600020905b8154815290600101906020018083116110b857829003601f168201915b50505050508152602001600282015481526020016003820160009054906101000a900473ffffffffffffffffffffffffffffffffffffffff1673ffffffffffffffffffffffffffffffffffffffff1673ffffffffffffffffffffffffffffffffffffffff1681526020016004820160009054906101000a900473ffffffffffffffffffffffffffffffffffffffff1673ffffffffffffffffffffffffffffffffffffffff1673ffffffffffffffffffffffffffffffffffffffff168152602001600582015481525050905092915050565b60015481565b6000600154905090565b600260005414156111fc576040517f08c379a00000000000000000000000000000000000000000000000000000000081526004016111f3906126f6565b60405180910390fd5b6002600081905550600061120f83611a7f565b9050600060046000858152602001908152602001600020905060008411801561123a57506001548411155b611279576040517f08c379a000000000000000000000000000000000000000000000000000000000815260040161127090612762565b60405180910390fd5b813410156112bc576040517f08c379a00000000000000000000000000000000000000000000000000000000081526004016112b3906127f4565b60405180910390fd5b8060040160149054906101000a900460ff161561130e576040517f08c379a000000000000000000000000000000000000000000000000000000000815260040161130590612860565b60405180910390fd5b8060040160009054906101000a900473ffffffffffffffffffffffffffffffffffffffff1673ffffffffffffffffffffffffffffffffffffffff166108fc82600301549081150290604051600060405180830381858888f1935050505015801561137c573d6000803e3d6000fd5b507f000000000000000000000000000000000000000000000000000000000000000073ffffffffffffffffffffffffffffffffffffffff166108fc8260030154846113c7919061290f565b9081150290604051600060405180830381858888f193505050501580156113f2573d6000803e3d6000fd5b5060018160040160146101000a81548160ff0219169083151502179055508060010160009054906101000a900473ffffffffffffffffffffffffffffffffffffffff1673ffffffffffffffffffffffffffffffffffffffff166323b872dd303384600201546040518463ffffffff1660e01b815260040161147593929190612943565b600060405180830381600087803b15801561148f57600080fd5b505af11580156114a3573d6000803e3d6000fd5b505050508273ffffffffffffffffffffffffffffffffffffffff168160040160009054906101000a900473ffffffffffffffffffffffffffffffffffffffff1673ffffffffffffffffffffffffffffffffffffffff168260010160009054906101000a900473ffffffffffffffffffffffffffffffffffffffff1673ffffffffffffffffffffffffffffffffffffffff167f8b4c9c8a607d67b321582dd8461041b1dc2ceeca70c8b7f37f8e02095cf2e76d878560020154866003015460405161156f9392919061297a565b60405180910390a4826004600086815260200190815260200160002060040160006101000a81548173ffffffffffffffffffffffffffffffffffffffff021916908373ffffffffffffffffffffffffffffffffffffffff160217905550505060016000819055505050565b7f000000000000000000000000000000000000000000000000000000000000000081565b6002602052816000526040600020818154811061161a57600080fd5b906000526020600020016000915091509054906101000a900473ffffffffffffffffffffffffffffffffffffffff1681565b60016004600083815260200190815260200160002060040160156101000a81548160ff02191690831515021790555050565b600260005414156116c4576040517f08c379a00000000000000000000000000000000000000000000000000000000081526004016116bb906126f6565b60405180910390fd5b600260008190555060006004600084815260200190815260200160002090506000831180156116f557506001548311155b611734576040517f08c379a000000000000000000000000000000000000000000000000000000000815260040161172b90612762565b60405180910390fd5b60018160040160146101000a81548160ff0219169083151502179055508060010160009054906101000a900473ffffffffffffffffffffffffffffffffffffffff1673ffffffffffffffffffffffffffffffffffffffff166323b872dd338484600201546040518463ffffffff1660e01b81526004016117b693929190612943565b600060405180830381600087803b1580156117d057600080fd5b505af11580156117e4573d6000803e3d6000fd5b505050508173ffffffffffffffffffffffffffffffffffffffff168160040160009054906101000a900473ffffffffffffffffffffffffffffffffffffffff1673ffffffffffffffffffffffffffffffffffffffff168260010160009054906101000a900473ffffffffffffffffffffffffffffffffffffffff1673ffffffffffffffffffffffffffffffffffffffff167f8b4c9c8a607d67b321582dd8461041b1dc2ceeca70c8b7f37f8e02095cf2e76d86856002015486600301546040516118b09392919061297a565b60405180910390a4816004600085815260200190815260200160002060040160006101000a81548173ffffffffffffffffffffffffffffffffffffffff021916908373ffffffffffffffffffffffffffffffffffffffff1602179055505060016000819055505050565b6000821161195d576040517f08c379a000000000000000000000000000000000000000000000000000000000815260040161195490612ad6565b60405180910390fd5b6000600460008581526020019081526020016000209050818160040160006101000a81548173ffffffffffffffffffffffffffffffffffffffff021916908373ffffffffffffffffffffffffffffffffffffffff16021790555060008160040160146101000a81548160ff02191690831515021790555082816003018190555050505050565b60046020528060005260406000206000915090508060000154908060010160009054906101000a900473ffffffffffffffffffffffffffffffffffffffff16908060020154908060030154908060040160009054906101000a900473ffffffffffffffffffffffffffffffffffffffff16908060040160149054906101000a900460ff16908060040160159054906101000a900460ff16905087565b600060647f00000000000000000000000000000000000000000000000000000000000000006064611ab09190612af6565b6004600085815260200190815260200160002060030154611ad19190612b4c565b611adb91906128de565b9050919050565b606060026000838152602001908152602001600020805480602002602001604051908101604052809291908181526020018280548015611b7757602002820191906000526020600020905b8160009054906101000a900473ffffffffffffffffffffffffffffffffffffffff1673ffffffffffffffffffffffffffffffffffffffff1681526020019060010190808311611b2d575b50505050509050919050565b828054611b8f90612a29565b90600052602060002090601f016020900481019282611bb15760008555611bf8565b82601f10611bca57805160ff1916838001178555611bf8565b82800160010185558215611bf8579182015b82811115611bf7578251825591602001919060010190611bdc565b5b509050611c059190611c6b565b5090565b6040518060c00160405280600081526020016060815260200160008152602001600073ffffffffffffffffffffffffffffffffffffffff168152602001600073ffffffffffffffffffffffffffffffffffffffff168152602001600081525090565b5b80821115611c84576000816000905550600101611c6c565b5090565b6000604051905090565b600080fd5b600080fd5b6000819050919050565b611caf81611c9c565b8114611cba57600080fd5b50565b600081359050611ccc81611ca6565b92915050565b600073ffffffffffffffffffffffffffffffffffffffff82169050919050565b6000611cfd82611cd2565b9050919050565b611d0d81611cf2565b8114611d1857600080fd5b50565b600081359050611d2a81611d04565b92915050565b60008060408385031215611d4757611d46611c92565b5b6000611d5585828601611cbd565b9250506020611d6685828601611d1b565b9150509250929050565b6000611d7b82611cf2565b9050919050565b611d8b81611d70565b8114611d9657600080fd5b50565b600081359050611da881611d82565b92915050565b60008060008060808587031215611dc857611dc7611c92565b5b6000611dd687828801611d99565b9450506020611de787828801611cbd565b9350506040611df887828801611cbd565b9250506060611e0987828801611d1b565b91505092959194509250565b600080fd5b600080fd5b6000601f19601f8301169050919050565b7f4e487b7100000000000000000000000000000000000000000000000000000000600052604160045260246000fd5b611e6882611e1f565b810181811067ffffffffffffffff82111715611e8757611e86611e30565b5b80604052505050565b6000611e9a611c88565b9050611ea68282611e5f565b919050565b600067ffffffffffffffff821115611ec657611ec5611e30565b5b611ecf82611e1f565b9050602081019050919050565b82818337600083830152505050565b6000611efe611ef984611eab565b611e90565b905082815260208101848484011115611f1a57611f19611e1a565b5b611f25848285611edc565b509392505050565b600082601f830112611f4257611f41611e15565b5b8135611f52848260208601611eeb565b91505092915050565b60008060008060008060c08789031215611f7857611f77611c92565b5b6000611f8689828a01611cbd565b965050602087013567ffffffffffffffff811115611fa757611fa6611c97565b5b611fb389828a01611f2d565b9550506040611fc489828a01611cbd565b9450506060611fd589828a01611d1b565b9350506080611fe689828a01611d1b565b92505060a0611ff789828a01611cbd565b9150509295509295509295565b60006020828403121561201a57612019611c92565b5b600061202884828501611cbd565b91505092915050565b600081519050919050565b600082825260208201905092915050565b6000819050602082019050919050565b61206681611c9c565b82525050565b600081519050919050565b600082825260208201905092915050565b60005b838110156120a657808201518184015260208101905061208b565b838111156120b5576000848401525b50505050565b60006120c68261206c565b6120d08185612077565b93506120e0818560208601612088565b6120e981611e1f565b840191505092915050565b6120fd81611cf2565b82525050565b600060c08301600083015161211b600086018261205d565b506020830151848203602086015261213382826120bb565b9150506040830151612148604086018261205d565b50606083015161215b60608601826120f4565b50608083015161216e60808601826120f4565b5060a083015161218160a086018261205d565b508091505092915050565b60006121988383612103565b905092915050565b6000602082019050919050565b60006121b882612031565b6121c2818561203c565b9350836020820285016121d48561204d565b8060005b8581101561221057848403895281516121f1858261218c565b94506121fc836121a0565b925060208a019950506001810190506121d8565b50829750879550505050505092915050565b6000602082019050818103600083015261223c81846121ad565b905092915050565b600061224f82611cd2565b9050919050565b61225f81612244565b82525050565b600060208201905061227a6000830184612256565b92915050565b6000806040838503121561229757612296611c92565b5b60006122a585828601611cbd565b92505060206122b685828601611cbd565b9150509250929050565b6122c981611c9c565b82525050565b600082825260208201905092915050565b60006122eb8261206c565b6122f581856122cf565b9350612305818560208601612088565b61230e81611e1f565b840191505092915050565b61232281611cf2565b82525050565b600060c08201905061233d60008301896122c0565b818103602083015261234f81886122e0565b905061235e60408301876122c0565b61236b6060830186612319565b6123786080830185612319565b61238560a08301846122c0565b979650505050505050565b600060c0830160008301516123a8600086018261205d565b50602083015184820360208601526123c082826120bb565b91505060408301516123d5604086018261205d565b5060608301516123e860608601826120f4565b5060808301516123fb60808601826120f4565b5060a083015161240e60a086018261205d565b508091505092915050565b600060208201905081810360008301526124338184612390565b905092915050565b600060208201905061245060008301846122c0565b92915050565b600060208201905061246b6000830184612319565b92915050565b61247a81612244565b811461248557600080fd5b50565b60008135905061249781612471565b92915050565b6000806000606084860312156124b6576124b5611c92565b5b60006124c486828701611cbd565b93505060206124d586828701611cbd565b92505060406124e686828701612488565b9150509250925092565b6000819050919050565b600061251561251061250b84611cd2565b6124f0565b611cd2565b9050919050565b6000612527826124fa565b9050919050565b60006125398261251c565b9050919050565b6125498161252e565b82525050565b60008115159050919050565b6125648161254f565b82525050565b600060e08201905061257f600083018a6122c0565b61258c6020830189612540565b61259960408301886122c0565b6125a660608301876122c0565b6125b36080830186612256565b6125c060a083018561255b565b6125cd60c083018461255b565b98975050505050505050565b600081519050919050565b600082825260208201905092915050565b6000819050602082019050919050565b600061261183836120f4565b60208301905092915050565b6000602082019050919050565b6000612635826125d9565b61263f81856125e4565b935061264a836125f5565b8060005b8381101561267b5781516126628882612605565b975061266d8361261d565b92505060018101905061264e565b5085935050505092915050565b600060208201905081810360008301526126a2818461262a565b905092915050565b7f5265656e7472616e637947756172643a207265656e7472616e742063616c6c00600082015250565b60006126e0601f836122cf565b91506126eb826126aa565b602082019050919050565b6000602082019050818103600083015261270f816126d3565b9050919050565b7f6974656d20646f65736e27742065786973740000000000000000000000000000600082015250565b600061274c6012836122cf565b915061275782612716565b602082019050919050565b6000602082019050818103600083015261277b8161273f565b9050919050565b7f6e6f7420656e6f75676820657468657220746f20636f766572206974656d207060008201527f7269636520616e64206d61726b65742066656500000000000000000000000000602082015250565b60006127de6033836122cf565b91506127e982612782565b604082019050919050565b6000602082019050818103600083015261280d816127d1565b9050919050565b7f6974656d20616c726561647920736f6c64000000000000000000000000000000600082015250565b600061284a6011836122cf565b915061285582612814565b602082019050919050565b600060208201905081810360008301526128798161283d565b9050919050565b7f4e487b7100000000000000000000000000000000000000000000000000000000600052601260045260246000fd5b7f4e487b7100000000000000000000000000000000000000000000000000000000600052601160045260246000fd5b60006128e982611c9c565b91506128f483611c9c565b92508261290457612903612880565b5b828204905092915050565b600061291a82611c9c565b915061292583611c9c565b925082821015612938576129376128af565b5b828203905092915050565b60006060820190506129586000830186612319565b6129656020830185612319565b61297260408301846122c0565b949350505050565b600060608201905061298f60008301866122c0565b61299c60208301856122c0565b6129a960408301846122c0565b949350505050565b60006129bc82611c9c565b91507fffffffffffffffffffffffffffffffffffffffffffffffffffffffffffffffff8214156129ef576129ee6128af565b5b600182019050919050565b7f4e487b7100000000000000000000000000000000000000000000000000000000600052602260045260246000fd5b60006002820490506001821680612a4157607f821691505b60208210811415612a5557612a546129fa565b5b50919050565b7f4e487b7100000000000000000000000000000000000000000000000000000000600052603260045260246000fd5b7f5072696365206d75737420626520686967686572207468616e20300000000000600082015250565b6000612ac0601b836122cf565b9150612acb82612a8a565b602082019050919050565b60006020820190508181036000830152612aef81612ab3565b9050919050565b6000612b0182611c9c565b9150612b0c83611c9c565b9250827fffffffffffffffffffffffffffffffffffffffffffffffffffffffffffffffff03821115612b4157612b406128af565b5b828201905092915050565b6000612b5782611c9c565b9150612b6283611c9c565b9250817fffffffffffffffffffffffffffffffffffffffffffffffffffffffffffffffff0483118215151615612b9b57612b9a6128af565b5b82820290509291505056fea264697066735822122005ac97614f193e69bbbb2cb7f946000862e03408d64816276ee1e1744e280cc864736f6c634300080b0033",
  "immutableReferences": {
    "2462": [
      {
        "length": 32,
        "start": 1648
      },
      {
        "length": 32,
        "start": 3449
      },
      {
        "length": 32,
        "start": 4991
      }
    ],
    "2464": [
      {
        "length": 32,
        "start": 5596
      },
      {
        "length": 32,
        "start": 6789
      }
    ]
  },
  "source": "// SPDX-License-Identifier: MIT\r\npragma solidity ^0.8.0;\r\n\r\nimport \"../../node_modules/@openzeppelin/contracts/token/ERC721/IERC721.sol\";\r\n\r\nimport \"../../node_modules/@openzeppelin/contracts/security/ReentrancyGuard.sol\";\r\n\r\n\r\n\r\n\r\ncontract Marketplace is ReentrancyGuard {\r\n\r\n    // Variables\r\n    address payable public immutable feeAccount; // the account that receives fees\r\n    uint public immutable feePercent; // the fee percentage on sales \r\n    uint public itemCount; \r\n\r\n    struct Item {\r\n        uint itemId;\r\n        IERC721 nft;\r\n        uint tokenId;\r\n        uint price;\r\n        address payable seller;\r\n        bool sold;\r\n        bool check;\r\n    }\r\n\r\n    struct ItemHistory{\r\n        uint itemId;\r\n        string eventName;\r\n        uint price;\r\n        address from;\r\n        address to;\r\n        uint time;\r\n    }\r\n\r\n    //itemId -> address[]\r\n    mapping(uint => address[]) public downloaders;\r\n\r\n    //itemId -> ItemHistory[]\r\n    mapping(uint => ItemHistory[]) public itemTracks;\r\n\r\n    // itemId -> Item\r\n    mapping(uint => Item) public items;\r\n\r\n    event Offered(\r\n        uint itemId,\r\n        address indexed nft,\r\n        uint tokenId,\r\n        uint price,\r\n        address indexed seller\r\n    );\r\n    event Bought(\r\n        uint itemId,\r\n        address indexed nft,\r\n        uint tokenId,\r\n        uint price,\r\n        address indexed seller,\r\n        address indexed buyer\r\n    );\r\n\r\n    constructor() {\r\n        feeAccount = payable(msg.sender);\r\n        feePercent = 1;\r\n    }\r\n\r\n    // Make item to offer on the marketplace\r\n    function makeItem(IERC721 _nft, uint _tokenId, uint _price, address _seller) external nonReentrant {\r\n        if (_price > 0)\r\n        {\r\n            // transfer nft to marketplace\r\n            _nft.transferFrom(msg.sender, address(this), _tokenId);\r\n\r\n             // emit Offered event\r\n            emit Offered(\r\n                itemCount,\r\n                address(_nft),\r\n                _tokenId,\r\n                _price,\r\n                _seller\r\n            );\r\n        }\r\n        //require(_price > 0, \"Price must be greater than zero\");\r\n        // increment itemCount\r\n        itemCount ++;\r\n        \r\n        // add new item to items mapping\r\n        items[itemCount] = Item (\r\n            itemCount,\r\n            _nft,\r\n            _tokenId,\r\n            _price,\r\n            payable(_seller),\r\n            false, \r\n            false\r\n        );\r\n       \r\n    }\r\n\r\n    function listingItem(IERC721 _nft, uint _tokenId, uint _price, address _seller) external nonReentrant {\r\n        if (_price > 0)\r\n        {\r\n            // transfer nft to marketplace\r\n            _nft.transferFrom(msg.sender, address(this), _tokenId);\r\n\r\n             // emit Offered event\r\n            emit Offered(\r\n                itemCount,\r\n                address(_nft),\r\n                _tokenId,\r\n                _price,\r\n                _seller\r\n            );\r\n        }\r\n    }\r\n\r\n    function purchaseItem(uint _itemId, address _buyer) external payable nonReentrant {\r\n        uint _totalPrice = getTotalPrice(_itemId);\r\n        Item storage item = items[_itemId];\r\n        require(_itemId > 0 && _itemId <= itemCount, \"item doesn't exist\");\r\n        require(msg.value >= _totalPrice, \"not enough ether to cover item price and market fee\");\r\n        require(!item.sold, \"item already sold\");\r\n        // pay seller and feeAccount\r\n        item.seller.transfer(item.price);\r\n        feeAccount.transfer(_totalPrice - item.price);\r\n        // update item to sold\r\n        item.sold = true;\r\n        // transfer nft to buyer\r\n        item.nft.transferFrom(address(this), msg.sender, item.tokenId);\r\n        // emit Bought event\r\n        emit Bought(\r\n            _itemId,\r\n            address(item.nft),\r\n            item.tokenId,\r\n            item.price,\r\n            item.seller,\r\n            _buyer\r\n        );\r\n\r\n        //change seller to buyer\r\n        items[_itemId].seller = payable(_buyer);\r\n    }\r\n\r\n    function transferItem(uint _itemId, address _buyer) external payable nonReentrant {\r\n        Item storage item = items[_itemId];\r\n        require(_itemId > 0 && _itemId <= itemCount, \"item doesn't exist\");\r\n\r\n        // update item to sold\r\n        item.sold = true;\r\n        // transfer nft to buyer\r\n        item.nft.transferFrom(msg.sender, _buyer, item.tokenId);\r\n        // emit Bought event\r\n        emit Bought(\r\n            _itemId,\r\n            address(item.nft),\r\n            item.tokenId,\r\n            item.price,\r\n            item.seller,\r\n            _buyer\r\n        );\r\n\r\n        //change seller to buyer\r\n        items[_itemId].seller = payable(_buyer);\r\n    }\r\n\r\n    function purchaseDownloadItem(uint _itemId, address _buyer) external payable nonReentrant {\r\n        uint _totalPrice = getTotalPrice(_itemId);\r\n        Item storage item = items[_itemId];\r\n        require(_itemId > 0 && _itemId <= itemCount, \"item doesn't exist\");\r\n        require(msg.value >= _totalPrice, \"not enough ether to cover item price and market fee\");\r\n        require(!item.sold, \"item already sold\");\r\n\r\n        // pay seller and feeAccount\r\n        item.seller.transfer(item.price/2);\r\n        feeAccount.transfer(_totalPrice/2 - item.price/2);\r\n        \r\n       //add buyer to downloader\r\n       downloaders[_itemId].push(_buyer);\r\n       \r\n    }\r\n\r\n    function OfferItem(uint _itemId, uint _price, address payable _seller) external {\r\n        \r\n        require(_price>0, \"Price must be higher than 0\");\r\n        Item storage item = items[_itemId];\r\n        //transfer to marketplace\r\n         \r\n        //_nft.transferFrom(msg.sender, address(this), item.tokenId);\r\n        item.seller = _seller;\r\n\r\n         //change sold from true to false\r\n        item.sold = false;\r\n\r\n        //set price\r\n        item.price = _price;\r\n    }\r\n\r\n\r\n\r\n    function getTotalPrice(uint _itemId) view public returns(uint){\r\n        return((items[_itemId].price*(100 + feePercent))/100);\r\n    }\r\n\r\n    function getItemCount() view public returns(uint){\r\n        return itemCount;\r\n    }\r\n\r\n    function Checked(uint _itemId) external {\r\n        //kim tra xem  tn ti cha\r\n\r\n        //thay i thnh  c xc nhn\r\n        items[_itemId].check = true;\r\n    }\r\n\r\n    function addHistory( uint _itemId, string memory _eventName, uint _price, address _from, address _to, uint _time) public {\r\n        itemTracks[_itemId].push(ItemHistory(_itemId, _eventName, _price, _from, _to, _time));\r\n    }\r\n\r\n    function getHistories(uint _itemId) public view returns (ItemHistory[] memory){\r\n        return itemTracks[_itemId];\r\n    }\r\n\r\n    function getHistory(uint _itemId, uint _historyId) public view returns (ItemHistory memory){\r\n        return itemTracks[_itemId][_historyId];\r\n    }\r\n    function getDownloaders(uint _itemId) public view returns (address[] memory){\r\n        return downloaders[_itemId];\r\n    }\r\n\r\n}",
  "sourcePath": "E:\\Code\\React\\marketplace\\src\\contracts\\Marketplace.sol",
  "compiler": {
    "name": "solc",
    "version": "0.8.11+commit.d7f03943.Emscripten.clang"
  },
  "schemaVersion": "3.4.7",
  "updatedAt": "2022-11-10T02:50:35.011Z",
  "networkType": "ethereum",
  "devdoc": {
    "kind": "dev",
    "methods": {},
    "version": 1
  },
  "userdoc": {
    "kind": "user",
    "methods": {},
    "version": 1
  }
}