{
  "contractName": "Marketplace",
  "abi": [
    {
      "inputs": [],
      "stateMutability": "nonpayable",
      "type": "constructor"
    },
    {
      "anonymous": false,
      "inputs": [
        {
          "indexed": false,
          "internalType": "uint256",
          "name": "itemId",
          "type": "uint256"
        },
        {
          "indexed": true,
          "internalType": "address",
          "name": "nft",
          "type": "address"
        },
        {
          "indexed": false,
          "internalType": "uint256",
          "name": "tokenId",
          "type": "uint256"
        },
        {
          "indexed": false,
          "internalType": "uint256",
          "name": "price",
          "type": "uint256"
        },
        {
          "indexed": true,
          "internalType": "address",
          "name": "seller",
          "type": "address"
        },
        {
          "indexed": true,
          "internalType": "address",
          "name": "buyer",
          "type": "address"
        }
      ],
      "name": "Bought",
      "type": "event"
    },
    {
      "anonymous": false,
      "inputs": [
        {
          "indexed": false,
          "internalType": "uint256",
          "name": "itemId",
          "type": "uint256"
        },
        {
          "indexed": true,
          "internalType": "address",
          "name": "nft",
          "type": "address"
        },
        {
          "indexed": false,
          "internalType": "uint256",
          "name": "tokenId",
          "type": "uint256"
        },
        {
          "indexed": false,
          "internalType": "uint256",
          "name": "price",
          "type": "uint256"
        },
        {
          "indexed": true,
          "internalType": "address",
          "name": "seller",
          "type": "address"
        }
      ],
      "name": "Offered",
      "type": "event"
    },
    {
      "inputs": [],
      "name": "feeAccount",
      "outputs": [
        {
          "internalType": "address payable",
          "name": "",
          "type": "address"
        }
      ],
      "stateMutability": "view",
      "type": "function",
      "constant": true
    },
    {
      "inputs": [],
      "name": "feePercent",
      "outputs": [
        {
          "internalType": "uint256",
          "name": "",
          "type": "uint256"
        }
      ],
      "stateMutability": "view",
      "type": "function",
      "constant": true
    },
    {
      "inputs": [],
      "name": "itemCount",
      "outputs": [
        {
          "internalType": "uint256",
          "name": "",
          "type": "uint256"
        }
      ],
      "stateMutability": "view",
      "type": "function",
      "constant": true
    },
    {
      "inputs": [
        {
          "internalType": "uint256",
          "name": "",
          "type": "uint256"
        }
      ],
      "name": "items",
      "outputs": [
        {
          "internalType": "uint256",
          "name": "itemId",
          "type": "uint256"
        },
        {
          "internalType": "contract IERC721",
          "name": "nft",
          "type": "address"
        },
        {
          "internalType": "uint256",
          "name": "tokenId",
          "type": "uint256"
        },
        {
          "internalType": "uint256",
          "name": "price",
          "type": "uint256"
        },
        {
          "internalType": "address payable",
          "name": "seller",
          "type": "address"
        },
        {
          "internalType": "bool",
          "name": "sold",
          "type": "bool"
        },
        {
          "internalType": "bool",
          "name": "check",
          "type": "bool"
        }
      ],
      "stateMutability": "view",
      "type": "function",
      "constant": true
    },
    {
      "inputs": [
        {
          "internalType": "contract IERC721",
          "name": "_nft",
          "type": "address"
        },
        {
          "internalType": "uint256",
          "name": "_tokenId",
          "type": "uint256"
        },
        {
          "internalType": "uint256",
          "name": "_price",
          "type": "uint256"
        }
      ],
      "name": "makeItem",
      "outputs": [],
      "stateMutability": "nonpayable",
      "type": "function"
    },
    {
      "inputs": [
        {
          "internalType": "uint256",
          "name": "_itemId",
          "type": "uint256"
        }
      ],
      "name": "purchaseItem",
      "outputs": [],
      "stateMutability": "payable",
      "type": "function",
      "payable": true
    },
    {
      "inputs": [
        {
          "internalType": "uint256",
          "name": "_itemId",
          "type": "uint256"
        }
      ],
      "name": "getTotalPrice",
      "outputs": [
        {
          "internalType": "uint256",
          "name": "",
          "type": "uint256"
        }
      ],
      "stateMutability": "view",
      "type": "function",
      "constant": true
    },
    {
      "inputs": [],
      "name": "getItemCount",
      "outputs": [
        {
          "internalType": "uint256",
          "name": "",
          "type": "uint256"
        }
      ],
      "stateMutability": "view",
      "type": "function",
      "constant": true
    },
    {
      "inputs": [
        {
          "internalType": "uint256",
          "name": "_itemId",
          "type": "uint256"
        }
      ],
      "name": "Checked",
      "outputs": [],
      "stateMutability": "nonpayable",
      "type": "function"
    }
  ],
  "bytecode": "0x60c060405234801561001057600080fd5b5060016000819055503373ffffffffffffffffffffffffffffffffffffffff1660808173ffffffffffffffffffffffffffffffffffffffff1681525050600160a0818152505060805160a05161110e6100896000396000818161025b01526103510152600081816102270152610577015261110e6000f3fe6080604052600436106100865760003560e01c8063a244342811610059578063a244342814610137578063bfb231d214610160578063ca7dd375146101a3578063d38ea5bf146101e0578063fa00afc7146101fc57610086565b806365e17c9d1461008b5780636bfb0d01146100b65780637749cf23146100e15780637fd6f15c1461010c575b600080fd5b34801561009757600080fd5b506100a0610225565b6040516100ad9190610a7f565b60405180910390f35b3480156100c257600080fd5b506100cb610249565b6040516100d89190610ab3565b60405180910390f35b3480156100ed57600080fd5b506100f661024f565b6040516101039190610ab3565b60405180910390f35b34801561011857600080fd5b50610121610259565b60405161012e9190610ab3565b60405180910390f35b34801561014357600080fd5b5061015e60048036038101906101599190610aff565b61027d565b005b34801561016c57600080fd5b5061018760048036038101906101829190610aff565b6102af565b60405161019a9796959493929190610ba6565b60405180910390f35b3480156101af57600080fd5b506101ca60048036038101906101c59190610aff565b61034b565b6040516101d79190610ab3565b60405180910390f35b6101fa60048036038101906101f59190610aff565b6103ae565b005b34801561020857600080fd5b50610223600480360381019061021e9190610c65565b61077c565b005b7f000000000000000000000000000000000000000000000000000000000000000081565b60015481565b6000600154905090565b7f000000000000000000000000000000000000000000000000000000000000000081565b60016002600083815260200190815260200160002060040160156101000a81548160ff02191690831515021790555050565b60026020528060005260406000206000915090508060000154908060010160009054906101000a900473ffffffffffffffffffffffffffffffffffffffff16908060020154908060030154908060040160009054906101000a900473ffffffffffffffffffffffffffffffffffffffff16908060040160149054906101000a900460ff16908060040160159054906101000a900460ff16905087565b600060647f0000000000000000000000000000000000000000000000000000000000000000606461037c9190610ce7565b600260008581526020019081526020016000206003015461039d9190610d3d565b6103a79190610dc6565b9050919050565b600260005414156103f4576040517f08c379a00000000000000000000000000000000000000000000000000000000081526004016103eb90610e54565b60405180910390fd5b600260008190555060006104078261034b565b9050600060026000848152602001908152602001600020905060008311801561043257506001548311155b610471576040517f08c379a000000000000000000000000000000000000000000000000000000000815260040161046890610ec0565b60405180910390fd5b813410156104b4576040517f08c379a00000000000000000000000000000000000000000000000000000000081526004016104ab90610f52565b60405180910390fd5b8060040160149054906101000a900460ff1615610506576040517f08c379a00000000000000000000000000000000000000000000000000000000081526004016104fd90610fbe565b60405180910390fd5b8060040160009054906101000a900473ffffffffffffffffffffffffffffffffffffffff1673ffffffffffffffffffffffffffffffffffffffff166108fc82600301549081150290604051600060405180830381858888f19350505050158015610574573d6000803e3d6000fd5b507f000000000000000000000000000000000000000000000000000000000000000073ffffffffffffffffffffffffffffffffffffffff166108fc8260030154846105bf9190610fde565b9081150290604051600060405180830381858888f193505050501580156105ea573d6000803e3d6000fd5b5060018160040160146101000a81548160ff0219169083151502179055508060010160009054906101000a900473ffffffffffffffffffffffffffffffffffffffff1673ffffffffffffffffffffffffffffffffffffffff166323b872dd303384600201546040518463ffffffff1660e01b815260040161066d93929190611021565b600060405180830381600087803b15801561068757600080fd5b505af115801561069b573d6000803e3d6000fd5b505050503373ffffffffffffffffffffffffffffffffffffffff168160040160009054906101000a900473ffffffffffffffffffffffffffffffffffffffff1673ffffffffffffffffffffffffffffffffffffffff168260010160009054906101000a900473ffffffffffffffffffffffffffffffffffffffff1673ffffffffffffffffffffffffffffffffffffffff167f8b4c9c8a607d67b321582dd8461041b1dc2ceeca70c8b7f37f8e02095cf2e76d868560020154866003015460405161076793929190611058565b60405180910390a45050600160008190555050565b600260005414156107c2576040517f08c379a00000000000000000000000000000000000000000000000000000000081526004016107b990610e54565b60405180910390fd5b600260008190555060008111156108ae578273ffffffffffffffffffffffffffffffffffffffff166323b872dd3330856040518463ffffffff1660e01b815260040161081093929190611021565b600060405180830381600087803b15801561082a57600080fd5b505af115801561083e573d6000803e3d6000fd5b505050503373ffffffffffffffffffffffffffffffffffffffff168373ffffffffffffffffffffffffffffffffffffffff167f655a0cf9c8db81512be9a76dc1c5ae5380b8816ce6ad659cd61b715e2999d59a60015485856040516108a593929190611058565b60405180910390a35b600160008154809291906108c19061108f565b91905055506040518060e0016040528060015481526020018473ffffffffffffffffffffffffffffffffffffffff1681526020018381526020018281526020013373ffffffffffffffffffffffffffffffffffffffff168152602001600015158152602001600015158152506002600060015481526020019081526020016000206000820151816000015560208201518160010160006101000a81548173ffffffffffffffffffffffffffffffffffffffff021916908373ffffffffffffffffffffffffffffffffffffffff160217905550604082015181600201556060820151816003015560808201518160040160006101000a81548173ffffffffffffffffffffffffffffffffffffffff021916908373ffffffffffffffffffffffffffffffffffffffff16021790555060a08201518160040160146101000a81548160ff02191690831515021790555060c08201518160040160156101000a81548160ff0219169083151502179055509050506001600081905550505050565b600073ffffffffffffffffffffffffffffffffffffffff82169050919050565b6000610a6982610a3e565b9050919050565b610a7981610a5e565b82525050565b6000602082019050610a946000830184610a70565b92915050565b6000819050919050565b610aad81610a9a565b82525050565b6000602082019050610ac86000830184610aa4565b92915050565b600080fd5b610adc81610a9a565b8114610ae757600080fd5b50565b600081359050610af981610ad3565b92915050565b600060208284031215610b1557610b14610ace565b5b6000610b2384828501610aea565b91505092915050565b6000819050919050565b6000610b51610b4c610b4784610a3e565b610b2c565b610a3e565b9050919050565b6000610b6382610b36565b9050919050565b6000610b7582610b58565b9050919050565b610b8581610b6a565b82525050565b60008115159050919050565b610ba081610b8b565b82525050565b600060e082019050610bbb600083018a610aa4565b610bc86020830189610b7c565b610bd56040830188610aa4565b610be26060830187610aa4565b610bef6080830186610a70565b610bfc60a0830185610b97565b610c0960c0830184610b97565b98975050505050505050565b6000610c2082610a3e565b9050919050565b6000610c3282610c15565b9050919050565b610c4281610c27565b8114610c4d57600080fd5b50565b600081359050610c5f81610c39565b92915050565b600080600060608486031215610c7e57610c7d610ace565b5b6000610c8c86828701610c50565b9350506020610c9d86828701610aea565b9250506040610cae86828701610aea565b9150509250925092565b7f4e487b7100000000000000000000000000000000000000000000000000000000600052601160045260246000fd5b6000610cf282610a9a565b9150610cfd83610a9a565b9250827fffffffffffffffffffffffffffffffffffffffffffffffffffffffffffffffff03821115610d3257610d31610cb8565b5b828201905092915050565b6000610d4882610a9a565b9150610d5383610a9a565b9250817fffffffffffffffffffffffffffffffffffffffffffffffffffffffffffffffff0483118215151615610d8c57610d8b610cb8565b5b828202905092915050565b7f4e487b7100000000000000000000000000000000000000000000000000000000600052601260045260246000fd5b6000610dd182610a9a565b9150610ddc83610a9a565b925082610dec57610deb610d97565b5b828204905092915050565b600082825260208201905092915050565b7f5265656e7472616e637947756172643a207265656e7472616e742063616c6c00600082015250565b6000610e3e601f83610df7565b9150610e4982610e08565b602082019050919050565b60006020820190508181036000830152610e6d81610e31565b9050919050565b7f6974656d20646f65736e27742065786973740000000000000000000000000000600082015250565b6000610eaa601283610df7565b9150610eb582610e74565b602082019050919050565b60006020820190508181036000830152610ed981610e9d565b9050919050565b7f6e6f7420656e6f75676820657468657220746f20636f766572206974656d207060008201527f7269636520616e64206d61726b65742066656500000000000000000000000000602082015250565b6000610f3c603383610df7565b9150610f4782610ee0565b604082019050919050565b60006020820190508181036000830152610f6b81610f2f565b9050919050565b7f6974656d20616c726561647920736f6c64000000000000000000000000000000600082015250565b6000610fa8601183610df7565b9150610fb382610f72565b602082019050919050565b60006020820190508181036000830152610fd781610f9b565b9050919050565b6000610fe982610a9a565b9150610ff483610a9a565b92508282101561100757611006610cb8565b5b828203905092915050565b61101b81610c15565b82525050565b60006060820190506110366000830186611012565b6110436020830185611012565b6110506040830184610aa4565b949350505050565b600060608201905061106d6000830186610aa4565b61107a6020830185610aa4565b6110876040830184610aa4565b949350505050565b600061109a82610a9a565b91507fffffffffffffffffffffffffffffffffffffffffffffffffffffffffffffffff8214156110cd576110cc610cb8565b5b60018201905091905056fea2646970667358221220dcbe9a9b35a7e840cbcda25cf6648908ed1d136b97cf903b02a21f135f5a55ef64736f6c634300080b0033",
  "immutableReferences": {
    "2462": [
      {
        "length": 32,
        "start": 551
      },
      {
        "length": 32,
        "start": 1399
      }
    ],
    "2464": [
      {
        "length": 32,
        "start": 603
      },
      {
        "length": 32,
        "start": 849
      }
    ]
  },
  "source": "// SPDX-License-Identifier: MIT\r\npragma solidity ^0.8.0;\r\n\r\nimport \"../../node_modules/@openzeppelin/contracts/token/ERC721/IERC721.sol\";\r\n\r\nimport \"../../node_modules/@openzeppelin/contracts/security/ReentrancyGuard.sol\";\r\n\r\n\r\n\r\ncontract Marketplace is ReentrancyGuard {\r\n\r\n    // Variables\r\n    address payable public immutable feeAccount; // the account that receives fees\r\n    uint public immutable feePercent; // the fee percentage on sales \r\n    uint public itemCount; \r\n\r\n    struct Item {\r\n        uint itemId;\r\n        IERC721 nft;\r\n        uint tokenId;\r\n        uint price;\r\n        address payable seller;\r\n        bool sold;\r\n        bool check;\r\n    }\r\n\r\n    // itemId -> Item\r\n    mapping(uint => Item) public items;\r\n\r\n    event Offered(\r\n        uint itemId,\r\n        address indexed nft,\r\n        uint tokenId,\r\n        uint price,\r\n        address indexed seller\r\n    );\r\n    event Bought(\r\n        uint itemId,\r\n        address indexed nft,\r\n        uint tokenId,\r\n        uint price,\r\n        address indexed seller,\r\n        address indexed buyer\r\n    );\r\n\r\n    constructor() {\r\n        feeAccount = payable(msg.sender);\r\n        feePercent = 1;\r\n    }\r\n\r\n    // Make item to offer on the marketplace\r\n    function makeItem(IERC721 _nft, uint _tokenId, uint _price) external nonReentrant {\r\n        if (_price > 0)\r\n        {\r\n            // transfer nft to marketplace\r\n            _nft.transferFrom(msg.sender, address(this), _tokenId);\r\n\r\n             // emit Offered event\r\n            emit Offered(\r\n                itemCount,\r\n                address(_nft),\r\n                _tokenId,\r\n                _price,\r\n                msg.sender\r\n            );\r\n        }\r\n        //require(_price > 0, \"Price must be greater than zero\");\r\n        // increment itemCount\r\n        itemCount ++;\r\n        \r\n        // add new item to items mapping\r\n        items[itemCount] = Item (\r\n            itemCount,\r\n            _nft,\r\n            _tokenId,\r\n            _price,\r\n            payable(msg.sender),\r\n            false, \r\n            false\r\n        );\r\n       \r\n    }\r\n\r\n    function purchaseItem(uint _itemId) external payable nonReentrant {\r\n        uint _totalPrice = getTotalPrice(_itemId);\r\n        Item storage item = items[_itemId];\r\n        require(_itemId > 0 && _itemId <= itemCount, \"item doesn't exist\");\r\n        require(msg.value >= _totalPrice, \"not enough ether to cover item price and market fee\");\r\n        require(!item.sold, \"item already sold\");\r\n        // pay seller and feeAccount\r\n        item.seller.transfer(item.price);\r\n        feeAccount.transfer(_totalPrice - item.price);\r\n        // update item to sold\r\n        item.sold = true;\r\n        // transfer nft to buyer\r\n        item.nft.transferFrom(address(this), msg.sender, item.tokenId);\r\n        // emit Bought event\r\n        emit Bought(\r\n            _itemId,\r\n            address(item.nft),\r\n            item.tokenId,\r\n            item.price,\r\n            item.seller,\r\n            msg.sender\r\n        );\r\n    }\r\n    function getTotalPrice(uint _itemId) view public returns(uint){\r\n        return((items[_itemId].price*(100 + feePercent))/100);\r\n    }\r\n\r\n    function getItemCount() view public returns(uint){\r\n        return itemCount;\r\n    }\r\n\r\n    function Checked(uint _itemId) external {\r\n        //kim tra xem  tn ti cha\r\n\r\n        //thay i thnh  c xc nhn\r\n        items[_itemId].check = true;\r\n    }\r\n}",
  "sourcePath": "E:\\Code\\React\\marketplace\\src\\contracts\\Marketplace.sol",
  "compiler": {
    "name": "solc",
    "version": "0.8.11+commit.d7f03943.Emscripten.clang"
  },
  "schemaVersion": "3.4.7",
  "updatedAt": "2022-10-05T01:45:42.691Z",
  "networkType": "ethereum",
  "devdoc": {
    "kind": "dev",
    "methods": {},
    "version": 1
  },
  "userdoc": {
    "kind": "user",
    "methods": {},
    "version": 1
  }
}