{
  "contractName": "Marketplace",
  "abi": [
    {
      "inputs": [],
      "stateMutability": "nonpayable",
      "type": "constructor"
    },
    {
      "anonymous": false,
      "inputs": [
        {
          "indexed": false,
          "internalType": "uint256",
          "name": "itemId",
          "type": "uint256"
        },
        {
          "indexed": true,
          "internalType": "address",
          "name": "nft",
          "type": "address"
        },
        {
          "indexed": false,
          "internalType": "uint256",
          "name": "tokenId",
          "type": "uint256"
        },
        {
          "indexed": false,
          "internalType": "uint256",
          "name": "price",
          "type": "uint256"
        },
        {
          "indexed": true,
          "internalType": "address",
          "name": "seller",
          "type": "address"
        },
        {
          "indexed": true,
          "internalType": "address",
          "name": "buyer",
          "type": "address"
        }
      ],
      "name": "Bought",
      "type": "event"
    },
    {
      "anonymous": false,
      "inputs": [
        {
          "indexed": false,
          "internalType": "uint256",
          "name": "itemId",
          "type": "uint256"
        },
        {
          "indexed": true,
          "internalType": "address",
          "name": "nft",
          "type": "address"
        },
        {
          "indexed": false,
          "internalType": "uint256",
          "name": "tokenId",
          "type": "uint256"
        },
        {
          "indexed": false,
          "internalType": "uint256",
          "name": "price",
          "type": "uint256"
        },
        {
          "indexed": true,
          "internalType": "address",
          "name": "seller",
          "type": "address"
        }
      ],
      "name": "Offered",
      "type": "event"
    },
    {
      "inputs": [],
      "name": "feeAccount",
      "outputs": [
        {
          "internalType": "address payable",
          "name": "",
          "type": "address"
        }
      ],
      "stateMutability": "view",
      "type": "function",
      "constant": true
    },
    {
      "inputs": [],
      "name": "feePercent",
      "outputs": [
        {
          "internalType": "uint256",
          "name": "",
          "type": "uint256"
        }
      ],
      "stateMutability": "view",
      "type": "function",
      "constant": true
    },
    {
      "inputs": [],
      "name": "itemCount",
      "outputs": [
        {
          "internalType": "uint256",
          "name": "",
          "type": "uint256"
        }
      ],
      "stateMutability": "view",
      "type": "function",
      "constant": true
    },
    {
      "inputs": [
        {
          "internalType": "uint256",
          "name": "",
          "type": "uint256"
        },
        {
          "internalType": "uint256",
          "name": "",
          "type": "uint256"
        }
      ],
      "name": "itemTracks",
      "outputs": [
        {
          "internalType": "uint256",
          "name": "itemId",
          "type": "uint256"
        },
        {
          "internalType": "string",
          "name": "eventName",
          "type": "string"
        },
        {
          "internalType": "uint256",
          "name": "price",
          "type": "uint256"
        },
        {
          "internalType": "address",
          "name": "from",
          "type": "address"
        },
        {
          "internalType": "address",
          "name": "to",
          "type": "address"
        },
        {
          "internalType": "uint256",
          "name": "time",
          "type": "uint256"
        }
      ],
      "stateMutability": "view",
      "type": "function",
      "constant": true
    },
    {
      "inputs": [
        {
          "internalType": "uint256",
          "name": "",
          "type": "uint256"
        }
      ],
      "name": "items",
      "outputs": [
        {
          "internalType": "uint256",
          "name": "itemId",
          "type": "uint256"
        },
        {
          "internalType": "contract IERC721",
          "name": "nft",
          "type": "address"
        },
        {
          "internalType": "uint256",
          "name": "tokenId",
          "type": "uint256"
        },
        {
          "internalType": "uint256",
          "name": "price",
          "type": "uint256"
        },
        {
          "internalType": "address payable",
          "name": "seller",
          "type": "address"
        },
        {
          "internalType": "bool",
          "name": "sold",
          "type": "bool"
        },
        {
          "internalType": "bool",
          "name": "check",
          "type": "bool"
        }
      ],
      "stateMutability": "view",
      "type": "function",
      "constant": true
    },
    {
      "inputs": [
        {
          "internalType": "contract IERC721",
          "name": "_nft",
          "type": "address"
        },
        {
          "internalType": "uint256",
          "name": "_tokenId",
          "type": "uint256"
        },
        {
          "internalType": "uint256",
          "name": "_price",
          "type": "uint256"
        },
        {
          "internalType": "address",
          "name": "_seller",
          "type": "address"
        }
      ],
      "name": "makeItem",
      "outputs": [],
      "stateMutability": "nonpayable",
      "type": "function"
    },
    {
      "inputs": [
        {
          "internalType": "uint256",
          "name": "_itemId",
          "type": "uint256"
        },
        {
          "internalType": "address",
          "name": "_buyer",
          "type": "address"
        }
      ],
      "name": "purchaseItem",
      "outputs": [],
      "stateMutability": "payable",
      "type": "function",
      "payable": true
    },
    {
      "inputs": [
        {
          "internalType": "uint256",
          "name": "_itemId",
          "type": "uint256"
        }
      ],
      "name": "getTotalPrice",
      "outputs": [
        {
          "internalType": "uint256",
          "name": "",
          "type": "uint256"
        }
      ],
      "stateMutability": "view",
      "type": "function",
      "constant": true
    },
    {
      "inputs": [],
      "name": "getItemCount",
      "outputs": [
        {
          "internalType": "uint256",
          "name": "",
          "type": "uint256"
        }
      ],
      "stateMutability": "view",
      "type": "function",
      "constant": true
    },
    {
      "inputs": [
        {
          "internalType": "uint256",
          "name": "_itemId",
          "type": "uint256"
        }
      ],
      "name": "Checked",
      "outputs": [],
      "stateMutability": "nonpayable",
      "type": "function"
    },
    {
      "inputs": [
        {
          "internalType": "uint256",
          "name": "_itemId",
          "type": "uint256"
        },
        {
          "internalType": "string",
          "name": "_eventName",
          "type": "string"
        },
        {
          "internalType": "uint256",
          "name": "_price",
          "type": "uint256"
        },
        {
          "internalType": "address",
          "name": "_from",
          "type": "address"
        },
        {
          "internalType": "address",
          "name": "_to",
          "type": "address"
        },
        {
          "internalType": "uint256",
          "name": "_time",
          "type": "uint256"
        }
      ],
      "name": "addHistory",
      "outputs": [],
      "stateMutability": "nonpayable",
      "type": "function"
    },
    {
      "inputs": [
        {
          "internalType": "uint256",
          "name": "_itemId",
          "type": "uint256"
        }
      ],
      "name": "getHistories",
      "outputs": [
        {
          "components": [
            {
              "internalType": "uint256",
              "name": "itemId",
              "type": "uint256"
            },
            {
              "internalType": "string",
              "name": "eventName",
              "type": "string"
            },
            {
              "internalType": "uint256",
              "name": "price",
              "type": "uint256"
            },
            {
              "internalType": "address",
              "name": "from",
              "type": "address"
            },
            {
              "internalType": "address",
              "name": "to",
              "type": "address"
            },
            {
              "internalType": "uint256",
              "name": "time",
              "type": "uint256"
            }
          ],
          "internalType": "struct Marketplace.ItemHistory[]",
          "name": "",
          "type": "tuple[]"
        }
      ],
      "stateMutability": "view",
      "type": "function",
      "constant": true
    },
    {
      "inputs": [
        {
          "internalType": "uint256",
          "name": "_itemId",
          "type": "uint256"
        },
        {
          "internalType": "uint256",
          "name": "_historyId",
          "type": "uint256"
        }
      ],
      "name": "getHistory",
      "outputs": [
        {
          "components": [
            {
              "internalType": "uint256",
              "name": "itemId",
              "type": "uint256"
            },
            {
              "internalType": "string",
              "name": "eventName",
              "type": "string"
            },
            {
              "internalType": "uint256",
              "name": "price",
              "type": "uint256"
            },
            {
              "internalType": "address",
              "name": "from",
              "type": "address"
            },
            {
              "internalType": "address",
              "name": "to",
              "type": "address"
            },
            {
              "internalType": "uint256",
              "name": "time",
              "type": "uint256"
            }
          ],
          "internalType": "struct Marketplace.ItemHistory",
          "name": "",
          "type": "tuple"
        }
      ],
      "stateMutability": "view",
      "type": "function",
      "constant": true
    }
  ],
  "bytecode": "0x60c060405234801561001057600080fd5b5060016000819055503373ffffffffffffffffffffffffffffffffffffffff1660808173ffffffffffffffffffffffffffffffffffffffff1681525050600160a0818152505060805160a05161203961008960003960008181611064015261115a0152600081816109410152610e0701526120396000f3fe6080604052600436106100c25760003560e01c80636bfb0d011161007f5780637fd6f15c116100595780637fd6f15c14610272578063a24434281461029d578063bfb231d2146102c6578063ca7dd37514610309576100c2565b80636bfb0d01146102005780637749cf231461022b5780637bfe9efd14610256576100c2565b80632d121be4146100c75780633a945135146100f05780635931b1691461011957806365e17c9d1461015657806368f0d401146101815780636906679b146101c3575b600080fd5b3480156100d357600080fd5b506100ee60048036038101906100e991906113a2565b610346565b005b3480156100fc57600080fd5b506101176004803603810190610112919061154f565b610609565b005b34801561012557600080fd5b50610140600480360381019061013b91906115f8565b610771565b60405161014d9190611816565b60405180910390f35b34801561016257600080fd5b5061016b61093f565b6040516101789190611859565b60405180910390f35b34801561018d57600080fd5b506101a860048036038101906101a39190611874565b610963565b6040516101ba9695949392919061191c565b60405180910390f35b3480156101cf57600080fd5b506101ea60048036038101906101e59190611874565b610a84565b6040516101f79190611a0d565b60405180910390f35b34801561020c57600080fd5b50610215610c2e565b6040516102229190611a2f565b60405180910390f35b34801561023757600080fd5b50610240610c34565b60405161024d9190611a2f565b60405180910390f35b610270600480360381019061026b9190611a4a565b610c3e565b005b34801561027e57600080fd5b50610287611062565b6040516102949190611a2f565b60405180910390f35b3480156102a957600080fd5b506102c460048036038101906102bf91906115f8565b611086565b005b3480156102d257600080fd5b506102ed60048036038101906102e891906115f8565b6110b8565b6040516103009796959493929190611b04565b60405180910390f35b34801561031557600080fd5b50610330600480360381019061032b91906115f8565b611154565b60405161033d9190611a2f565b60405180910390f35b6002600054141561038c576040517f08c379a000000000000000000000000000000000000000000000000000000000815260040161038390611bbf565b60405180910390fd5b60026000819055506000821115610478578373ffffffffffffffffffffffffffffffffffffffff166323b872dd3330866040518463ffffffff1660e01b81526004016103da93929190611bdf565b600060405180830381600087803b1580156103f457600080fd5b505af1158015610408573d6000803e3d6000fd5b505050508073ffffffffffffffffffffffffffffffffffffffff168473ffffffffffffffffffffffffffffffffffffffff167f655a0cf9c8db81512be9a76dc1c5ae5380b8816ce6ad659cd61b715e2999d59a600154868660405161046f93929190611c16565b60405180910390a35b6001600081548092919061048b90611c7c565b91905055506040518060e0016040528060015481526020018573ffffffffffffffffffffffffffffffffffffffff1681526020018481526020018381526020018273ffffffffffffffffffffffffffffffffffffffff168152602001600015158152602001600015158152506003600060015481526020019081526020016000206000820151816000015560208201518160010160006101000a81548173ffffffffffffffffffffffffffffffffffffffff021916908373ffffffffffffffffffffffffffffffffffffffff160217905550604082015181600201556060820151816003015560808201518160040160006101000a81548173ffffffffffffffffffffffffffffffffffffffff021916908373ffffffffffffffffffffffffffffffffffffffff16021790555060a08201518160040160146101000a81548160ff02191690831515021790555060c08201518160040160156101000a81548160ff021916908315150217905550905050600160008190555050505050565b600260008781526020019081526020016000206040518060c001604052808881526020018781526020018681526020018573ffffffffffffffffffffffffffffffffffffffff1681526020018473ffffffffffffffffffffffffffffffffffffffff1681526020018381525090806001815401808255809150506001900390600052602060002090600602016000909190919091506000820151816000015560208201518160010190805190602001906106c49291906111b7565b506040820151816002015560608201518160030160006101000a81548173ffffffffffffffffffffffffffffffffffffffff021916908373ffffffffffffffffffffffffffffffffffffffff16021790555060808201518160040160006101000a81548173ffffffffffffffffffffffffffffffffffffffff021916908373ffffffffffffffffffffffffffffffffffffffff16021790555060a082015181600501555050505050505050565b606060026000838152602001908152602001600020805480602002602001604051908101604052809291908181526020016000905b8282101561093457838290600052602060002090600602016040518060c0016040529081600082015481526020016001820180546107e390611cf4565b80601f016020809104026020016040519081016040528092919081815260200182805461080f90611cf4565b801561085c5780601f106108315761010080835404028352916020019161085c565b820191906000526020600020905b81548152906001019060200180831161083f57829003601f168201915b50505050508152602001600282015481526020016003820160009054906101000a900473ffffffffffffffffffffffffffffffffffffffff1673ffffffffffffffffffffffffffffffffffffffff1673ffffffffffffffffffffffffffffffffffffffff1681526020016004820160009054906101000a900473ffffffffffffffffffffffffffffffffffffffff1673ffffffffffffffffffffffffffffffffffffffff1673ffffffffffffffffffffffffffffffffffffffff168152602001600582015481525050815260200190600101906107a6565b505050509050919050565b7f000000000000000000000000000000000000000000000000000000000000000081565b6002602052816000526040600020818154811061097f57600080fd5b9060005260206000209060060201600091509150508060000154908060010180546109a990611cf4565b80601f01602080910402602001604051908101604052809291908181526020018280546109d590611cf4565b8015610a225780601f106109f757610100808354040283529160200191610a22565b820191906000526020600020905b815481529060010190602001808311610a0557829003601f168201915b5050505050908060020154908060030160009054906101000a900473ffffffffffffffffffffffffffffffffffffffff16908060040160009054906101000a900473ffffffffffffffffffffffffffffffffffffffff16908060050154905086565b610a8c61123d565b600260008481526020019081526020016000208281548110610ab157610ab0611d26565b5b90600052602060002090600602016040518060c001604052908160008201548152602001600182018054610ae490611cf4565b80601f0160208091040260200160405190810160405280929190818152602001828054610b1090611cf4565b8015610b5d5780601f10610b3257610100808354040283529160200191610b5d565b820191906000526020600020905b815481529060010190602001808311610b4057829003601f168201915b50505050508152602001600282015481526020016003820160009054906101000a900473ffffffffffffffffffffffffffffffffffffffff1673ffffffffffffffffffffffffffffffffffffffff1673ffffffffffffffffffffffffffffffffffffffff1681526020016004820160009054906101000a900473ffffffffffffffffffffffffffffffffffffffff1673ffffffffffffffffffffffffffffffffffffffff1673ffffffffffffffffffffffffffffffffffffffff168152602001600582015481525050905092915050565b60015481565b6000600154905090565b60026000541415610c84576040517f08c379a0000000000000000000000000000000000000000000000000000000008152600401610c7b90611bbf565b60405180910390fd5b60026000819055506000610c9783611154565b90506000600360008581526020019081526020016000209050600084118015610cc257506001548411155b610d01576040517f08c379a0000000000000000000000000000000000000000000000000000000008152600401610cf890611da1565b60405180910390fd5b81341015610d44576040517f08c379a0000000000000000000000000000000000000000000000000000000008152600401610d3b90611e33565b60405180910390fd5b8060040160149054906101000a900460ff1615610d96576040517f08c379a0000000000000000000000000000000000000000000000000000000008152600401610d8d90611e9f565b60405180910390fd5b8060040160009054906101000a900473ffffffffffffffffffffffffffffffffffffffff1673ffffffffffffffffffffffffffffffffffffffff166108fc82600301549081150290604051600060405180830381858888f19350505050158015610e04573d6000803e3d6000fd5b507f000000000000000000000000000000000000000000000000000000000000000073ffffffffffffffffffffffffffffffffffffffff166108fc826003015484610e4f9190611ebf565b9081150290604051600060405180830381858888f19350505050158015610e7a573d6000803e3d6000fd5b5060018160040160146101000a81548160ff0219169083151502179055508060010160009054906101000a900473ffffffffffffffffffffffffffffffffffffffff1673ffffffffffffffffffffffffffffffffffffffff166323b872dd303384600201546040518463ffffffff1660e01b8152600401610efd93929190611bdf565b600060405180830381600087803b158015610f1757600080fd5b505af1158015610f2b573d6000803e3d6000fd5b505050508273ffffffffffffffffffffffffffffffffffffffff168160040160009054906101000a900473ffffffffffffffffffffffffffffffffffffffff1673ffffffffffffffffffffffffffffffffffffffff168260010160009054906101000a900473ffffffffffffffffffffffffffffffffffffffff1673ffffffffffffffffffffffffffffffffffffffff167f8b4c9c8a607d67b321582dd8461041b1dc2ceeca70c8b7f37f8e02095cf2e76d8785600201548660030154604051610ff793929190611c16565b60405180910390a4826003600086815260200190815260200160002060040160006101000a81548173ffffffffffffffffffffffffffffffffffffffff021916908373ffffffffffffffffffffffffffffffffffffffff160217905550505060016000819055505050565b7f000000000000000000000000000000000000000000000000000000000000000081565b60016003600083815260200190815260200160002060040160156101000a81548160ff02191690831515021790555050565b60036020528060005260406000206000915090508060000154908060010160009054906101000a900473ffffffffffffffffffffffffffffffffffffffff16908060020154908060030154908060040160009054906101000a900473ffffffffffffffffffffffffffffffffffffffff16908060040160149054906101000a900460ff16908060040160159054906101000a900460ff16905087565b600060647f000000000000000000000000000000000000000000000000000000000000000060646111859190611ef3565b60036000858152602001908152602001600020600301546111a69190611f49565b6111b09190611fd2565b9050919050565b8280546111c390611cf4565b90600052602060002090601f0160209004810192826111e5576000855561122c565b82601f106111fe57805160ff191683800117855561122c565b8280016001018555821561122c579182015b8281111561122b578251825591602001919060010190611210565b5b509050611239919061129f565b5090565b6040518060c00160405280600081526020016060815260200160008152602001600073ffffffffffffffffffffffffffffffffffffffff168152602001600073ffffffffffffffffffffffffffffffffffffffff168152602001600081525090565b5b808211156112b85760008160009055506001016112a0565b5090565b6000604051905090565b600080fd5b600080fd5b600073ffffffffffffffffffffffffffffffffffffffff82169050919050565b60006112fb826112d0565b9050919050565b600061130d826112f0565b9050919050565b61131d81611302565b811461132857600080fd5b50565b60008135905061133a81611314565b92915050565b6000819050919050565b61135381611340565b811461135e57600080fd5b50565b6000813590506113708161134a565b92915050565b61137f816112f0565b811461138a57600080fd5b50565b60008135905061139c81611376565b92915050565b600080600080608085870312156113bc576113bb6112c6565b5b60006113ca8782880161132b565b94505060206113db87828801611361565b93505060406113ec87828801611361565b92505060606113fd8782880161138d565b91505092959194509250565b600080fd5b600080fd5b6000601f19601f8301169050919050565b7f4e487b7100000000000000000000000000000000000000000000000000000000600052604160045260246000fd5b61145c82611413565b810181811067ffffffffffffffff8211171561147b5761147a611424565b5b80604052505050565b600061148e6112bc565b905061149a8282611453565b919050565b600067ffffffffffffffff8211156114ba576114b9611424565b5b6114c382611413565b9050602081019050919050565b82818337600083830152505050565b60006114f26114ed8461149f565b611484565b90508281526020810184848401111561150e5761150d61140e565b5b6115198482856114d0565b509392505050565b600082601f83011261153657611535611409565b5b81356115468482602086016114df565b91505092915050565b60008060008060008060c0878903121561156c5761156b6112c6565b5b600061157a89828a01611361565b965050602087013567ffffffffffffffff81111561159b5761159a6112cb565b5b6115a789828a01611521565b95505060406115b889828a01611361565b94505060606115c989828a0161138d565b93505060806115da89828a0161138d565b92505060a06115eb89828a01611361565b9150509295509295509295565b60006020828403121561160e5761160d6112c6565b5b600061161c84828501611361565b91505092915050565b600081519050919050565b600082825260208201905092915050565b6000819050602082019050919050565b61165a81611340565b82525050565b600081519050919050565b600082825260208201905092915050565b60005b8381101561169a57808201518184015260208101905061167f565b838111156116a9576000848401525b50505050565b60006116ba82611660565b6116c4818561166b565b93506116d481856020860161167c565b6116dd81611413565b840191505092915050565b6116f1816112f0565b82525050565b600060c08301600083015161170f6000860182611651565b506020830151848203602086015261172782826116af565b915050604083015161173c6040860182611651565b50606083015161174f60608601826116e8565b50608083015161176260808601826116e8565b5060a083015161177560a0860182611651565b508091505092915050565b600061178c83836116f7565b905092915050565b6000602082019050919050565b60006117ac82611625565b6117b68185611630565b9350836020820285016117c885611641565b8060005b8581101561180457848403895281516117e58582611780565b94506117f083611794565b925060208a019950506001810190506117cc565b50829750879550505050505092915050565b6000602082019050818103600083015261183081846117a1565b905092915050565b6000611843826112d0565b9050919050565b61185381611838565b82525050565b600060208201905061186e600083018461184a565b92915050565b6000806040838503121561188b5761188a6112c6565b5b600061189985828601611361565b92505060206118aa85828601611361565b9150509250929050565b6118bd81611340565b82525050565b600082825260208201905092915050565b60006118df82611660565b6118e981856118c3565b93506118f981856020860161167c565b61190281611413565b840191505092915050565b611916816112f0565b82525050565b600060c08201905061193160008301896118b4565b818103602083015261194381886118d4565b905061195260408301876118b4565b61195f606083018661190d565b61196c608083018561190d565b61197960a08301846118b4565b979650505050505050565b600060c08301600083015161199c6000860182611651565b50602083015184820360208601526119b482826116af565b91505060408301516119c96040860182611651565b5060608301516119dc60608601826116e8565b5060808301516119ef60808601826116e8565b5060a0830151611a0260a0860182611651565b508091505092915050565b60006020820190508181036000830152611a278184611984565b905092915050565b6000602082019050611a4460008301846118b4565b92915050565b60008060408385031215611a6157611a606112c6565b5b6000611a6f85828601611361565b9250506020611a808582860161138d565b9150509250929050565b6000819050919050565b6000611aaf611aaa611aa5846112d0565b611a8a565b6112d0565b9050919050565b6000611ac182611a94565b9050919050565b6000611ad382611ab6565b9050919050565b611ae381611ac8565b82525050565b60008115159050919050565b611afe81611ae9565b82525050565b600060e082019050611b19600083018a6118b4565b611b266020830189611ada565b611b3360408301886118b4565b611b4060608301876118b4565b611b4d608083018661184a565b611b5a60a0830185611af5565b611b6760c0830184611af5565b98975050505050505050565b7f5265656e7472616e637947756172643a207265656e7472616e742063616c6c00600082015250565b6000611ba9601f836118c3565b9150611bb482611b73565b602082019050919050565b60006020820190508181036000830152611bd881611b9c565b9050919050565b6000606082019050611bf4600083018661190d565b611c01602083018561190d565b611c0e60408301846118b4565b949350505050565b6000606082019050611c2b60008301866118b4565b611c3860208301856118b4565b611c4560408301846118b4565b949350505050565b7f4e487b7100000000000000000000000000000000000000000000000000000000600052601160045260246000fd5b6000611c8782611340565b91507fffffffffffffffffffffffffffffffffffffffffffffffffffffffffffffffff821415611cba57611cb9611c4d565b5b600182019050919050565b7f4e487b7100000000000000000000000000000000000000000000000000000000600052602260045260246000fd5b60006002820490506001821680611d0c57607f821691505b60208210811415611d2057611d1f611cc5565b5b50919050565b7f4e487b7100000000000000000000000000000000000000000000000000000000600052603260045260246000fd5b7f6974656d20646f65736e27742065786973740000000000000000000000000000600082015250565b6000611d8b6012836118c3565b9150611d9682611d55565b602082019050919050565b60006020820190508181036000830152611dba81611d7e565b9050919050565b7f6e6f7420656e6f75676820657468657220746f20636f766572206974656d207060008201527f7269636520616e64206d61726b65742066656500000000000000000000000000602082015250565b6000611e1d6033836118c3565b9150611e2882611dc1565b604082019050919050565b60006020820190508181036000830152611e4c81611e10565b9050919050565b7f6974656d20616c726561647920736f6c64000000000000000000000000000000600082015250565b6000611e896011836118c3565b9150611e9482611e53565b602082019050919050565b60006020820190508181036000830152611eb881611e7c565b9050919050565b6000611eca82611340565b9150611ed583611340565b925082821015611ee857611ee7611c4d565b5b828203905092915050565b6000611efe82611340565b9150611f0983611340565b9250827fffffffffffffffffffffffffffffffffffffffffffffffffffffffffffffffff03821115611f3e57611f3d611c4d565b5b828201905092915050565b6000611f5482611340565b9150611f5f83611340565b9250817fffffffffffffffffffffffffffffffffffffffffffffffffffffffffffffffff0483118215151615611f9857611f97611c4d565b5b828202905092915050565b7f4e487b7100000000000000000000000000000000000000000000000000000000600052601260045260246000fd5b6000611fdd82611340565b9150611fe883611340565b925082611ff857611ff7611fa3565b5b82820490509291505056fea26469706673582212203f83616571a70e765209eccdca93341faa43edfb3388935e9d356624915e309264736f6c634300080b0033",
  "immutableReferences": {
    "2462": [
      {
        "length": 32,
        "start": 2369
      },
      {
        "length": 32,
        "start": 3591
      }
    ],
    "2464": [
      {
        "length": 32,
        "start": 4196
      },
      {
        "length": 32,
        "start": 4442
      }
    ]
  },
  "source": "// SPDX-License-Identifier: MIT\r\npragma solidity ^0.8.0;\r\n\r\nimport \"../../node_modules/@openzeppelin/contracts/token/ERC721/IERC721.sol\";\r\n\r\nimport \"../../node_modules/@openzeppelin/contracts/security/ReentrancyGuard.sol\";\r\n\r\n\r\n\r\n\r\ncontract Marketplace is ReentrancyGuard {\r\n\r\n    // Variables\r\n    address payable public immutable feeAccount; // the account that receives fees\r\n    uint public immutable feePercent; // the fee percentage on sales \r\n    uint public itemCount; \r\n\r\n    struct Item {\r\n        uint itemId;\r\n        IERC721 nft;\r\n        uint tokenId;\r\n        uint price;\r\n        address payable seller;\r\n        bool sold;\r\n        bool check;\r\n    }\r\n\r\n    struct ItemHistory{\r\n        uint itemId;\r\n        string eventName;\r\n        uint price;\r\n        address from;\r\n        address to;\r\n        uint time;\r\n    }\r\n\r\n    mapping(uint => ItemHistory[]) public itemTracks;\r\n\r\n    // itemId -> Item\r\n    mapping(uint => Item) public items;\r\n\r\n    event Offered(\r\n        uint itemId,\r\n        address indexed nft,\r\n        uint tokenId,\r\n        uint price,\r\n        address indexed seller\r\n    );\r\n    event Bought(\r\n        uint itemId,\r\n        address indexed nft,\r\n        uint tokenId,\r\n        uint price,\r\n        address indexed seller,\r\n        address indexed buyer\r\n    );\r\n\r\n    constructor() {\r\n        feeAccount = payable(msg.sender);\r\n        feePercent = 1;\r\n    }\r\n\r\n    // Make item to offer on the marketplace\r\n    function makeItem(IERC721 _nft, uint _tokenId, uint _price, address _seller) external nonReentrant {\r\n        if (_price > 0)\r\n        {\r\n            // transfer nft to marketplace\r\n            _nft.transferFrom(msg.sender, address(this), _tokenId);\r\n\r\n             // emit Offered event\r\n            emit Offered(\r\n                itemCount,\r\n                address(_nft),\r\n                _tokenId,\r\n                _price,\r\n                _seller\r\n            );\r\n        }\r\n        //require(_price > 0, \"Price must be greater than zero\");\r\n        // increment itemCount\r\n        itemCount ++;\r\n        \r\n        // add new item to items mapping\r\n        items[itemCount] = Item (\r\n            itemCount,\r\n            _nft,\r\n            _tokenId,\r\n            _price,\r\n            payable(_seller),\r\n            false, \r\n            false\r\n        );\r\n       \r\n    }\r\n\r\n    function purchaseItem(uint _itemId, address _buyer) external payable nonReentrant {\r\n        uint _totalPrice = getTotalPrice(_itemId);\r\n        Item storage item = items[_itemId];\r\n        require(_itemId > 0 && _itemId <= itemCount, \"item doesn't exist\");\r\n        require(msg.value >= _totalPrice, \"not enough ether to cover item price and market fee\");\r\n        require(!item.sold, \"item already sold\");\r\n        // pay seller and feeAccount\r\n        item.seller.transfer(item.price);\r\n        feeAccount.transfer(_totalPrice - item.price);\r\n        // update item to sold\r\n        item.sold = true;\r\n        // transfer nft to buyer\r\n        item.nft.transferFrom(address(this), msg.sender, item.tokenId);\r\n        // emit Bought event\r\n        emit Bought(\r\n            _itemId,\r\n            address(item.nft),\r\n            item.tokenId,\r\n            item.price,\r\n            item.seller,\r\n            _buyer\r\n        );\r\n\r\n        //change seller to buyer\r\n        items[_itemId].seller = payable(_buyer);\r\n    }\r\n    function getTotalPrice(uint _itemId) view public returns(uint){\r\n        return((items[_itemId].price*(100 + feePercent))/100);\r\n    }\r\n\r\n    function getItemCount() view public returns(uint){\r\n        return itemCount;\r\n    }\r\n\r\n    function Checked(uint _itemId) external {\r\n        //kim tra xem  tn ti cha\r\n\r\n        //thay i thnh  c xc nhn\r\n        items[_itemId].check = true;\r\n    }\r\n\r\n    function addHistory( uint _itemId, string memory _eventName, uint _price, address _from, address _to, uint _time) public {\r\n        itemTracks[_itemId].push(ItemHistory(_itemId, _eventName, _price, _from, _to, _time));\r\n    }\r\n\r\n    function getHistories(uint _itemId) public view returns (ItemHistory[] memory){\r\n        return itemTracks[_itemId];\r\n    }\r\n\r\n    function getHistory(uint _itemId, uint _historyId) public view returns (ItemHistory memory){\r\n        return itemTracks[_itemId][_historyId];\r\n    }\r\n}",
  "sourcePath": "E:\\Code\\React\\marketplace\\src\\contracts\\Marketplace.sol",
  "compiler": {
    "name": "solc",
    "version": "0.8.11+commit.d7f03943.Emscripten.clang"
  },
  "schemaVersion": "3.4.7",
  "updatedAt": "2022-10-10T16:56:01.876Z",
  "networkType": "ethereum",
  "devdoc": {
    "kind": "dev",
    "methods": {},
    "version": 1
  },
  "userdoc": {
    "kind": "user",
    "methods": {},
    "version": 1
  }
}