{
  "contractName": "UserRegister",
  "abi": [
    {
      "anonymous": false,
      "inputs": [
        {
          "indexed": false,
          "internalType": "uint256",
          "name": "itemId",
          "type": "uint256"
        },
        {
          "indexed": true,
          "internalType": "address",
          "name": "nft",
          "type": "address"
        },
        {
          "indexed": false,
          "internalType": "uint256",
          "name": "tokenId",
          "type": "uint256"
        },
        {
          "indexed": false,
          "internalType": "uint256",
          "name": "price",
          "type": "uint256"
        },
        {
          "indexed": true,
          "internalType": "address",
          "name": "seller",
          "type": "address"
        },
        {
          "indexed": true,
          "internalType": "address",
          "name": "buyer",
          "type": "address"
        }
      ],
      "name": "Bought",
      "type": "event"
    },
    {
      "anonymous": false,
      "inputs": [
        {
          "indexed": false,
          "internalType": "uint256",
          "name": "itemId",
          "type": "uint256"
        },
        {
          "indexed": true,
          "internalType": "address",
          "name": "nft",
          "type": "address"
        },
        {
          "indexed": false,
          "internalType": "uint256",
          "name": "tokenId",
          "type": "uint256"
        },
        {
          "indexed": false,
          "internalType": "uint256",
          "name": "price",
          "type": "uint256"
        },
        {
          "indexed": true,
          "internalType": "address",
          "name": "seller",
          "type": "address"
        }
      ],
      "name": "Offered",
      "type": "event"
    },
    {
      "anonymous": false,
      "inputs": [
        {
          "indexed": false,
          "internalType": "address",
          "name": "owner",
          "type": "address"
        },
        {
          "indexed": false,
          "internalType": "string",
          "name": "UserURI",
          "type": "string"
        },
        {
          "indexed": false,
          "internalType": "string",
          "name": "name",
          "type": "string"
        },
        {
          "indexed": false,
          "internalType": "bool",
          "name": "isExpert",
          "type": "bool"
        },
        {
          "indexed": false,
          "internalType": "bool",
          "name": "isExist",
          "type": "bool"
        }
      ],
      "name": "Signed",
      "type": "event"
    },
    {
      "inputs": [
        {
          "internalType": "uint256",
          "name": "_itemId",
          "type": "uint256"
        }
      ],
      "name": "Checked",
      "outputs": [],
      "stateMutability": "nonpayable",
      "type": "function"
    },
    {
      "inputs": [
        {
          "internalType": "uint256",
          "name": "_itemId",
          "type": "uint256"
        },
        {
          "internalType": "uint256",
          "name": "_price",
          "type": "uint256"
        },
        {
          "internalType": "address payable",
          "name": "_seller",
          "type": "address"
        }
      ],
      "name": "OfferItem",
      "outputs": [],
      "stateMutability": "nonpayable",
      "type": "function"
    },
    {
      "inputs": [
        {
          "internalType": "uint256",
          "name": "_itemId",
          "type": "uint256"
        },
        {
          "internalType": "string",
          "name": "_eventName",
          "type": "string"
        },
        {
          "internalType": "uint256",
          "name": "_price",
          "type": "uint256"
        },
        {
          "internalType": "address",
          "name": "_from",
          "type": "address"
        },
        {
          "internalType": "address",
          "name": "_to",
          "type": "address"
        },
        {
          "internalType": "uint256",
          "name": "_time",
          "type": "uint256"
        }
      ],
      "name": "addHistory",
      "outputs": [],
      "stateMutability": "nonpayable",
      "type": "function"
    },
    {
      "inputs": [
        {
          "internalType": "uint256",
          "name": "",
          "type": "uint256"
        },
        {
          "internalType": "uint256",
          "name": "",
          "type": "uint256"
        }
      ],
      "name": "downloaders",
      "outputs": [
        {
          "internalType": "address",
          "name": "",
          "type": "address"
        }
      ],
      "stateMutability": "view",
      "type": "function",
      "constant": true
    },
    {
      "inputs": [],
      "name": "feeAccount",
      "outputs": [
        {
          "internalType": "address payable",
          "name": "",
          "type": "address"
        }
      ],
      "stateMutability": "view",
      "type": "function",
      "constant": true
    },
    {
      "inputs": [],
      "name": "feePercent",
      "outputs": [
        {
          "internalType": "uint256",
          "name": "",
          "type": "uint256"
        }
      ],
      "stateMutability": "view",
      "type": "function",
      "constant": true
    },
    {
      "inputs": [
        {
          "internalType": "uint256",
          "name": "_itemId",
          "type": "uint256"
        }
      ],
      "name": "getDownloaders",
      "outputs": [
        {
          "internalType": "address[]",
          "name": "",
          "type": "address[]"
        }
      ],
      "stateMutability": "view",
      "type": "function",
      "constant": true
    },
    {
      "inputs": [
        {
          "internalType": "uint256",
          "name": "_itemId",
          "type": "uint256"
        }
      ],
      "name": "getHistories",
      "outputs": [
        {
          "components": [
            {
              "internalType": "uint256",
              "name": "itemId",
              "type": "uint256"
            },
            {
              "internalType": "string",
              "name": "eventName",
              "type": "string"
            },
            {
              "internalType": "uint256",
              "name": "price",
              "type": "uint256"
            },
            {
              "internalType": "address",
              "name": "from",
              "type": "address"
            },
            {
              "internalType": "address",
              "name": "to",
              "type": "address"
            },
            {
              "internalType": "uint256",
              "name": "time",
              "type": "uint256"
            }
          ],
          "internalType": "struct Marketplace.ItemHistory[]",
          "name": "",
          "type": "tuple[]"
        }
      ],
      "stateMutability": "view",
      "type": "function",
      "constant": true
    },
    {
      "inputs": [
        {
          "internalType": "uint256",
          "name": "_itemId",
          "type": "uint256"
        },
        {
          "internalType": "uint256",
          "name": "_historyId",
          "type": "uint256"
        }
      ],
      "name": "getHistory",
      "outputs": [
        {
          "components": [
            {
              "internalType": "uint256",
              "name": "itemId",
              "type": "uint256"
            },
            {
              "internalType": "string",
              "name": "eventName",
              "type": "string"
            },
            {
              "internalType": "uint256",
              "name": "price",
              "type": "uint256"
            },
            {
              "internalType": "address",
              "name": "from",
              "type": "address"
            },
            {
              "internalType": "address",
              "name": "to",
              "type": "address"
            },
            {
              "internalType": "uint256",
              "name": "time",
              "type": "uint256"
            }
          ],
          "internalType": "struct Marketplace.ItemHistory",
          "name": "",
          "type": "tuple"
        }
      ],
      "stateMutability": "view",
      "type": "function",
      "constant": true
    },
    {
      "inputs": [],
      "name": "getItemCount",
      "outputs": [
        {
          "internalType": "uint256",
          "name": "",
          "type": "uint256"
        }
      ],
      "stateMutability": "view",
      "type": "function",
      "constant": true
    },
    {
      "inputs": [
        {
          "internalType": "uint256",
          "name": "_itemId",
          "type": "uint256"
        }
      ],
      "name": "getTotalPrice",
      "outputs": [
        {
          "internalType": "uint256",
          "name": "",
          "type": "uint256"
        }
      ],
      "stateMutability": "view",
      "type": "function",
      "constant": true
    },
    {
      "inputs": [],
      "name": "itemCount",
      "outputs": [
        {
          "internalType": "uint256",
          "name": "",
          "type": "uint256"
        }
      ],
      "stateMutability": "view",
      "type": "function",
      "constant": true
    },
    {
      "inputs": [
        {
          "internalType": "uint256",
          "name": "",
          "type": "uint256"
        },
        {
          "internalType": "uint256",
          "name": "",
          "type": "uint256"
        }
      ],
      "name": "itemTracks",
      "outputs": [
        {
          "internalType": "uint256",
          "name": "itemId",
          "type": "uint256"
        },
        {
          "internalType": "string",
          "name": "eventName",
          "type": "string"
        },
        {
          "internalType": "uint256",
          "name": "price",
          "type": "uint256"
        },
        {
          "internalType": "address",
          "name": "from",
          "type": "address"
        },
        {
          "internalType": "address",
          "name": "to",
          "type": "address"
        },
        {
          "internalType": "uint256",
          "name": "time",
          "type": "uint256"
        }
      ],
      "stateMutability": "view",
      "type": "function",
      "constant": true
    },
    {
      "inputs": [
        {
          "internalType": "uint256",
          "name": "",
          "type": "uint256"
        }
      ],
      "name": "items",
      "outputs": [
        {
          "internalType": "uint256",
          "name": "itemId",
          "type": "uint256"
        },
        {
          "internalType": "contract IERC721",
          "name": "nft",
          "type": "address"
        },
        {
          "internalType": "uint256",
          "name": "tokenId",
          "type": "uint256"
        },
        {
          "internalType": "uint256",
          "name": "price",
          "type": "uint256"
        },
        {
          "internalType": "address payable",
          "name": "seller",
          "type": "address"
        },
        {
          "internalType": "bool",
          "name": "sold",
          "type": "bool"
        },
        {
          "internalType": "bool",
          "name": "check",
          "type": "bool"
        }
      ],
      "stateMutability": "view",
      "type": "function",
      "constant": true
    },
    {
      "inputs": [
        {
          "internalType": "contract IERC721",
          "name": "_nft",
          "type": "address"
        },
        {
          "internalType": "uint256",
          "name": "_tokenId",
          "type": "uint256"
        },
        {
          "internalType": "uint256",
          "name": "_price",
          "type": "uint256"
        },
        {
          "internalType": "address",
          "name": "_seller",
          "type": "address"
        }
      ],
      "name": "makeItem",
      "outputs": [],
      "stateMutability": "nonpayable",
      "type": "function"
    },
    {
      "inputs": [
        {
          "internalType": "uint256",
          "name": "_itemId",
          "type": "uint256"
        },
        {
          "internalType": "address",
          "name": "_buyer",
          "type": "address"
        }
      ],
      "name": "purchaseDownloadItem",
      "outputs": [],
      "stateMutability": "payable",
      "type": "function",
      "payable": true
    },
    {
      "inputs": [
        {
          "internalType": "uint256",
          "name": "_itemId",
          "type": "uint256"
        },
        {
          "internalType": "address",
          "name": "_buyer",
          "type": "address"
        }
      ],
      "name": "purchaseItem",
      "outputs": [],
      "stateMutability": "payable",
      "type": "function",
      "payable": true
    },
    {
      "inputs": [
        {
          "internalType": "uint256",
          "name": "_itemId",
          "type": "uint256"
        },
        {
          "internalType": "address",
          "name": "_buyer",
          "type": "address"
        }
      ],
      "name": "transferItem",
      "outputs": [],
      "stateMutability": "payable",
      "type": "function",
      "payable": true
    },
    {
      "inputs": [],
      "name": "userCount",
      "outputs": [
        {
          "internalType": "uint256",
          "name": "",
          "type": "uint256"
        }
      ],
      "stateMutability": "view",
      "type": "function",
      "constant": true
    },
    {
      "inputs": [
        {
          "internalType": "address",
          "name": "",
          "type": "address"
        }
      ],
      "name": "users",
      "outputs": [
        {
          "internalType": "address",
          "name": "UserId",
          "type": "address"
        },
        {
          "internalType": "string",
          "name": "UserURI",
          "type": "string"
        },
        {
          "internalType": "string",
          "name": "name",
          "type": "string"
        },
        {
          "internalType": "bool",
          "name": "isExpert",
          "type": "bool"
        },
        {
          "internalType": "bool",
          "name": "isExist",
          "type": "bool"
        }
      ],
      "stateMutability": "view",
      "type": "function",
      "constant": true
    },
    {
      "inputs": [
        {
          "internalType": "address",
          "name": "_userId",
          "type": "address"
        },
        {
          "internalType": "bool",
          "name": "_isExpert",
          "type": "bool"
        },
        {
          "internalType": "string",
          "name": "_UserURI",
          "type": "string"
        },
        {
          "internalType": "string",
          "name": "_name",
          "type": "string"
        }
      ],
      "name": "creatUser",
      "outputs": [],
      "stateMutability": "nonpayable",
      "type": "function"
    },
    {
      "inputs": [
        {
          "internalType": "address",
          "name": "_userId",
          "type": "address"
        }
      ],
      "name": "ExpertSign",
      "outputs": [],
      "stateMutability": "nonpayable",
      "type": "function"
    },
    {
      "inputs": [
        {
          "internalType": "uint256",
          "name": "_tokenId",
          "type": "uint256"
        }
      ],
      "name": "getName",
      "outputs": [
        {
          "internalType": "string",
          "name": "",
          "type": "string"
        }
      ],
      "stateMutability": "view",
      "type": "function",
      "constant": true
    }
  ],
  "bytecode": "0x60c060405234801561001057600080fd5b5060016000819055503373ffffffffffffffffffffffffffffffffffffffff1660808173ffffffffffffffffffffffffffffffffffffffff1681525050600160a0818152505060805160a0516134b36100906000396000818161183a015261209d01526000818161076e01528181610e7d01526115dd01526134b36000f3fe60806040526004361061013f5760003560e01c80637749cf23116100b6578063a42291011161006f578063a422910114610456578063a87430ba14610472578063b3344c94146104b3578063bfb231d2146104dc578063ca7dd3751461051f578063e6ebe1e11461055c5761013f565b80637749cf23146103555780637bfe9efd146103805780637fd6f15c1461039c57806391264efb146103c7578063a244342814610404578063a32cc1271461042d5761013f565b806365e17c9d1161010857806365e17c9d1461021a57806368f0d401146102455780636906679b146102875780636b8ff574146102c45780636bfb0d01146103015780636dcb2eff1461032c5761013f565b80623aa4bb1461014457806307973ccf146101605780632d121be41461018b5780633a945135146101b45780635931b169146101dd575b600080fd5b61015e60048036038101906101599190612348565b610599565b005b34801561016c57600080fd5b5061017561087c565b6040516101829190612397565b60405180910390f35b34801561019757600080fd5b506101b260048036038101906101ad91906123f0565b610882565b005b3480156101c057600080fd5b506101db60048036038101906101d6919061259d565b610b45565b005b3480156101e957600080fd5b5061020460048036038101906101ff9190612646565b610cad565b6040516102119190612864565b60405180910390f35b34801561022657600080fd5b5061022f610e7b565b60405161023c91906128a7565b60405180910390f35b34801561025157600080fd5b5061026c600480360381019061026791906128c2565b610e9f565b60405161027e9695949392919061295b565b60405180910390f35b34801561029357600080fd5b506102ae60048036038101906102a991906128c2565b610fc0565b6040516102bb9190612a4c565b60405180910390f35b3480156102d057600080fd5b506102eb60048036038101906102e69190612646565b61116a565b6040516102f89190612a6e565b60405180910390f35b34801561030d57600080fd5b5061031661127a565b6040516103239190612397565b60405180910390f35b34801561033857600080fd5b50610353600480360381019061034e9190612a90565b611280565b005b34801561036157600080fd5b5061036a61140a565b6040516103779190612397565b60405180910390f35b61039a60048036038101906103959190612348565b611414565b005b3480156103a857600080fd5b506103b1611838565b6040516103be9190612397565b60405180910390f35b3480156103d357600080fd5b506103ee60048036038101906103e991906128c2565b61185c565b6040516103fb9190612abd565b60405180910390f35b34801561041057600080fd5b5061042b60048036038101906104269190612646565b6118aa565b005b34801561043957600080fd5b50610454600480360381019061044f9190612b10565b6118dc565b005b610470600480360381019061046b9190612348565b611b16565b005b34801561047e57600080fd5b5061049960048036038101906104949190612a90565b611db2565b6040516104aa959493929190612bbe565b60405180910390f35b3480156104bf57600080fd5b506104da60048036038101906104d59190612c4b565b611f32565b005b3480156104e857600080fd5b5061050360048036038101906104fe9190612646565b611ffb565b6040516105169796959493929190612cfd565b60405180910390f35b34801561052b57600080fd5b5061054660048036038101906105419190612646565b612097565b6040516105539190612397565b60405180910390f35b34801561056857600080fd5b50610583600480360381019061057e9190612646565b6120fa565b6040516105909190612e1b565b60405180910390f35b600260005414156105df576040517f08c379a00000000000000000000000000000000000000000000000000000000081526004016105d690612e89565b60405180910390fd5b600260008190555060006105f283612097565b9050600060046000858152602001908152602001600020905060008411801561061d57506001548411155b61065c576040517f08c379a000000000000000000000000000000000000000000000000000000000815260040161065390612ef5565b60405180910390fd5b8134101561069f576040517f08c379a000000000000000000000000000000000000000000000000000000000815260040161069690612f87565b60405180910390fd5b8060040160149054906101000a900460ff16156106f1576040517f08c379a00000000000000000000000000000000000000000000000000000000081526004016106e890612ff3565b60405180910390fd5b8060040160009054906101000a900473ffffffffffffffffffffffffffffffffffffffff1673ffffffffffffffffffffffffffffffffffffffff166108fc600283600301546107409190613071565b9081150290604051600060405180830381858888f1935050505015801561076b573d6000803e3d6000fd5b507f000000000000000000000000000000000000000000000000000000000000000073ffffffffffffffffffffffffffffffffffffffff166108fc600283600301546107b79190613071565b6002856107c49190613071565b6107ce91906130a2565b9081150290604051600060405180830381858888f193505050501580156107f9573d6000803e3d6000fd5b5060026000858152602001908152602001600020839080600181540180825580915050600190039060005260206000200160009091909190916101000a81548173ffffffffffffffffffffffffffffffffffffffff021916908373ffffffffffffffffffffffffffffffffffffffff160217905550505060016000819055505050565b60055481565b600260005414156108c8576040517f08c379a00000000000000000000000000000000000000000000000000000000081526004016108bf90612e89565b60405180910390fd5b600260008190555060008211156109b4578373ffffffffffffffffffffffffffffffffffffffff166323b872dd3330866040518463ffffffff1660e01b8152600401610916939291906130d6565b600060405180830381600087803b15801561093057600080fd5b505af1158015610944573d6000803e3d6000fd5b505050508073ffffffffffffffffffffffffffffffffffffffff168473ffffffffffffffffffffffffffffffffffffffff167f655a0cf9c8db81512be9a76dc1c5ae5380b8816ce6ad659cd61b715e2999d59a60015486866040516109ab9392919061310d565b60405180910390a35b600160008154809291906109c790613144565b91905055506040518060e0016040528060015481526020018573ffffffffffffffffffffffffffffffffffffffff1681526020018481526020018381526020018273ffffffffffffffffffffffffffffffffffffffff168152602001600015158152602001600015158152506004600060015481526020019081526020016000206000820151816000015560208201518160010160006101000a81548173ffffffffffffffffffffffffffffffffffffffff021916908373ffffffffffffffffffffffffffffffffffffffff160217905550604082015181600201556060820151816003015560808201518160040160006101000a81548173ffffffffffffffffffffffffffffffffffffffff021916908373ffffffffffffffffffffffffffffffffffffffff16021790555060a08201518160040160146101000a81548160ff02191690831515021790555060c08201518160040160156101000a81548160ff021916908315150217905550905050600160008190555050505050565b600360008781526020019081526020016000206040518060c001604052808881526020018781526020018681526020018573ffffffffffffffffffffffffffffffffffffffff1681526020018473ffffffffffffffffffffffffffffffffffffffff168152602001838152509080600181540180825580915050600190039060005260206000209060060201600090919091909150600082015181600001556020820151816001019080519060200190610c0092919061219b565b506040820151816002015560608201518160030160006101000a81548173ffffffffffffffffffffffffffffffffffffffff021916908373ffffffffffffffffffffffffffffffffffffffff16021790555060808201518160040160006101000a81548173ffffffffffffffffffffffffffffffffffffffff021916908373ffffffffffffffffffffffffffffffffffffffff16021790555060a082015181600501555050505050505050565b606060036000838152602001908152602001600020805480602002602001604051908101604052809291908181526020016000905b82821015610e7057838290600052602060002090600602016040518060c001604052908160008201548152602001600182018054610d1f906131bc565b80601f0160208091040260200160405190810160405280929190818152602001828054610d4b906131bc565b8015610d985780601f10610d6d57610100808354040283529160200191610d98565b820191906000526020600020905b815481529060010190602001808311610d7b57829003601f168201915b50505050508152602001600282015481526020016003820160009054906101000a900473ffffffffffffffffffffffffffffffffffffffff1673ffffffffffffffffffffffffffffffffffffffff1673ffffffffffffffffffffffffffffffffffffffff1681526020016004820160009054906101000a900473ffffffffffffffffffffffffffffffffffffffff1673ffffffffffffffffffffffffffffffffffffffff1673ffffffffffffffffffffffffffffffffffffffff16815260200160058201548152505081526020019060010190610ce2565b505050509050919050565b7f000000000000000000000000000000000000000000000000000000000000000081565b60036020528160005260406000208181548110610ebb57600080fd5b906000526020600020906006020160009150915050806000015490806001018054610ee5906131bc565b80601f0160208091040260200160405190810160405280929190818152602001828054610f11906131bc565b8015610f5e5780601f10610f3357610100808354040283529160200191610f5e565b820191906000526020600020905b815481529060010190602001808311610f4157829003601f168201915b5050505050908060020154908060030160009054906101000a900473ffffffffffffffffffffffffffffffffffffffff16908060040160009054906101000a900473ffffffffffffffffffffffffffffffffffffffff16908060050154905086565b610fc8612221565b600360008481526020019081526020016000208281548110610fed57610fec6131ee565b5b90600052602060002090600602016040518060c001604052908160008201548152602001600182018054611020906131bc565b80601f016020809104026020016040519081016040528092919081815260200182805461104c906131bc565b80156110995780601f1061106e57610100808354040283529160200191611099565b820191906000526020600020905b81548152906001019060200180831161107c57829003601f168201915b50505050508152602001600282015481526020016003820160009054906101000a900473ffffffffffffffffffffffffffffffffffffffff1673ffffffffffffffffffffffffffffffffffffffff1673ffffffffffffffffffffffffffffffffffffffff1681526020016004820160009054906101000a900473ffffffffffffffffffffffffffffffffffffffff1673ffffffffffffffffffffffffffffffffffffffff1673ffffffffffffffffffffffffffffffffffffffff168152602001600582015481525050905092915050565b606060006004600084815260200190815260200160002060040160009054906101000a900473ffffffffffffffffffffffffffffffffffffffff169050600660008273ffffffffffffffffffffffffffffffffffffffff1673ffffffffffffffffffffffffffffffffffffffff16815260200190815260200160002060020180546111f4906131bc565b80601f0160208091040260200160405190810160405280929190818152602001828054611220906131bc565b801561126d5780601f106112425761010080835404028352916020019161126d565b820191906000526020600020905b81548152906001019060200180831161125057829003601f168201915b5050505050915050919050565b60015481565b60011515600660008373ffffffffffffffffffffffffffffffffffffffff1673ffffffffffffffffffffffffffffffffffffffff16815260200190815260200160002060030160019054906101000a900460ff16151514611316576040517f08c379a000000000000000000000000000000000000000000000000000000000815260040161130d90613269565b60405180910390fd5b60001515600660008373ffffffffffffffffffffffffffffffffffffffff1673ffffffffffffffffffffffffffffffffffffffff16815260200190815260200160002060030160009054906101000a900460ff161515146113ac576040517f08c379a00000000000000000000000000000000000000000000000000000000081526004016113a3906132d5565b60405180910390fd5b6001600660008373ffffffffffffffffffffffffffffffffffffffff1673ffffffffffffffffffffffffffffffffffffffff16815260200190815260200160002060030160006101000a81548160ff02191690831515021790555050565b6000600154905090565b6002600054141561145a576040517f08c379a000000000000000000000000000000000000000000000000000000000815260040161145190612e89565b60405180910390fd5b6002600081905550600061146d83612097565b9050600060046000858152602001908152602001600020905060008411801561149857506001548411155b6114d7576040517f08c379a00000000000000000000000000000000000000000000000000000000081526004016114ce90612ef5565b60405180910390fd5b8134101561151a576040517f08c379a000000000000000000000000000000000000000000000000000000000815260040161151190612f87565b60405180910390fd5b8060040160149054906101000a900460ff161561156c576040517f08c379a000000000000000000000000000000000000000000000000000000000815260040161156390612ff3565b60405180910390fd5b8060040160009054906101000a900473ffffffffffffffffffffffffffffffffffffffff1673ffffffffffffffffffffffffffffffffffffffff166108fc82600301549081150290604051600060405180830381858888f193505050501580156115da573d6000803e3d6000fd5b507f000000000000000000000000000000000000000000000000000000000000000073ffffffffffffffffffffffffffffffffffffffff166108fc82600301548461162591906130a2565b9081150290604051600060405180830381858888f19350505050158015611650573d6000803e3d6000fd5b5060018160040160146101000a81548160ff0219169083151502179055508060010160009054906101000a900473ffffffffffffffffffffffffffffffffffffffff1673ffffffffffffffffffffffffffffffffffffffff166323b872dd303384600201546040518463ffffffff1660e01b81526004016116d3939291906130d6565b600060405180830381600087803b1580156116ed57600080fd5b505af1158015611701573d6000803e3d6000fd5b505050508273ffffffffffffffffffffffffffffffffffffffff168160040160009054906101000a900473ffffffffffffffffffffffffffffffffffffffff1673ffffffffffffffffffffffffffffffffffffffff168260010160009054906101000a900473ffffffffffffffffffffffffffffffffffffffff1673ffffffffffffffffffffffffffffffffffffffff167f8b4c9c8a607d67b321582dd8461041b1dc2ceeca70c8b7f37f8e02095cf2e76d87856002015486600301546040516117cd9392919061310d565b60405180910390a4826004600086815260200190815260200160002060040160006101000a81548173ffffffffffffffffffffffffffffffffffffffff021916908373ffffffffffffffffffffffffffffffffffffffff160217905550505060016000819055505050565b7f000000000000000000000000000000000000000000000000000000000000000081565b6002602052816000526040600020818154811061187857600080fd5b906000526020600020016000915091509054906101000a900473ffffffffffffffffffffffffffffffffffffffff1681565b60016004600083815260200190815260200160002060040160156101000a81548160ff02191690831515021790555050565b60001515600660008673ffffffffffffffffffffffffffffffffffffffff1673ffffffffffffffffffffffffffffffffffffffff16815260200190815260200160002060030160019054906101000a900460ff16151514611972576040517f08c379a000000000000000000000000000000000000000000000000000000000815260040161196990613341565b60405180910390fd5b6005600081548092919061198590613144565b91905055506040518060a001604052808573ffffffffffffffffffffffffffffffffffffffff16815260200183815260200182815260200160001515815260200160011515815250600660008673ffffffffffffffffffffffffffffffffffffffff1673ffffffffffffffffffffffffffffffffffffffff16815260200190815260200160002060008201518160000160006101000a81548173ffffffffffffffffffffffffffffffffffffffff021916908373ffffffffffffffffffffffffffffffffffffffff1602179055506020820151816001019080519060200190611a6f92919061219b565b506040820151816002019080519060200190611a8c92919061219b565b5060608201518160030160006101000a81548160ff02191690831515021790555060808201518160030160016101000a81548160ff0219169083151502179055509050507f80d60f685a6f19026b2f189b4731b00cf604f29ea2f42a11c46f769cb9a0197e848383866001604051611b08959493929190612bbe565b60405180910390a150505050565b60026000541415611b5c576040517f08c379a0000000000000000000000000000000000000000000000000000000008152600401611b5390612e89565b60405180910390fd5b60026000819055506000600460008481526020019081526020016000209050600083118015611b8d57506001548311155b611bcc576040517f08c379a0000000000000000000000000000000000000000000000000000000008152600401611bc390612ef5565b60405180910390fd5b60018160040160146101000a81548160ff0219169083151502179055508060010160009054906101000a900473ffffffffffffffffffffffffffffffffffffffff1673ffffffffffffffffffffffffffffffffffffffff166323b872dd338484600201546040518463ffffffff1660e01b8152600401611c4e939291906130d6565b600060405180830381600087803b158015611c6857600080fd5b505af1158015611c7c573d6000803e3d6000fd5b505050508173ffffffffffffffffffffffffffffffffffffffff168160040160009054906101000a900473ffffffffffffffffffffffffffffffffffffffff1673ffffffffffffffffffffffffffffffffffffffff168260010160009054906101000a900473ffffffffffffffffffffffffffffffffffffffff1673ffffffffffffffffffffffffffffffffffffffff167f8b4c9c8a607d67b321582dd8461041b1dc2ceeca70c8b7f37f8e02095cf2e76d8685600201548660030154604051611d489392919061310d565b60405180910390a4816004600085815260200190815260200160002060040160006101000a81548173ffffffffffffffffffffffffffffffffffffffff021916908373ffffffffffffffffffffffffffffffffffffffff1602179055505060016000819055505050565b60066020528060005260406000206000915090508060000160009054906101000a900473ffffffffffffffffffffffffffffffffffffffff1690806001018054611dfb906131bc565b80601f0160208091040260200160405190810160405280929190818152602001828054611e27906131bc565b8015611e745780601f10611e4957610100808354040283529160200191611e74565b820191906000526020600020905b815481529060010190602001808311611e5757829003601f168201915b505050505090806002018054611e89906131bc565b80601f0160208091040260200160405190810160405280929190818152602001828054611eb5906131bc565b8015611f025780601f10611ed757610100808354040283529160200191611f02565b820191906000526020600020905b815481529060010190602001808311611ee557829003601f168201915b5050505050908060030160009054906101000a900460ff16908060030160019054906101000a900460ff16905085565b60008211611f75576040517f08c379a0000000000000000000000000000000000000000000000000000000008152600401611f6c906133ad565b60405180910390fd5b6000600460008581526020019081526020016000209050818160040160006101000a81548173ffffffffffffffffffffffffffffffffffffffff021916908373ffffffffffffffffffffffffffffffffffffffff16021790555060008160040160146101000a81548160ff02191690831515021790555082816003018190555050505050565b60046020528060005260406000206000915090508060000154908060010160009054906101000a900473ffffffffffffffffffffffffffffffffffffffff16908060020154908060030154908060040160009054906101000a900473ffffffffffffffffffffffffffffffffffffffff16908060040160149054906101000a900460ff16908060040160159054906101000a900460ff16905087565b600060647f000000000000000000000000000000000000000000000000000000000000000060646120c891906133cd565b60046000858152602001908152602001600020600301546120e99190613423565b6120f39190613071565b9050919050565b60606002600083815260200190815260200160002080548060200260200160405190810160405280929190818152602001828054801561218f57602002820191906000526020600020905b8160009054906101000a900473ffffffffffffffffffffffffffffffffffffffff1673ffffffffffffffffffffffffffffffffffffffff1681526020019060010190808311612145575b50505050509050919050565b8280546121a7906131bc565b90600052602060002090601f0160209004810192826121c95760008555612210565b82601f106121e257805160ff1916838001178555612210565b82800160010185558215612210579182015b8281111561220f5782518255916020019190600101906121f4565b5b50905061221d9190612283565b5090565b6040518060c00160405280600081526020016060815260200160008152602001600073ffffffffffffffffffffffffffffffffffffffff168152602001600073ffffffffffffffffffffffffffffffffffffffff168152602001600081525090565b5b8082111561229c576000816000905550600101612284565b5090565b6000604051905090565b600080fd5b600080fd5b6000819050919050565b6122c7816122b4565b81146122d257600080fd5b50565b6000813590506122e4816122be565b92915050565b600073ffffffffffffffffffffffffffffffffffffffff82169050919050565b6000612315826122ea565b9050919050565b6123258161230a565b811461233057600080fd5b50565b6000813590506123428161231c565b92915050565b6000806040838503121561235f5761235e6122aa565b5b600061236d858286016122d5565b925050602061237e85828601612333565b9150509250929050565b612391816122b4565b82525050565b60006020820190506123ac6000830184612388565b92915050565b60006123bd8261230a565b9050919050565b6123cd816123b2565b81146123d857600080fd5b50565b6000813590506123ea816123c4565b92915050565b6000806000806080858703121561240a576124096122aa565b5b6000612418878288016123db565b9450506020612429878288016122d5565b935050604061243a878288016122d5565b925050606061244b87828801612333565b91505092959194509250565b600080fd5b600080fd5b6000601f19601f8301169050919050565b7f4e487b7100000000000000000000000000000000000000000000000000000000600052604160045260246000fd5b6124aa82612461565b810181811067ffffffffffffffff821117156124c9576124c8612472565b5b80604052505050565b60006124dc6122a0565b90506124e882826124a1565b919050565b600067ffffffffffffffff82111561250857612507612472565b5b61251182612461565b9050602081019050919050565b82818337600083830152505050565b600061254061253b846124ed565b6124d2565b90508281526020810184848401111561255c5761255b61245c565b5b61256784828561251e565b509392505050565b600082601f83011261258457612583612457565b5b813561259484826020860161252d565b91505092915050565b60008060008060008060c087890312156125ba576125b96122aa565b5b60006125c889828a016122d5565b965050602087013567ffffffffffffffff8111156125e9576125e86122af565b5b6125f589828a0161256f565b955050604061260689828a016122d5565b945050606061261789828a01612333565b935050608061262889828a01612333565b92505060a061263989828a016122d5565b9150509295509295509295565b60006020828403121561265c5761265b6122aa565b5b600061266a848285016122d5565b91505092915050565b600081519050919050565b600082825260208201905092915050565b6000819050602082019050919050565b6126a8816122b4565b82525050565b600081519050919050565b600082825260208201905092915050565b60005b838110156126e85780820151818401526020810190506126cd565b838111156126f7576000848401525b50505050565b6000612708826126ae565b61271281856126b9565b93506127228185602086016126ca565b61272b81612461565b840191505092915050565b61273f8161230a565b82525050565b600060c08301600083015161275d600086018261269f565b506020830151848203602086015261277582826126fd565b915050604083015161278a604086018261269f565b50606083015161279d6060860182612736565b5060808301516127b06080860182612736565b5060a08301516127c360a086018261269f565b508091505092915050565b60006127da8383612745565b905092915050565b6000602082019050919050565b60006127fa82612673565b612804818561267e565b9350836020820285016128168561268f565b8060005b85811015612852578484038952815161283385826127ce565b945061283e836127e2565b925060208a0199505060018101905061281a565b50829750879550505050505092915050565b6000602082019050818103600083015261287e81846127ef565b905092915050565b6000612891826122ea565b9050919050565b6128a181612886565b82525050565b60006020820190506128bc6000830184612898565b92915050565b600080604083850312156128d9576128d86122aa565b5b60006128e7858286016122d5565b92505060206128f8858286016122d5565b9150509250929050565b600082825260208201905092915050565b600061291e826126ae565b6129288185612902565b93506129388185602086016126ca565b61294181612461565b840191505092915050565b6129558161230a565b82525050565b600060c0820190506129706000830189612388565b81810360208301526129828188612913565b90506129916040830187612388565b61299e606083018661294c565b6129ab608083018561294c565b6129b860a0830184612388565b979650505050505050565b600060c0830160008301516129db600086018261269f565b50602083015184820360208601526129f382826126fd565b9150506040830151612a08604086018261269f565b506060830151612a1b6060860182612736565b506080830151612a2e6080860182612736565b5060a0830151612a4160a086018261269f565b508091505092915050565b60006020820190508181036000830152612a6681846129c3565b905092915050565b60006020820190508181036000830152612a888184612913565b905092915050565b600060208284031215612aa657612aa56122aa565b5b6000612ab484828501612333565b91505092915050565b6000602082019050612ad2600083018461294c565b92915050565b60008115159050919050565b612aed81612ad8565b8114612af857600080fd5b50565b600081359050612b0a81612ae4565b92915050565b60008060008060808587031215612b2a57612b296122aa565b5b6000612b3887828801612333565b9450506020612b4987828801612afb565b935050604085013567ffffffffffffffff811115612b6a57612b696122af565b5b612b768782880161256f565b925050606085013567ffffffffffffffff811115612b9757612b966122af565b5b612ba38782880161256f565b91505092959194509250565b612bb881612ad8565b82525050565b600060a082019050612bd3600083018861294c565b8181036020830152612be58187612913565b90508181036040830152612bf98186612913565b9050612c086060830185612baf565b612c156080830184612baf565b9695505050505050565b612c2881612886565b8114612c3357600080fd5b50565b600081359050612c4581612c1f565b92915050565b600080600060608486031215612c6457612c636122aa565b5b6000612c72868287016122d5565b9350506020612c83868287016122d5565b9250506040612c9486828701612c36565b9150509250925092565b6000819050919050565b6000612cc3612cbe612cb9846122ea565b612c9e565b6122ea565b9050919050565b6000612cd582612ca8565b9050919050565b6000612ce782612cca565b9050919050565b612cf781612cdc565b82525050565b600060e082019050612d12600083018a612388565b612d1f6020830189612cee565b612d2c6040830188612388565b612d396060830187612388565b612d466080830186612898565b612d5360a0830185612baf565b612d6060c0830184612baf565b98975050505050505050565b600081519050919050565b600082825260208201905092915050565b6000819050602082019050919050565b6000612da48383612736565b60208301905092915050565b6000602082019050919050565b6000612dc882612d6c565b612dd28185612d77565b9350612ddd83612d88565b8060005b83811015612e0e578151612df58882612d98565b9750612e0083612db0565b925050600181019050612de1565b5085935050505092915050565b60006020820190508181036000830152612e358184612dbd565b905092915050565b7f5265656e7472616e637947756172643a207265656e7472616e742063616c6c00600082015250565b6000612e73601f83612902565b9150612e7e82612e3d565b602082019050919050565b60006020820190508181036000830152612ea281612e66565b9050919050565b7f6974656d20646f65736e27742065786973740000000000000000000000000000600082015250565b6000612edf601283612902565b9150612eea82612ea9565b602082019050919050565b60006020820190508181036000830152612f0e81612ed2565b9050919050565b7f6e6f7420656e6f75676820657468657220746f20636f766572206974656d207060008201527f7269636520616e64206d61726b65742066656500000000000000000000000000602082015250565b6000612f71603383612902565b9150612f7c82612f15565b604082019050919050565b60006020820190508181036000830152612fa081612f64565b9050919050565b7f6974656d20616c726561647920736f6c64000000000000000000000000000000600082015250565b6000612fdd601183612902565b9150612fe882612fa7565b602082019050919050565b6000602082019050818103600083015261300c81612fd0565b9050919050565b7f4e487b7100000000000000000000000000000000000000000000000000000000600052601260045260246000fd5b7f4e487b7100000000000000000000000000000000000000000000000000000000600052601160045260246000fd5b600061307c826122b4565b9150613087836122b4565b92508261309757613096613013565b5b828204905092915050565b60006130ad826122b4565b91506130b8836122b4565b9250828210156130cb576130ca613042565b5b828203905092915050565b60006060820190506130eb600083018661294c565b6130f8602083018561294c565b6131056040830184612388565b949350505050565b60006060820190506131226000830186612388565b61312f6020830185612388565b61313c6040830184612388565b949350505050565b600061314f826122b4565b91507fffffffffffffffffffffffffffffffffffffffffffffffffffffffffffffffff82141561318257613181613042565b5b600182019050919050565b7f4e487b7100000000000000000000000000000000000000000000000000000000600052602260045260246000fd5b600060028204905060018216806131d457607f821691505b602082108114156131e8576131e761318d565b5b50919050565b7f4e487b7100000000000000000000000000000000000000000000000000000000600052603260045260246000fd5b7f596f7520686176656e27742073696e6775702079657400000000000000000000600082015250565b6000613253601683612902565b915061325e8261321d565b602082019050919050565b6000602082019050818103600083015261328281613246565b9050919050565b7f596f752068617320616c726561647920616e2065787065727400000000000000600082015250565b60006132bf601983612902565b91506132ca82613289565b602082019050919050565b600060208201905081810360008301526132ee816132b2565b9050919050565b7f5468697320757365722068617320616c7265616479207369676e656400000000600082015250565b600061332b601c83612902565b9150613336826132f5565b602082019050919050565b6000602082019050818103600083015261335a8161331e565b9050919050565b7f5072696365206d75737420626520686967686572207468616e20300000000000600082015250565b6000613397601b83612902565b91506133a282613361565b602082019050919050565b600060208201905081810360008301526133c68161338a565b9050919050565b60006133d8826122b4565b91506133e3836122b4565b9250827fffffffffffffffffffffffffffffffffffffffffffffffffffffffffffffffff0382111561341857613417613042565b5b828201905092915050565b600061342e826122b4565b9150613439836122b4565b9250817fffffffffffffffffffffffffffffffffffffffffffffffffffffffffffffffff048311821515161561347257613471613042565b5b82820290509291505056fea264697066735822122094301597cd3a4d7ca509c1b4475f36a4823d00076d4c910ea4e4e4c88806ad2764736f6c634300080b0033",
  "immutableReferences": {
    "2462": [
      {
        "length": 32,
        "start": 1902
      },
      {
        "length": 32,
        "start": 3709
      },
      {
        "length": 32,
        "start": 5597
      }
    ],
    "2464": [
      {
        "length": 32,
        "start": 6202
      },
      {
        "length": 32,
        "start": 8349
      }
    ]
  },
  "source": "// SPDX-License-Identifier: MIT\r\npragma solidity ^0.8.0;\r\n\r\nimport \"./Marketplace.sol\";\r\n\r\ncontract UserRegister is Marketplace{\r\n    //bin m userid\r\n    uint256 public userCount;\r\n\r\n    //to user\r\n    struct User {\r\n        address UserId;\r\n        string UserURI;\r\n        string name;\r\n        bool isExpert;\r\n        bool isExist;\r\n    }\r\n\r\n    //mng cha cc user\r\n    mapping(address => User) public users;\r\n\r\n    event Signed(address owner, string UserURI,string name, bool isExpert, bool isExist);\r\n\r\n    function creatUser(\r\n        address _userId,\r\n        bool _isExpert,\r\n        string memory _UserURI,  \r\n        string memory _name\r\n    ) external {\r\n        //kim tra xem user  tn ti cha ny\r\n        require(\r\n            users[_userId].isExist == false,\r\n            \"This user has already signed\"\r\n        );\r\n\r\n        //mi ln create th tng userCount ln 1\r\n        userCount++;\r\n\r\n        //mc nh lun cha l chuyn gia\r\n        users[_userId] = User(_userId, _UserURI, _name, false, true);\r\n\r\n        emit Signed(_userId, _UserURI,_name, _isExpert, true);\r\n    }\r\n\r\n    function ExpertSign(address _userId) external {\r\n        //kim tra xem user  tn ti hay cha v l chuyn gia cha\r\n        require(users[_userId].isExist == true, \"You haven't singup yet\");\r\n        require(users[_userId].isExpert == false, \"You has already an expert\");\r\n\r\n        //thay i thnh chuyn gia\r\n        users[_userId].isExpert = true;\r\n    }\r\n\r\n    function getName(uint _tokenId) view external returns (string memory){\r\n        address _seller = items[_tokenId].seller;\r\n        return (users[_seller].name);\r\n    }\r\n}\r\n",
  "sourcePath": "E:\\Code\\React\\marketplace\\src\\contracts\\UserRegister.sol",
  "compiler": {
    "name": "solc",
    "version": "0.8.11+commit.d7f03943.Emscripten.clang"
  },
  "schemaVersion": "3.4.7",
  "updatedAt": "2022-11-08T12:56:21.558Z",
  "networkType": "ethereum",
  "devdoc": {
    "kind": "dev",
    "methods": {},
    "version": 1
  },
  "userdoc": {
    "kind": "user",
    "methods": {},
    "version": 1
  }
}