{
  "contractName": "UserRegister",
  "abi": [
    {
      "anonymous": false,
      "inputs": [
        {
          "indexed": false,
          "internalType": "uint256",
          "name": "itemId",
          "type": "uint256"
        },
        {
          "indexed": true,
          "internalType": "address",
          "name": "nft",
          "type": "address"
        },
        {
          "indexed": false,
          "internalType": "uint256",
          "name": "tokenId",
          "type": "uint256"
        },
        {
          "indexed": false,
          "internalType": "uint256",
          "name": "price",
          "type": "uint256"
        },
        {
          "indexed": true,
          "internalType": "address",
          "name": "seller",
          "type": "address"
        },
        {
          "indexed": true,
          "internalType": "address",
          "name": "buyer",
          "type": "address"
        }
      ],
      "name": "Bought",
      "type": "event"
    },
    {
      "anonymous": false,
      "inputs": [
        {
          "indexed": false,
          "internalType": "uint256",
          "name": "itemId",
          "type": "uint256"
        },
        {
          "indexed": true,
          "internalType": "address",
          "name": "nft",
          "type": "address"
        },
        {
          "indexed": false,
          "internalType": "uint256",
          "name": "tokenId",
          "type": "uint256"
        },
        {
          "indexed": false,
          "internalType": "uint256",
          "name": "price",
          "type": "uint256"
        },
        {
          "indexed": true,
          "internalType": "address",
          "name": "seller",
          "type": "address"
        }
      ],
      "name": "Offered",
      "type": "event"
    },
    {
      "anonymous": false,
      "inputs": [
        {
          "indexed": false,
          "internalType": "address",
          "name": "owner",
          "type": "address"
        },
        {
          "indexed": false,
          "internalType": "string",
          "name": "UserURI",
          "type": "string"
        },
        {
          "indexed": false,
          "internalType": "string",
          "name": "name",
          "type": "string"
        },
        {
          "indexed": false,
          "internalType": "bool",
          "name": "isExpert",
          "type": "bool"
        },
        {
          "indexed": false,
          "internalType": "bool",
          "name": "isExist",
          "type": "bool"
        }
      ],
      "name": "Signed",
      "type": "event"
    },
    {
      "inputs": [
        {
          "internalType": "uint256",
          "name": "_itemId",
          "type": "uint256"
        }
      ],
      "name": "Checked",
      "outputs": [],
      "stateMutability": "nonpayable",
      "type": "function"
    },
    {
      "inputs": [
        {
          "internalType": "uint256",
          "name": "_itemId",
          "type": "uint256"
        },
        {
          "internalType": "string",
          "name": "_eventName",
          "type": "string"
        },
        {
          "internalType": "uint256",
          "name": "_price",
          "type": "uint256"
        },
        {
          "internalType": "address",
          "name": "_from",
          "type": "address"
        },
        {
          "internalType": "address",
          "name": "_to",
          "type": "address"
        },
        {
          "internalType": "uint256",
          "name": "_time",
          "type": "uint256"
        }
      ],
      "name": "addHistory",
      "outputs": [],
      "stateMutability": "nonpayable",
      "type": "function"
    },
    {
      "inputs": [],
      "name": "feeAccount",
      "outputs": [
        {
          "internalType": "address payable",
          "name": "",
          "type": "address"
        }
      ],
      "stateMutability": "view",
      "type": "function",
      "constant": true
    },
    {
      "inputs": [],
      "name": "feePercent",
      "outputs": [
        {
          "internalType": "uint256",
          "name": "",
          "type": "uint256"
        }
      ],
      "stateMutability": "view",
      "type": "function",
      "constant": true
    },
    {
      "inputs": [],
      "name": "getItemCount",
      "outputs": [
        {
          "internalType": "uint256",
          "name": "",
          "type": "uint256"
        }
      ],
      "stateMutability": "view",
      "type": "function",
      "constant": true
    },
    {
      "inputs": [
        {
          "internalType": "uint256",
          "name": "_itemId",
          "type": "uint256"
        }
      ],
      "name": "getTotalPrice",
      "outputs": [
        {
          "internalType": "uint256",
          "name": "",
          "type": "uint256"
        }
      ],
      "stateMutability": "view",
      "type": "function",
      "constant": true
    },
    {
      "inputs": [],
      "name": "itemCount",
      "outputs": [
        {
          "internalType": "uint256",
          "name": "",
          "type": "uint256"
        }
      ],
      "stateMutability": "view",
      "type": "function",
      "constant": true
    },
    {
      "inputs": [
        {
          "internalType": "uint256",
          "name": "",
          "type": "uint256"
        },
        {
          "internalType": "uint256",
          "name": "",
          "type": "uint256"
        }
      ],
      "name": "itemTracks",
      "outputs": [
        {
          "internalType": "uint256",
          "name": "itemId",
          "type": "uint256"
        },
        {
          "internalType": "string",
          "name": "eventName",
          "type": "string"
        },
        {
          "internalType": "uint256",
          "name": "price",
          "type": "uint256"
        },
        {
          "internalType": "address",
          "name": "from",
          "type": "address"
        },
        {
          "internalType": "address",
          "name": "to",
          "type": "address"
        },
        {
          "internalType": "uint256",
          "name": "time",
          "type": "uint256"
        }
      ],
      "stateMutability": "view",
      "type": "function",
      "constant": true
    },
    {
      "inputs": [
        {
          "internalType": "uint256",
          "name": "",
          "type": "uint256"
        }
      ],
      "name": "items",
      "outputs": [
        {
          "internalType": "uint256",
          "name": "itemId",
          "type": "uint256"
        },
        {
          "internalType": "contract IERC721",
          "name": "nft",
          "type": "address"
        },
        {
          "internalType": "uint256",
          "name": "tokenId",
          "type": "uint256"
        },
        {
          "internalType": "uint256",
          "name": "price",
          "type": "uint256"
        },
        {
          "internalType": "address payable",
          "name": "seller",
          "type": "address"
        },
        {
          "internalType": "bool",
          "name": "sold",
          "type": "bool"
        },
        {
          "internalType": "bool",
          "name": "check",
          "type": "bool"
        }
      ],
      "stateMutability": "view",
      "type": "function",
      "constant": true
    },
    {
      "inputs": [
        {
          "internalType": "contract IERC721",
          "name": "_nft",
          "type": "address"
        },
        {
          "internalType": "uint256",
          "name": "_tokenId",
          "type": "uint256"
        },
        {
          "internalType": "uint256",
          "name": "_price",
          "type": "uint256"
        },
        {
          "internalType": "address",
          "name": "_seller",
          "type": "address"
        }
      ],
      "name": "makeItem",
      "outputs": [],
      "stateMutability": "nonpayable",
      "type": "function"
    },
    {
      "inputs": [
        {
          "internalType": "uint256",
          "name": "_itemId",
          "type": "uint256"
        },
        {
          "internalType": "address",
          "name": "_buyer",
          "type": "address"
        }
      ],
      "name": "purchaseItem",
      "outputs": [],
      "stateMutability": "payable",
      "type": "function",
      "payable": true
    },
    {
      "inputs": [],
      "name": "userCount",
      "outputs": [
        {
          "internalType": "uint256",
          "name": "",
          "type": "uint256"
        }
      ],
      "stateMutability": "view",
      "type": "function",
      "constant": true
    },
    {
      "inputs": [
        {
          "internalType": "address",
          "name": "",
          "type": "address"
        }
      ],
      "name": "users",
      "outputs": [
        {
          "internalType": "address",
          "name": "UserId",
          "type": "address"
        },
        {
          "internalType": "string",
          "name": "UserURI",
          "type": "string"
        },
        {
          "internalType": "string",
          "name": "name",
          "type": "string"
        },
        {
          "internalType": "bool",
          "name": "isExpert",
          "type": "bool"
        },
        {
          "internalType": "bool",
          "name": "isExist",
          "type": "bool"
        }
      ],
      "stateMutability": "view",
      "type": "function",
      "constant": true
    },
    {
      "inputs": [
        {
          "internalType": "address",
          "name": "_userId",
          "type": "address"
        },
        {
          "internalType": "bool",
          "name": "_isExpert",
          "type": "bool"
        },
        {
          "internalType": "string",
          "name": "_UserURI",
          "type": "string"
        },
        {
          "internalType": "string",
          "name": "_name",
          "type": "string"
        }
      ],
      "name": "creatUser",
      "outputs": [],
      "stateMutability": "nonpayable",
      "type": "function"
    },
    {
      "inputs": [
        {
          "internalType": "address",
          "name": "_userId",
          "type": "address"
        }
      ],
      "name": "ExpertSign",
      "outputs": [],
      "stateMutability": "nonpayable",
      "type": "function"
    },
    {
      "inputs": [
        {
          "internalType": "uint256",
          "name": "_tokenId",
          "type": "uint256"
        }
      ],
      "name": "getName",
      "outputs": [
        {
          "internalType": "string",
          "name": "",
          "type": "string"
        }
      ],
      "stateMutability": "view",
      "type": "function",
      "constant": true
    }
  ],
  "bytecode": "0x60c060405234801561001057600080fd5b5060016000819055503373ffffffffffffffffffffffffffffffffffffffff1660808173ffffffffffffffffffffffffffffffffffffffff1681525050600160a0818152505060805160a05161237b6100896000396000818161103e01526114ee01526000818161082b0152610de1015261237b6000f3fe6080604052600436106100f35760003560e01c80637749cf231161008a578063a32cc12711610059578063a32cc1271461030e578063a87430ba14610337578063bfb231d214610378578063ca7dd375146103bb576100f3565b80637749cf23146102735780637bfe9efd1461029e5780637fd6f15c146102ba578063a2443428146102e5576100f3565b806368f0d401116100c657806368f0d401146101a05780636b8ff574146101e25780636bfb0d011461021f5780636dcb2eff1461024a576100f3565b806307973ccf146100f85780632d121be4146101235780633a9451351461014c57806365e17c9d14610175575b600080fd5b34801561010457600080fd5b5061010d6103f8565b60405161011a9190611607565b60405180910390f35b34801561012f57600080fd5b5061014a600480360381019061014591906116fe565b6103fe565b005b34801561015857600080fd5b50610173600480360381019061016e91906118ab565b6106c1565b005b34801561018157600080fd5b5061018a610829565b6040516101979190611975565b60405180910390f35b3480156101ac57600080fd5b506101c760048036038101906101c29190611990565b61084d565b6040516101d996959493929190611a67565b60405180910390f35b3480156101ee57600080fd5b5061020960048036038101906102049190611acf565b61096e565b6040516102169190611afc565b60405180910390f35b34801561022b57600080fd5b50610234610a7e565b6040516102419190611607565b60405180910390f35b34801561025657600080fd5b50610271600480360381019061026c9190611b1e565b610a84565b005b34801561027f57600080fd5b50610288610c0e565b6040516102959190611607565b60405180910390f35b6102b860048036038101906102b39190611b4b565b610c18565b005b3480156102c657600080fd5b506102cf61103c565b6040516102dc9190611607565b60405180910390f35b3480156102f157600080fd5b5061030c60048036038101906103079190611acf565b611060565b005b34801561031a57600080fd5b5061033560048036038101906103309190611bc3565b611092565b005b34801561034357600080fd5b5061035e60048036038101906103599190611b1e565b6112cc565b60405161036f959493929190611c71565b60405180910390f35b34801561038457600080fd5b5061039f600480360381019061039a9190611acf565b61144c565b6040516103b29796959493929190611d31565b60405180910390f35b3480156103c757600080fd5b506103e260048036038101906103dd9190611acf565b6114e8565b6040516103ef9190611607565b60405180910390f35b60045481565b60026000541415610444576040517f08c379a000000000000000000000000000000000000000000000000000000000815260040161043b90611dec565b60405180910390fd5b60026000819055506000821115610530578373ffffffffffffffffffffffffffffffffffffffff166323b872dd3330866040518463ffffffff1660e01b815260040161049293929190611e0c565b600060405180830381600087803b1580156104ac57600080fd5b505af11580156104c0573d6000803e3d6000fd5b505050508073ffffffffffffffffffffffffffffffffffffffff168473ffffffffffffffffffffffffffffffffffffffff167f655a0cf9c8db81512be9a76dc1c5ae5380b8816ce6ad659cd61b715e2999d59a600154868660405161052793929190611e43565b60405180910390a35b6001600081548092919061054390611ea9565b91905055506040518060e0016040528060015481526020018573ffffffffffffffffffffffffffffffffffffffff1681526020018481526020018381526020018273ffffffffffffffffffffffffffffffffffffffff168152602001600015158152602001600015158152506003600060015481526020019081526020016000206000820151816000015560208201518160010160006101000a81548173ffffffffffffffffffffffffffffffffffffffff021916908373ffffffffffffffffffffffffffffffffffffffff160217905550604082015181600201556060820151816003015560808201518160040160006101000a81548173ffffffffffffffffffffffffffffffffffffffff021916908373ffffffffffffffffffffffffffffffffffffffff16021790555060a08201518160040160146101000a81548160ff02191690831515021790555060c08201518160040160156101000a81548160ff021916908315150217905550905050600160008190555050505050565b600260008781526020019081526020016000206040518060c001604052808881526020018781526020018681526020018573ffffffffffffffffffffffffffffffffffffffff1681526020018473ffffffffffffffffffffffffffffffffffffffff16815260200183815250908060018154018082558091505060019003906000526020600020906006020160009091909190915060008201518160000155602082015181600101908051906020019061077c92919061154b565b506040820151816002015560608201518160030160006101000a81548173ffffffffffffffffffffffffffffffffffffffff021916908373ffffffffffffffffffffffffffffffffffffffff16021790555060808201518160040160006101000a81548173ffffffffffffffffffffffffffffffffffffffff021916908373ffffffffffffffffffffffffffffffffffffffff16021790555060a082015181600501555050505050505050565b7f000000000000000000000000000000000000000000000000000000000000000081565b6002602052816000526040600020818154811061086957600080fd5b90600052602060002090600602016000915091505080600001549080600101805461089390611f21565b80601f01602080910402602001604051908101604052809291908181526020018280546108bf90611f21565b801561090c5780601f106108e15761010080835404028352916020019161090c565b820191906000526020600020905b8154815290600101906020018083116108ef57829003601f168201915b5050505050908060020154908060030160009054906101000a900473ffffffffffffffffffffffffffffffffffffffff16908060040160009054906101000a900473ffffffffffffffffffffffffffffffffffffffff16908060050154905086565b606060006003600084815260200190815260200160002060040160009054906101000a900473ffffffffffffffffffffffffffffffffffffffff169050600560008273ffffffffffffffffffffffffffffffffffffffff1673ffffffffffffffffffffffffffffffffffffffff16815260200190815260200160002060020180546109f890611f21565b80601f0160208091040260200160405190810160405280929190818152602001828054610a2490611f21565b8015610a715780601f10610a4657610100808354040283529160200191610a71565b820191906000526020600020905b815481529060010190602001808311610a5457829003601f168201915b5050505050915050919050565b60015481565b60011515600560008373ffffffffffffffffffffffffffffffffffffffff1673ffffffffffffffffffffffffffffffffffffffff16815260200190815260200160002060030160019054906101000a900460ff16151514610b1a576040517f08c379a0000000000000000000000000000000000000000000000000000000008152600401610b1190611f9f565b60405180910390fd5b60001515600560008373ffffffffffffffffffffffffffffffffffffffff1673ffffffffffffffffffffffffffffffffffffffff16815260200190815260200160002060030160009054906101000a900460ff16151514610bb0576040517f08c379a0000000000000000000000000000000000000000000000000000000008152600401610ba79061200b565b60405180910390fd5b6001600560008373ffffffffffffffffffffffffffffffffffffffff1673ffffffffffffffffffffffffffffffffffffffff16815260200190815260200160002060030160006101000a81548160ff02191690831515021790555050565b6000600154905090565b60026000541415610c5e576040517f08c379a0000000000000000000000000000000000000000000000000000000008152600401610c5590611dec565b60405180910390fd5b60026000819055506000610c71836114e8565b90506000600360008581526020019081526020016000209050600084118015610c9c57506001548411155b610cdb576040517f08c379a0000000000000000000000000000000000000000000000000000000008152600401610cd290612077565b60405180910390fd5b81341015610d1e576040517f08c379a0000000000000000000000000000000000000000000000000000000008152600401610d1590612109565b60405180910390fd5b8060040160149054906101000a900460ff1615610d70576040517f08c379a0000000000000000000000000000000000000000000000000000000008152600401610d6790612175565b60405180910390fd5b8060040160009054906101000a900473ffffffffffffffffffffffffffffffffffffffff1673ffffffffffffffffffffffffffffffffffffffff166108fc82600301549081150290604051600060405180830381858888f19350505050158015610dde573d6000803e3d6000fd5b507f000000000000000000000000000000000000000000000000000000000000000073ffffffffffffffffffffffffffffffffffffffff166108fc826003015484610e299190612195565b9081150290604051600060405180830381858888f19350505050158015610e54573d6000803e3d6000fd5b5060018160040160146101000a81548160ff0219169083151502179055508060010160009054906101000a900473ffffffffffffffffffffffffffffffffffffffff1673ffffffffffffffffffffffffffffffffffffffff166323b872dd303384600201546040518463ffffffff1660e01b8152600401610ed793929190611e0c565b600060405180830381600087803b158015610ef157600080fd5b505af1158015610f05573d6000803e3d6000fd5b505050508273ffffffffffffffffffffffffffffffffffffffff168160040160009054906101000a900473ffffffffffffffffffffffffffffffffffffffff1673ffffffffffffffffffffffffffffffffffffffff168260010160009054906101000a900473ffffffffffffffffffffffffffffffffffffffff1673ffffffffffffffffffffffffffffffffffffffff167f8b4c9c8a607d67b321582dd8461041b1dc2ceeca70c8b7f37f8e02095cf2e76d8785600201548660030154604051610fd193929190611e43565b60405180910390a4826003600086815260200190815260200160002060040160006101000a81548173ffffffffffffffffffffffffffffffffffffffff021916908373ffffffffffffffffffffffffffffffffffffffff160217905550505060016000819055505050565b7f000000000000000000000000000000000000000000000000000000000000000081565b60016003600083815260200190815260200160002060040160156101000a81548160ff02191690831515021790555050565b60001515600560008673ffffffffffffffffffffffffffffffffffffffff1673ffffffffffffffffffffffffffffffffffffffff16815260200190815260200160002060030160019054906101000a900460ff16151514611128576040517f08c379a000000000000000000000000000000000000000000000000000000000815260040161111f90612215565b60405180910390fd5b6004600081548092919061113b90611ea9565b91905055506040518060a001604052808573ffffffffffffffffffffffffffffffffffffffff16815260200183815260200182815260200160001515815260200160011515815250600560008673ffffffffffffffffffffffffffffffffffffffff1673ffffffffffffffffffffffffffffffffffffffff16815260200190815260200160002060008201518160000160006101000a81548173ffffffffffffffffffffffffffffffffffffffff021916908373ffffffffffffffffffffffffffffffffffffffff160217905550602082015181600101908051906020019061122592919061154b565b50604082015181600201908051906020019061124292919061154b565b5060608201518160030160006101000a81548160ff02191690831515021790555060808201518160030160016101000a81548160ff0219169083151502179055509050507f80d60f685a6f19026b2f189b4731b00cf604f29ea2f42a11c46f769cb9a0197e8483838660016040516112be959493929190611c71565b60405180910390a150505050565b60056020528060005260406000206000915090508060000160009054906101000a900473ffffffffffffffffffffffffffffffffffffffff169080600101805461131590611f21565b80601f016020809104026020016040519081016040528092919081815260200182805461134190611f21565b801561138e5780601f106113635761010080835404028352916020019161138e565b820191906000526020600020905b81548152906001019060200180831161137157829003601f168201915b5050505050908060020180546113a390611f21565b80601f01602080910402602001604051908101604052809291908181526020018280546113cf90611f21565b801561141c5780601f106113f15761010080835404028352916020019161141c565b820191906000526020600020905b8154815290600101906020018083116113ff57829003601f168201915b5050505050908060030160009054906101000a900460ff16908060030160019054906101000a900460ff16905085565b60036020528060005260406000206000915090508060000154908060010160009054906101000a900473ffffffffffffffffffffffffffffffffffffffff16908060020154908060030154908060040160009054906101000a900473ffffffffffffffffffffffffffffffffffffffff16908060040160149054906101000a900460ff16908060040160159054906101000a900460ff16905087565b600060647f000000000000000000000000000000000000000000000000000000000000000060646115199190612235565b600360008581526020019081526020016000206003015461153a919061228b565b6115449190612314565b9050919050565b82805461155790611f21565b90600052602060002090601f01602090048101928261157957600085556115c0565b82601f1061159257805160ff19168380011785556115c0565b828001600101855582156115c0579182015b828111156115bf5782518255916020019190600101906115a4565b5b5090506115cd91906115d1565b5090565b5b808211156115ea5760008160009055506001016115d2565b5090565b6000819050919050565b611601816115ee565b82525050565b600060208201905061161c60008301846115f8565b92915050565b6000604051905090565b600080fd5b600080fd5b600073ffffffffffffffffffffffffffffffffffffffff82169050919050565b600061166182611636565b9050919050565b600061167382611656565b9050919050565b61168381611668565b811461168e57600080fd5b50565b6000813590506116a08161167a565b92915050565b6116af816115ee565b81146116ba57600080fd5b50565b6000813590506116cc816116a6565b92915050565b6116db81611656565b81146116e657600080fd5b50565b6000813590506116f8816116d2565b92915050565b600080600080608085870312156117185761171761162c565b5b600061172687828801611691565b9450506020611737878288016116bd565b9350506040611748878288016116bd565b9250506060611759878288016116e9565b91505092959194509250565b600080fd5b600080fd5b6000601f19601f8301169050919050565b7f4e487b7100000000000000000000000000000000000000000000000000000000600052604160045260246000fd5b6117b88261176f565b810181811067ffffffffffffffff821117156117d7576117d6611780565b5b80604052505050565b60006117ea611622565b90506117f682826117af565b919050565b600067ffffffffffffffff82111561181657611815611780565b5b61181f8261176f565b9050602081019050919050565b82818337600083830152505050565b600061184e611849846117fb565b6117e0565b90508281526020810184848401111561186a5761186961176a565b5b61187584828561182c565b509392505050565b600082601f83011261189257611891611765565b5b81356118a284826020860161183b565b91505092915050565b60008060008060008060c087890312156118c8576118c761162c565b5b60006118d689828a016116bd565b965050602087013567ffffffffffffffff8111156118f7576118f6611631565b5b61190389828a0161187d565b955050604061191489828a016116bd565b945050606061192589828a016116e9565b935050608061193689828a016116e9565b92505060a061194789828a016116bd565b9150509295509295509295565b600061195f82611636565b9050919050565b61196f81611954565b82525050565b600060208201905061198a6000830184611966565b92915050565b600080604083850312156119a7576119a661162c565b5b60006119b5858286016116bd565b92505060206119c6858286016116bd565b9150509250929050565b600081519050919050565b600082825260208201905092915050565b60005b83811015611a0a5780820151818401526020810190506119ef565b83811115611a19576000848401525b50505050565b6000611a2a826119d0565b611a3481856119db565b9350611a448185602086016119ec565b611a4d8161176f565b840191505092915050565b611a6181611656565b82525050565b600060c082019050611a7c60008301896115f8565b8181036020830152611a8e8188611a1f565b9050611a9d60408301876115f8565b611aaa6060830186611a58565b611ab76080830185611a58565b611ac460a08301846115f8565b979650505050505050565b600060208284031215611ae557611ae461162c565b5b6000611af3848285016116bd565b91505092915050565b60006020820190508181036000830152611b168184611a1f565b905092915050565b600060208284031215611b3457611b3361162c565b5b6000611b42848285016116e9565b91505092915050565b60008060408385031215611b6257611b6161162c565b5b6000611b70858286016116bd565b9250506020611b81858286016116e9565b9150509250929050565b60008115159050919050565b611ba081611b8b565b8114611bab57600080fd5b50565b600081359050611bbd81611b97565b92915050565b60008060008060808587031215611bdd57611bdc61162c565b5b6000611beb878288016116e9565b9450506020611bfc87828801611bae565b935050604085013567ffffffffffffffff811115611c1d57611c1c611631565b5b611c298782880161187d565b925050606085013567ffffffffffffffff811115611c4a57611c49611631565b5b611c568782880161187d565b91505092959194509250565b611c6b81611b8b565b82525050565b600060a082019050611c866000830188611a58565b8181036020830152611c988187611a1f565b90508181036040830152611cac8186611a1f565b9050611cbb6060830185611c62565b611cc86080830184611c62565b9695505050505050565b6000819050919050565b6000611cf7611cf2611ced84611636565b611cd2565b611636565b9050919050565b6000611d0982611cdc565b9050919050565b6000611d1b82611cfe565b9050919050565b611d2b81611d10565b82525050565b600060e082019050611d46600083018a6115f8565b611d536020830189611d22565b611d6060408301886115f8565b611d6d60608301876115f8565b611d7a6080830186611966565b611d8760a0830185611c62565b611d9460c0830184611c62565b98975050505050505050565b7f5265656e7472616e637947756172643a207265656e7472616e742063616c6c00600082015250565b6000611dd6601f836119db565b9150611de182611da0565b602082019050919050565b60006020820190508181036000830152611e0581611dc9565b9050919050565b6000606082019050611e216000830186611a58565b611e2e6020830185611a58565b611e3b60408301846115f8565b949350505050565b6000606082019050611e5860008301866115f8565b611e6560208301856115f8565b611e7260408301846115f8565b949350505050565b7f4e487b7100000000000000000000000000000000000000000000000000000000600052601160045260246000fd5b6000611eb4826115ee565b91507fffffffffffffffffffffffffffffffffffffffffffffffffffffffffffffffff821415611ee757611ee6611e7a565b5b600182019050919050565b7f4e487b7100000000000000000000000000000000000000000000000000000000600052602260045260246000fd5b60006002820490506001821680611f3957607f821691505b60208210811415611f4d57611f4c611ef2565b5b50919050565b7f596f7520686176656e27742073696e6775702079657400000000000000000000600082015250565b6000611f896016836119db565b9150611f9482611f53565b602082019050919050565b60006020820190508181036000830152611fb881611f7c565b9050919050565b7f596f752068617320616c726561647920616e2065787065727400000000000000600082015250565b6000611ff56019836119db565b915061200082611fbf565b602082019050919050565b6000602082019050818103600083015261202481611fe8565b9050919050565b7f6974656d20646f65736e27742065786973740000000000000000000000000000600082015250565b60006120616012836119db565b915061206c8261202b565b602082019050919050565b6000602082019050818103600083015261209081612054565b9050919050565b7f6e6f7420656e6f75676820657468657220746f20636f766572206974656d207060008201527f7269636520616e64206d61726b65742066656500000000000000000000000000602082015250565b60006120f36033836119db565b91506120fe82612097565b604082019050919050565b60006020820190508181036000830152612122816120e6565b9050919050565b7f6974656d20616c726561647920736f6c64000000000000000000000000000000600082015250565b600061215f6011836119db565b915061216a82612129565b602082019050919050565b6000602082019050818103600083015261218e81612152565b9050919050565b60006121a0826115ee565b91506121ab836115ee565b9250828210156121be576121bd611e7a565b5b828203905092915050565b7f5468697320757365722068617320616c7265616479207369676e656400000000600082015250565b60006121ff601c836119db565b915061220a826121c9565b602082019050919050565b6000602082019050818103600083015261222e816121f2565b9050919050565b6000612240826115ee565b915061224b836115ee565b9250827fffffffffffffffffffffffffffffffffffffffffffffffffffffffffffffffff038211156122805761227f611e7a565b5b828201905092915050565b6000612296826115ee565b91506122a1836115ee565b9250817fffffffffffffffffffffffffffffffffffffffffffffffffffffffffffffffff04831182151516156122da576122d9611e7a565b5b828202905092915050565b7f4e487b7100000000000000000000000000000000000000000000000000000000600052601260045260246000fd5b600061231f826115ee565b915061232a836115ee565b92508261233a576123396122e5565b5b82820490509291505056fea2646970667358221220105120eb447fe818d263d6170071f958f21954a82c68f5415c6e19fffde4f92064736f6c634300080b0033",
  "immutableReferences": {
    "2462": [
      {
        "length": 32,
        "start": 2091
      },
      {
        "length": 32,
        "start": 3553
      }
    ],
    "2464": [
      {
        "length": 32,
        "start": 4158
      },
      {
        "length": 32,
        "start": 5358
      }
    ]
  },
  "source": "// SPDX-License-Identifier: MIT\r\npragma solidity ^0.8.0;\r\n\r\nimport \"./Marketplace.sol\";\r\n\r\ncontract UserRegister is Marketplace{\r\n    //bin m userid\r\n    uint256 public userCount;\r\n\r\n    //to user\r\n    struct User {\r\n        address UserId;\r\n        string UserURI;\r\n        string name;\r\n        bool isExpert;\r\n        bool isExist;\r\n    }\r\n\r\n    //mng cha cc user\r\n    mapping(address => User) public users;\r\n\r\n    event Signed(address owner, string UserURI,string name, bool isExpert, bool isExist);\r\n\r\n    function creatUser(\r\n        address _userId,\r\n        bool _isExpert,\r\n        string memory _UserURI,  \r\n        string memory _name\r\n    ) external {\r\n        //kim tra xem user  tn ti cha ny\r\n        require(\r\n            users[_userId].isExist == false,\r\n            \"This user has already signed\"\r\n        );\r\n\r\n        //mi ln create th tng userCount ln 1\r\n        userCount++;\r\n\r\n        //mc nh lun cha l chuyn gia\r\n        users[_userId] = User(_userId, _UserURI, _name, false, true);\r\n\r\n        emit Signed(_userId, _UserURI,_name, _isExpert, true);\r\n    }\r\n\r\n    function ExpertSign(address _userId) external {\r\n        //kim tra xem user  tn ti hay cha v l chuyn gia cha\r\n        require(users[_userId].isExist == true, \"You haven't singup yet\");\r\n        require(users[_userId].isExpert == false, \"You has already an expert\");\r\n\r\n        //thay i thnh chuyn gia\r\n        users[_userId].isExpert = true;\r\n    }\r\n\r\n    function getName(uint _tokenId) view external returns (string memory){\r\n        address _seller = items[_tokenId].seller;\r\n        return (users[_seller].name);\r\n    }\r\n}\r\n",
  "sourcePath": "E:\\Code\\React\\marketplace\\src\\contracts\\UserRegister.sol",
  "compiler": {
    "name": "solc",
    "version": "0.8.11+commit.d7f03943.Emscripten.clang"
  },
  "schemaVersion": "3.4.7",
  "updatedAt": "2022-10-07T01:12:56.284Z",
  "networkType": "ethereum",
  "devdoc": {
    "kind": "dev",
    "methods": {},
    "version": 1
  },
  "userdoc": {
    "kind": "user",
    "methods": {},
    "version": 1
  }
}