{
  "contractName": "UserRegister",
  "abi": [
    {
      "anonymous": false,
      "inputs": [
        {
          "indexed": false,
          "internalType": "address",
          "name": "owner",
          "type": "address"
        },
        {
          "indexed": false,
          "internalType": "string",
          "name": "UserURI",
          "type": "string"
        },
        {
          "indexed": false,
          "internalType": "string",
          "name": "name",
          "type": "string"
        },
        {
          "indexed": false,
          "internalType": "bool",
          "name": "isExpert",
          "type": "bool"
        },
        {
          "indexed": false,
          "internalType": "bool",
          "name": "isExist",
          "type": "bool"
        }
      ],
      "name": "Signed",
      "type": "event"
    },
    {
      "inputs": [],
      "name": "userCount",
      "outputs": [
        {
          "internalType": "uint256",
          "name": "",
          "type": "uint256"
        }
      ],
      "stateMutability": "view",
      "type": "function",
      "constant": true
    },
    {
      "inputs": [
        {
          "internalType": "address",
          "name": "",
          "type": "address"
        }
      ],
      "name": "users",
      "outputs": [
        {
          "internalType": "address",
          "name": "UserId",
          "type": "address"
        },
        {
          "internalType": "string",
          "name": "UserURI",
          "type": "string"
        },
        {
          "internalType": "string",
          "name": "name",
          "type": "string"
        },
        {
          "internalType": "bool",
          "name": "isExpert",
          "type": "bool"
        },
        {
          "internalType": "bool",
          "name": "isExist",
          "type": "bool"
        }
      ],
      "stateMutability": "view",
      "type": "function",
      "constant": true
    },
    {
      "inputs": [
        {
          "internalType": "address",
          "name": "_userId",
          "type": "address"
        },
        {
          "internalType": "bool",
          "name": "_isExpert",
          "type": "bool"
        },
        {
          "internalType": "string",
          "name": "_UserURI",
          "type": "string"
        },
        {
          "internalType": "string",
          "name": "_name",
          "type": "string"
        }
      ],
      "name": "creatUser",
      "outputs": [],
      "stateMutability": "nonpayable",
      "type": "function"
    },
    {
      "inputs": [
        {
          "internalType": "address",
          "name": "_userId",
          "type": "address"
        }
      ],
      "name": "ExpertSign",
      "outputs": [],
      "stateMutability": "nonpayable",
      "type": "function"
    }
  ],
  "bytecode": "0x608060405234801561001057600080fd5b50610d10806100206000396000f3fe608060405234801561001057600080fd5b506004361061004c5760003560e01c806307973ccf146100515780636dcb2eff1461006f578063a32cc1271461008b578063a87430ba146100a7575b600080fd5b6100596100db565b60405161006691906106df565b60405180910390f35b6100896004803603810190610084919061076c565b6100e1565b005b6100a560048036038101906100a09190610917565b61026a565b005b6100c160048036038101906100bc919061076c565b6104a3565b6040516100d2959493929190610a5c565b60405180910390f35b60005481565b60011515600160008373ffffffffffffffffffffffffffffffffffffffff1673ffffffffffffffffffffffffffffffffffffffff16815260200190815260200160002060030160019054906101000a900460ff16151514610177576040517f08c379a000000000000000000000000000000000000000000000000000000000815260040161016e90610b09565b60405180910390fd5b60001515600160008373ffffffffffffffffffffffffffffffffffffffff1673ffffffffffffffffffffffffffffffffffffffff16815260200190815260200160002060030160009054906101000a900460ff1615151461020d576040517f08c379a000000000000000000000000000000000000000000000000000000000815260040161020490610b75565b60405180910390fd5b60018060008373ffffffffffffffffffffffffffffffffffffffff1673ffffffffffffffffffffffffffffffffffffffff16815260200190815260200160002060030160006101000a81548160ff02191690831515021790555050565b60001515600160008673ffffffffffffffffffffffffffffffffffffffff1673ffffffffffffffffffffffffffffffffffffffff16815260200190815260200160002060030160019054906101000a900460ff16151514610300576040517f08c379a00000000000000000000000000000000000000000000000000000000081526004016102f790610be1565b60405180910390fd5b60008081548092919061031290610c30565b91905055506040518060a001604052808573ffffffffffffffffffffffffffffffffffffffff16815260200183815260200182815260200160001515815260200160011515815250600160008673ffffffffffffffffffffffffffffffffffffffff1673ffffffffffffffffffffffffffffffffffffffff16815260200190815260200160002060008201518160000160006101000a81548173ffffffffffffffffffffffffffffffffffffffff021916908373ffffffffffffffffffffffffffffffffffffffff16021790555060208201518160010190805190602001906103fc929190610623565b506040820151816002019080519060200190610419929190610623565b5060608201518160030160006101000a81548160ff02191690831515021790555060808201518160030160016101000a81548160ff0219169083151502179055509050507f80d60f685a6f19026b2f189b4731b00cf604f29ea2f42a11c46f769cb9a0197e848383866001604051610495959493929190610a5c565b60405180910390a150505050565b60016020528060005260406000206000915090508060000160009054906101000a900473ffffffffffffffffffffffffffffffffffffffff16908060010180546104ec90610ca8565b80601f016020809104026020016040519081016040528092919081815260200182805461051890610ca8565b80156105655780601f1061053a57610100808354040283529160200191610565565b820191906000526020600020905b81548152906001019060200180831161054857829003601f168201915b50505050509080600201805461057a90610ca8565b80601f01602080910402602001604051908101604052809291908181526020018280546105a690610ca8565b80156105f35780601f106105c8576101008083540402835291602001916105f3565b820191906000526020600020905b8154815290600101906020018083116105d657829003601f168201915b5050505050908060030160009054906101000a900460ff16908060030160019054906101000a900460ff16905085565b82805461062f90610ca8565b90600052602060002090601f0160209004810192826106515760008555610698565b82601f1061066a57805160ff1916838001178555610698565b82800160010185558215610698579182015b8281111561069757825182559160200191906001019061067c565b5b5090506106a591906106a9565b5090565b5b808211156106c25760008160009055506001016106aa565b5090565b6000819050919050565b6106d9816106c6565b82525050565b60006020820190506106f460008301846106d0565b92915050565b6000604051905090565b600080fd5b600080fd5b600073ffffffffffffffffffffffffffffffffffffffff82169050919050565b60006107398261070e565b9050919050565b6107498161072e565b811461075457600080fd5b50565b60008135905061076681610740565b92915050565b60006020828403121561078257610781610704565b5b600061079084828501610757565b91505092915050565b60008115159050919050565b6107ae81610799565b81146107b957600080fd5b50565b6000813590506107cb816107a5565b92915050565b600080fd5b600080fd5b6000601f19601f8301169050919050565b7f4e487b7100000000000000000000000000000000000000000000000000000000600052604160045260246000fd5b610824826107db565b810181811067ffffffffffffffff82111715610843576108426107ec565b5b80604052505050565b60006108566106fa565b9050610862828261081b565b919050565b600067ffffffffffffffff821115610882576108816107ec565b5b61088b826107db565b9050602081019050919050565b82818337600083830152505050565b60006108ba6108b584610867565b61084c565b9050828152602081018484840111156108d6576108d56107d6565b5b6108e1848285610898565b509392505050565b600082601f8301126108fe576108fd6107d1565b5b813561090e8482602086016108a7565b91505092915050565b6000806000806080858703121561093157610930610704565b5b600061093f87828801610757565b9450506020610950878288016107bc565b935050604085013567ffffffffffffffff81111561097157610970610709565b5b61097d878288016108e9565b925050606085013567ffffffffffffffff81111561099e5761099d610709565b5b6109aa878288016108e9565b91505092959194509250565b6109bf8161072e565b82525050565b600081519050919050565b600082825260208201905092915050565b60005b838110156109ff5780820151818401526020810190506109e4565b83811115610a0e576000848401525b50505050565b6000610a1f826109c5565b610a2981856109d0565b9350610a398185602086016109e1565b610a42816107db565b840191505092915050565b610a5681610799565b82525050565b600060a082019050610a7160008301886109b6565b8181036020830152610a838187610a14565b90508181036040830152610a978186610a14565b9050610aa66060830185610a4d565b610ab36080830184610a4d565b9695505050505050565b7f596f7520686176656e27742073696e6775702079657400000000000000000000600082015250565b6000610af36016836109d0565b9150610afe82610abd565b602082019050919050565b60006020820190508181036000830152610b2281610ae6565b9050919050565b7f596f752068617320616c726561647920616e2065787065727400000000000000600082015250565b6000610b5f6019836109d0565b9150610b6a82610b29565b602082019050919050565b60006020820190508181036000830152610b8e81610b52565b9050919050565b7f5468697320757365722068617320616c7265616479207369676e656400000000600082015250565b6000610bcb601c836109d0565b9150610bd682610b95565b602082019050919050565b60006020820190508181036000830152610bfa81610bbe565b9050919050565b7f4e487b7100000000000000000000000000000000000000000000000000000000600052601160045260246000fd5b6000610c3b826106c6565b91507fffffffffffffffffffffffffffffffffffffffffffffffffffffffffffffffff821415610c6e57610c6d610c01565b5b600182019050919050565b7f4e487b7100000000000000000000000000000000000000000000000000000000600052602260045260246000fd5b60006002820490506001821680610cc057607f821691505b60208210811415610cd457610cd3610c79565b5b5091905056fea26469706673582212203c7d6321eab24cc66cf6e35542a5af77a6eb9ed5f591e4aa3c2955be2e5d4fda64736f6c634300080b0033",
  "immutableReferences": {},
  "source": "// SPDX-License-Identifier: MIT\r\npragma solidity ^0.8.0;\r\n\r\ncontract UserRegister {\r\n    //bin m userid\r\n    uint256 public userCount;\r\n\r\n    //to user\r\n    struct User {\r\n        address UserId;\r\n        string UserURI;\r\n        string name;\r\n        bool isExpert;\r\n        bool isExist;\r\n    }\r\n\r\n    //mng cha cc user\r\n    mapping(address => User) public users;\r\n\r\n    event Signed(address owner, string UserURI,string name, bool isExpert, bool isExist);\r\n\r\n    function creatUser(\r\n        address _userId,\r\n        bool _isExpert,\r\n        string memory _UserURI,  \r\n        string memory _name\r\n    ) external {\r\n        //kim tra xem user  tn ti cha ny\r\n        require(\r\n            users[_userId].isExist == false,\r\n            \"This user has already signed\"\r\n        );\r\n\r\n        //mi ln create th tng userCount ln 1\r\n        userCount++;\r\n\r\n        //mc nh lun cha l chuyn gia\r\n        users[_userId] = User(_userId, _UserURI, _name, false, true);\r\n\r\n        emit Signed(_userId, _UserURI,_name, _isExpert, true);\r\n    }\r\n\r\n    function ExpertSign(address _userId) external {\r\n        //kim tra xem user  tn ti hay cha v l chuyn gia cha\r\n        require(users[_userId].isExist == true, \"You haven't singup yet\");\r\n        require(users[_userId].isExpert == false, \"You has already an expert\");\r\n\r\n        //thay i thnh chuyn gia\r\n        users[_userId].isExpert = true;\r\n    }\r\n}\r\n",
  "sourcePath": "E:\\Code\\React\\marketplace\\src\\contracts\\UserRegister.sol",
  "compiler": {
    "name": "solc",
    "version": "0.8.11+commit.d7f03943.Emscripten.clang"
  },
  "schemaVersion": "3.4.7",
  "updatedAt": "2022-10-02T02:17:54.303Z",
  "networkType": "ethereum",
  "devdoc": {
    "kind": "dev",
    "methods": {},
    "version": 1
  },
  "userdoc": {
    "kind": "user",
    "methods": {},
    "version": 1
  }
}