{
  "contractName": "UserRegister",
  "abi": [
    {
      "anonymous": false,
      "inputs": [
        {
          "indexed": false,
          "internalType": "uint256",
          "name": "itemId",
          "type": "uint256"
        },
        {
          "indexed": true,
          "internalType": "address",
          "name": "nft",
          "type": "address"
        },
        {
          "indexed": false,
          "internalType": "uint256",
          "name": "tokenId",
          "type": "uint256"
        },
        {
          "indexed": false,
          "internalType": "uint256",
          "name": "price",
          "type": "uint256"
        },
        {
          "indexed": true,
          "internalType": "address",
          "name": "seller",
          "type": "address"
        },
        {
          "indexed": true,
          "internalType": "address",
          "name": "buyer",
          "type": "address"
        }
      ],
      "name": "Bought",
      "type": "event"
    },
    {
      "anonymous": false,
      "inputs": [
        {
          "indexed": false,
          "internalType": "uint256",
          "name": "itemId",
          "type": "uint256"
        },
        {
          "indexed": true,
          "internalType": "address",
          "name": "nft",
          "type": "address"
        },
        {
          "indexed": false,
          "internalType": "uint256",
          "name": "tokenId",
          "type": "uint256"
        },
        {
          "indexed": false,
          "internalType": "uint256",
          "name": "price",
          "type": "uint256"
        },
        {
          "indexed": true,
          "internalType": "address",
          "name": "seller",
          "type": "address"
        }
      ],
      "name": "Offered",
      "type": "event"
    },
    {
      "anonymous": false,
      "inputs": [
        {
          "indexed": false,
          "internalType": "address",
          "name": "owner",
          "type": "address"
        },
        {
          "indexed": false,
          "internalType": "string",
          "name": "UserURI",
          "type": "string"
        },
        {
          "indexed": false,
          "internalType": "string",
          "name": "name",
          "type": "string"
        },
        {
          "indexed": false,
          "internalType": "bool",
          "name": "isExpert",
          "type": "bool"
        },
        {
          "indexed": false,
          "internalType": "bool",
          "name": "isExist",
          "type": "bool"
        }
      ],
      "name": "Signed",
      "type": "event"
    },
    {
      "inputs": [
        {
          "internalType": "uint256",
          "name": "_itemId",
          "type": "uint256"
        }
      ],
      "name": "Checked",
      "outputs": [],
      "stateMutability": "nonpayable",
      "type": "function"
    },
    {
      "inputs": [],
      "name": "feeAccount",
      "outputs": [
        {
          "internalType": "address payable",
          "name": "",
          "type": "address"
        }
      ],
      "stateMutability": "view",
      "type": "function",
      "constant": true
    },
    {
      "inputs": [],
      "name": "feePercent",
      "outputs": [
        {
          "internalType": "uint256",
          "name": "",
          "type": "uint256"
        }
      ],
      "stateMutability": "view",
      "type": "function",
      "constant": true
    },
    {
      "inputs": [],
      "name": "getItemCount",
      "outputs": [
        {
          "internalType": "uint256",
          "name": "",
          "type": "uint256"
        }
      ],
      "stateMutability": "view",
      "type": "function",
      "constant": true
    },
    {
      "inputs": [
        {
          "internalType": "uint256",
          "name": "_itemId",
          "type": "uint256"
        }
      ],
      "name": "getTotalPrice",
      "outputs": [
        {
          "internalType": "uint256",
          "name": "",
          "type": "uint256"
        }
      ],
      "stateMutability": "view",
      "type": "function",
      "constant": true
    },
    {
      "inputs": [],
      "name": "itemCount",
      "outputs": [
        {
          "internalType": "uint256",
          "name": "",
          "type": "uint256"
        }
      ],
      "stateMutability": "view",
      "type": "function",
      "constant": true
    },
    {
      "inputs": [
        {
          "internalType": "uint256",
          "name": "",
          "type": "uint256"
        }
      ],
      "name": "items",
      "outputs": [
        {
          "internalType": "uint256",
          "name": "itemId",
          "type": "uint256"
        },
        {
          "internalType": "contract IERC721",
          "name": "nft",
          "type": "address"
        },
        {
          "internalType": "uint256",
          "name": "tokenId",
          "type": "uint256"
        },
        {
          "internalType": "uint256",
          "name": "price",
          "type": "uint256"
        },
        {
          "internalType": "address payable",
          "name": "seller",
          "type": "address"
        },
        {
          "internalType": "bool",
          "name": "sold",
          "type": "bool"
        },
        {
          "internalType": "bool",
          "name": "check",
          "type": "bool"
        }
      ],
      "stateMutability": "view",
      "type": "function",
      "constant": true
    },
    {
      "inputs": [
        {
          "internalType": "contract IERC721",
          "name": "_nft",
          "type": "address"
        },
        {
          "internalType": "uint256",
          "name": "_tokenId",
          "type": "uint256"
        },
        {
          "internalType": "uint256",
          "name": "_price",
          "type": "uint256"
        }
      ],
      "name": "makeItem",
      "outputs": [],
      "stateMutability": "nonpayable",
      "type": "function"
    },
    {
      "inputs": [
        {
          "internalType": "uint256",
          "name": "_itemId",
          "type": "uint256"
        }
      ],
      "name": "purchaseItem",
      "outputs": [],
      "stateMutability": "payable",
      "type": "function",
      "payable": true
    },
    {
      "inputs": [],
      "name": "userCount",
      "outputs": [
        {
          "internalType": "uint256",
          "name": "",
          "type": "uint256"
        }
      ],
      "stateMutability": "view",
      "type": "function",
      "constant": true
    },
    {
      "inputs": [
        {
          "internalType": "address",
          "name": "",
          "type": "address"
        }
      ],
      "name": "users",
      "outputs": [
        {
          "internalType": "address",
          "name": "UserId",
          "type": "address"
        },
        {
          "internalType": "string",
          "name": "UserURI",
          "type": "string"
        },
        {
          "internalType": "string",
          "name": "name",
          "type": "string"
        },
        {
          "internalType": "bool",
          "name": "isExpert",
          "type": "bool"
        },
        {
          "internalType": "bool",
          "name": "isExist",
          "type": "bool"
        }
      ],
      "stateMutability": "view",
      "type": "function",
      "constant": true
    },
    {
      "inputs": [
        {
          "internalType": "address",
          "name": "_userId",
          "type": "address"
        },
        {
          "internalType": "bool",
          "name": "_isExpert",
          "type": "bool"
        },
        {
          "internalType": "string",
          "name": "_UserURI",
          "type": "string"
        },
        {
          "internalType": "string",
          "name": "_name",
          "type": "string"
        }
      ],
      "name": "creatUser",
      "outputs": [],
      "stateMutability": "nonpayable",
      "type": "function"
    },
    {
      "inputs": [
        {
          "internalType": "address",
          "name": "_userId",
          "type": "address"
        }
      ],
      "name": "ExpertSign",
      "outputs": [],
      "stateMutability": "nonpayable",
      "type": "function"
    },
    {
      "inputs": [
        {
          "internalType": "uint256",
          "name": "_tokenId",
          "type": "uint256"
        }
      ],
      "name": "getName",
      "outputs": [
        {
          "internalType": "string",
          "name": "",
          "type": "string"
        }
      ],
      "stateMutability": "view",
      "type": "function",
      "constant": true
    }
  ],
  "bytecode": "0x60c060405234801561001057600080fd5b5060016000819055503373ffffffffffffffffffffffffffffffffffffffff1660808173ffffffffffffffffffffffffffffffffffffffff1681525050600160a0818152505060805160a051611e756100896000396000818161064d0152610afd01526000818161037f0152610d230152611e756000f3fe6080604052600436106100dd5760003560e01c8063a24434281161007f578063bfb231d211610059578063bfb231d2146102b2578063ca7dd375146102f5578063d38ea5bf14610332578063fa00afc71461034e576100dd565b8063a24434281461021f578063a32cc12714610248578063a87430ba14610271576100dd565b80636bfb0d01116100bb5780636bfb0d01146101755780636dcb2eff146101a05780637749cf23146101c95780637fd6f15c146101f4576100dd565b806307973ccf146100e257806365e17c9d1461010d5780636b8ff57414610138575b600080fd5b3480156100ee57600080fd5b506100f7610377565b60405161010491906112a6565b60405180910390f35b34801561011957600080fd5b5061012261037d565b60405161012f9190611302565b60405180910390f35b34801561014457600080fd5b5061015f600480360381019061015a919061135d565b6103a1565b60405161016c9190611423565b60405180910390f35b34801561018157600080fd5b5061018a6104b1565b60405161019791906112a6565b60405180910390f35b3480156101ac57600080fd5b506101c760048036038101906101c29190611483565b6104b7565b005b3480156101d557600080fd5b506101de610641565b6040516101eb91906112a6565b60405180910390f35b34801561020057600080fd5b5061020961064b565b60405161021691906112a6565b60405180910390f35b34801561022b57600080fd5b506102466004803603810190610241919061135d565b61066f565b005b34801561025457600080fd5b5061026f600480360381019061026a919061161d565b6106a1565b005b34801561027d57600080fd5b5061029860048036038101906102939190611483565b6108db565b6040516102a99594939291906116da565b60405180910390f35b3480156102be57600080fd5b506102d960048036038101906102d4919061135d565b610a5b565b6040516102ec979695949392919061179a565b60405180910390f35b34801561030157600080fd5b5061031c6004803603810190610317919061135d565b610af7565b60405161032991906112a6565b60405180910390f35b61034c6004803603810190610347919061135d565b610b5a565b005b34801561035a57600080fd5b5061037560048036038101906103709190611847565b610f28565b005b60035481565b7f000000000000000000000000000000000000000000000000000000000000000081565b606060006002600084815260200190815260200160002060040160009054906101000a900473ffffffffffffffffffffffffffffffffffffffff169050600460008273ffffffffffffffffffffffffffffffffffffffff1673ffffffffffffffffffffffffffffffffffffffff168152602001908152602001600020600201805461042b906118c9565b80601f0160208091040260200160405190810160405280929190818152602001828054610457906118c9565b80156104a45780601f10610479576101008083540402835291602001916104a4565b820191906000526020600020905b81548152906001019060200180831161048757829003601f168201915b5050505050915050919050565b60015481565b60011515600460008373ffffffffffffffffffffffffffffffffffffffff1673ffffffffffffffffffffffffffffffffffffffff16815260200190815260200160002060030160019054906101000a900460ff1615151461054d576040517f08c379a000000000000000000000000000000000000000000000000000000000815260040161054490611947565b60405180910390fd5b60001515600460008373ffffffffffffffffffffffffffffffffffffffff1673ffffffffffffffffffffffffffffffffffffffff16815260200190815260200160002060030160009054906101000a900460ff161515146105e3576040517f08c379a00000000000000000000000000000000000000000000000000000000081526004016105da906119b3565b60405180910390fd5b6001600460008373ffffffffffffffffffffffffffffffffffffffff1673ffffffffffffffffffffffffffffffffffffffff16815260200190815260200160002060030160006101000a81548160ff02191690831515021790555050565b6000600154905090565b7f000000000000000000000000000000000000000000000000000000000000000081565b60016002600083815260200190815260200160002060040160156101000a81548160ff02191690831515021790555050565b60001515600460008673ffffffffffffffffffffffffffffffffffffffff1673ffffffffffffffffffffffffffffffffffffffff16815260200190815260200160002060030160019054906101000a900460ff16151514610737576040517f08c379a000000000000000000000000000000000000000000000000000000000815260040161072e90611a1f565b60405180910390fd5b6003600081548092919061074a90611a6e565b91905055506040518060a001604052808573ffffffffffffffffffffffffffffffffffffffff16815260200183815260200182815260200160001515815260200160011515815250600460008673ffffffffffffffffffffffffffffffffffffffff1673ffffffffffffffffffffffffffffffffffffffff16815260200190815260200160002060008201518160000160006101000a81548173ffffffffffffffffffffffffffffffffffffffff021916908373ffffffffffffffffffffffffffffffffffffffff16021790555060208201518160010190805190602001906108349291906111ea565b5060408201518160020190805190602001906108519291906111ea565b5060608201518160030160006101000a81548160ff02191690831515021790555060808201518160030160016101000a81548160ff0219169083151502179055509050507f80d60f685a6f19026b2f189b4731b00cf604f29ea2f42a11c46f769cb9a0197e8483838660016040516108cd9594939291906116da565b60405180910390a150505050565b60046020528060005260406000206000915090508060000160009054906101000a900473ffffffffffffffffffffffffffffffffffffffff1690806001018054610924906118c9565b80601f0160208091040260200160405190810160405280929190818152602001828054610950906118c9565b801561099d5780601f106109725761010080835404028352916020019161099d565b820191906000526020600020905b81548152906001019060200180831161098057829003601f168201915b5050505050908060020180546109b2906118c9565b80601f01602080910402602001604051908101604052809291908181526020018280546109de906118c9565b8015610a2b5780601f10610a0057610100808354040283529160200191610a2b565b820191906000526020600020905b815481529060010190602001808311610a0e57829003601f168201915b5050505050908060030160009054906101000a900460ff16908060030160019054906101000a900460ff16905085565b60026020528060005260406000206000915090508060000154908060010160009054906101000a900473ffffffffffffffffffffffffffffffffffffffff16908060020154908060030154908060040160009054906101000a900473ffffffffffffffffffffffffffffffffffffffff16908060040160149054906101000a900460ff16908060040160159054906101000a900460ff16905087565b600060647f00000000000000000000000000000000000000000000000000000000000000006064610b289190611ab7565b6002600085815260200190815260200160002060030154610b499190611b0d565b610b539190611b96565b9050919050565b60026000541415610ba0576040517f08c379a0000000000000000000000000000000000000000000000000000000008152600401610b9790611c13565b60405180910390fd5b60026000819055506000610bb382610af7565b90506000600260008481526020019081526020016000209050600083118015610bde57506001548311155b610c1d576040517f08c379a0000000000000000000000000000000000000000000000000000000008152600401610c1490611c7f565b60405180910390fd5b81341015610c60576040517f08c379a0000000000000000000000000000000000000000000000000000000008152600401610c5790611d11565b60405180910390fd5b8060040160149054906101000a900460ff1615610cb2576040517f08c379a0000000000000000000000000000000000000000000000000000000008152600401610ca990611d7d565b60405180910390fd5b8060040160009054906101000a900473ffffffffffffffffffffffffffffffffffffffff1673ffffffffffffffffffffffffffffffffffffffff166108fc82600301549081150290604051600060405180830381858888f19350505050158015610d20573d6000803e3d6000fd5b507f000000000000000000000000000000000000000000000000000000000000000073ffffffffffffffffffffffffffffffffffffffff166108fc826003015484610d6b9190611d9d565b9081150290604051600060405180830381858888f19350505050158015610d96573d6000803e3d6000fd5b5060018160040160146101000a81548160ff0219169083151502179055508060010160009054906101000a900473ffffffffffffffffffffffffffffffffffffffff1673ffffffffffffffffffffffffffffffffffffffff166323b872dd303384600201546040518463ffffffff1660e01b8152600401610e1993929190611dd1565b600060405180830381600087803b158015610e3357600080fd5b505af1158015610e47573d6000803e3d6000fd5b505050503373ffffffffffffffffffffffffffffffffffffffff168160040160009054906101000a900473ffffffffffffffffffffffffffffffffffffffff1673ffffffffffffffffffffffffffffffffffffffff168260010160009054906101000a900473ffffffffffffffffffffffffffffffffffffffff1673ffffffffffffffffffffffffffffffffffffffff167f8b4c9c8a607d67b321582dd8461041b1dc2ceeca70c8b7f37f8e02095cf2e76d8685600201548660030154604051610f1393929190611e08565b60405180910390a45050600160008190555050565b60026000541415610f6e576040517f08c379a0000000000000000000000000000000000000000000000000000000008152600401610f6590611c13565b60405180910390fd5b6002600081905550600081111561105a578273ffffffffffffffffffffffffffffffffffffffff166323b872dd3330856040518463ffffffff1660e01b8152600401610fbc93929190611dd1565b600060405180830381600087803b158015610fd657600080fd5b505af1158015610fea573d6000803e3d6000fd5b505050503373ffffffffffffffffffffffffffffffffffffffff168373ffffffffffffffffffffffffffffffffffffffff167f655a0cf9c8db81512be9a76dc1c5ae5380b8816ce6ad659cd61b715e2999d59a600154858560405161105193929190611e08565b60405180910390a35b6001600081548092919061106d90611a6e565b91905055506040518060e0016040528060015481526020018473ffffffffffffffffffffffffffffffffffffffff1681526020018381526020018281526020013373ffffffffffffffffffffffffffffffffffffffff168152602001600015158152602001600015158152506002600060015481526020019081526020016000206000820151816000015560208201518160010160006101000a81548173ffffffffffffffffffffffffffffffffffffffff021916908373ffffffffffffffffffffffffffffffffffffffff160217905550604082015181600201556060820151816003015560808201518160040160006101000a81548173ffffffffffffffffffffffffffffffffffffffff021916908373ffffffffffffffffffffffffffffffffffffffff16021790555060a08201518160040160146101000a81548160ff02191690831515021790555060c08201518160040160156101000a81548160ff0219169083151502179055509050506001600081905550505050565b8280546111f6906118c9565b90600052602060002090601f016020900481019282611218576000855561125f565b82601f1061123157805160ff191683800117855561125f565b8280016001018555821561125f579182015b8281111561125e578251825591602001919060010190611243565b5b50905061126c9190611270565b5090565b5b80821115611289576000816000905550600101611271565b5090565b6000819050919050565b6112a08161128d565b82525050565b60006020820190506112bb6000830184611297565b92915050565b600073ffffffffffffffffffffffffffffffffffffffff82169050919050565b60006112ec826112c1565b9050919050565b6112fc816112e1565b82525050565b600060208201905061131760008301846112f3565b92915050565b6000604051905090565b600080fd5b600080fd5b61133a8161128d565b811461134557600080fd5b50565b60008135905061135781611331565b92915050565b60006020828403121561137357611372611327565b5b600061138184828501611348565b91505092915050565b600081519050919050565b600082825260208201905092915050565b60005b838110156113c45780820151818401526020810190506113a9565b838111156113d3576000848401525b50505050565b6000601f19601f8301169050919050565b60006113f58261138a565b6113ff8185611395565b935061140f8185602086016113a6565b611418816113d9565b840191505092915050565b6000602082019050818103600083015261143d81846113ea565b905092915050565b6000611450826112c1565b9050919050565b61146081611445565b811461146b57600080fd5b50565b60008135905061147d81611457565b92915050565b60006020828403121561149957611498611327565b5b60006114a78482850161146e565b91505092915050565b60008115159050919050565b6114c5816114b0565b81146114d057600080fd5b50565b6000813590506114e2816114bc565b92915050565b600080fd5b600080fd5b7f4e487b7100000000000000000000000000000000000000000000000000000000600052604160045260246000fd5b61152a826113d9565b810181811067ffffffffffffffff82111715611549576115486114f2565b5b80604052505050565b600061155c61131d565b90506115688282611521565b919050565b600067ffffffffffffffff821115611588576115876114f2565b5b611591826113d9565b9050602081019050919050565b82818337600083830152505050565b60006115c06115bb8461156d565b611552565b9050828152602081018484840111156115dc576115db6114ed565b5b6115e784828561159e565b509392505050565b600082601f830112611604576116036114e8565b5b81356116148482602086016115ad565b91505092915050565b6000806000806080858703121561163757611636611327565b5b60006116458782880161146e565b9450506020611656878288016114d3565b935050604085013567ffffffffffffffff8111156116775761167661132c565b5b611683878288016115ef565b925050606085013567ffffffffffffffff8111156116a4576116a361132c565b5b6116b0878288016115ef565b91505092959194509250565b6116c581611445565b82525050565b6116d4816114b0565b82525050565b600060a0820190506116ef60008301886116bc565b818103602083015261170181876113ea565b9050818103604083015261171581866113ea565b905061172460608301856116cb565b61173160808301846116cb565b9695505050505050565b6000819050919050565b600061176061175b611756846112c1565b61173b565b6112c1565b9050919050565b600061177282611745565b9050919050565b600061178482611767565b9050919050565b61179481611779565b82525050565b600060e0820190506117af600083018a611297565b6117bc602083018961178b565b6117c96040830188611297565b6117d66060830187611297565b6117e360808301866112f3565b6117f060a08301856116cb565b6117fd60c08301846116cb565b98975050505050505050565b600061181482611445565b9050919050565b61182481611809565b811461182f57600080fd5b50565b6000813590506118418161181b565b92915050565b6000806000606084860312156118605761185f611327565b5b600061186e86828701611832565b935050602061187f86828701611348565b925050604061189086828701611348565b9150509250925092565b7f4e487b7100000000000000000000000000000000000000000000000000000000600052602260045260246000fd5b600060028204905060018216806118e157607f821691505b602082108114156118f5576118f461189a565b5b50919050565b7f596f7520686176656e27742073696e6775702079657400000000000000000000600082015250565b6000611931601683611395565b915061193c826118fb565b602082019050919050565b6000602082019050818103600083015261196081611924565b9050919050565b7f596f752068617320616c726561647920616e2065787065727400000000000000600082015250565b600061199d601983611395565b91506119a882611967565b602082019050919050565b600060208201905081810360008301526119cc81611990565b9050919050565b7f5468697320757365722068617320616c7265616479207369676e656400000000600082015250565b6000611a09601c83611395565b9150611a14826119d3565b602082019050919050565b60006020820190508181036000830152611a38816119fc565b9050919050565b7f4e487b7100000000000000000000000000000000000000000000000000000000600052601160045260246000fd5b6000611a798261128d565b91507fffffffffffffffffffffffffffffffffffffffffffffffffffffffffffffffff821415611aac57611aab611a3f565b5b600182019050919050565b6000611ac28261128d565b9150611acd8361128d565b9250827fffffffffffffffffffffffffffffffffffffffffffffffffffffffffffffffff03821115611b0257611b01611a3f565b5b828201905092915050565b6000611b188261128d565b9150611b238361128d565b9250817fffffffffffffffffffffffffffffffffffffffffffffffffffffffffffffffff0483118215151615611b5c57611b5b611a3f565b5b828202905092915050565b7f4e487b7100000000000000000000000000000000000000000000000000000000600052601260045260246000fd5b6000611ba18261128d565b9150611bac8361128d565b925082611bbc57611bbb611b67565b5b828204905092915050565b7f5265656e7472616e637947756172643a207265656e7472616e742063616c6c00600082015250565b6000611bfd601f83611395565b9150611c0882611bc7565b602082019050919050565b60006020820190508181036000830152611c2c81611bf0565b9050919050565b7f6974656d20646f65736e27742065786973740000000000000000000000000000600082015250565b6000611c69601283611395565b9150611c7482611c33565b602082019050919050565b60006020820190508181036000830152611c9881611c5c565b9050919050565b7f6e6f7420656e6f75676820657468657220746f20636f766572206974656d207060008201527f7269636520616e64206d61726b65742066656500000000000000000000000000602082015250565b6000611cfb603383611395565b9150611d0682611c9f565b604082019050919050565b60006020820190508181036000830152611d2a81611cee565b9050919050565b7f6974656d20616c726561647920736f6c64000000000000000000000000000000600082015250565b6000611d67601183611395565b9150611d7282611d31565b602082019050919050565b60006020820190508181036000830152611d9681611d5a565b9050919050565b6000611da88261128d565b9150611db38361128d565b925082821015611dc657611dc5611a3f565b5b828203905092915050565b6000606082019050611de660008301866116bc565b611df360208301856116bc565b611e006040830184611297565b949350505050565b6000606082019050611e1d6000830186611297565b611e2a6020830185611297565b611e376040830184611297565b94935050505056fea2646970667358221220318daad492234d580d78ea0e7cf382c7d9d4e9396db6884abe1201a27389611064736f6c634300080b0033",
  "immutableReferences": {
    "2462": [
      {
        "length": 32,
        "start": 895
      },
      {
        "length": 32,
        "start": 3363
      }
    ],
    "2464": [
      {
        "length": 32,
        "start": 1613
      },
      {
        "length": 32,
        "start": 2813
      }
    ]
  },
  "source": "// SPDX-License-Identifier: MIT\r\npragma solidity ^0.8.0;\r\n\r\nimport \"./Marketplace.sol\";\r\n\r\ncontract UserRegister is Marketplace{\r\n    //bin m userid\r\n    uint256 public userCount;\r\n\r\n    //to user\r\n    struct User {\r\n        address UserId;\r\n        string UserURI;\r\n        string name;\r\n        bool isExpert;\r\n        bool isExist;\r\n    }\r\n\r\n    //mng cha cc user\r\n    mapping(address => User) public users;\r\n\r\n    event Signed(address owner, string UserURI,string name, bool isExpert, bool isExist);\r\n\r\n    function creatUser(\r\n        address _userId,\r\n        bool _isExpert,\r\n        string memory _UserURI,  \r\n        string memory _name\r\n    ) external {\r\n        //kim tra xem user  tn ti cha ny\r\n        require(\r\n            users[_userId].isExist == false,\r\n            \"This user has already signed\"\r\n        );\r\n\r\n        //mi ln create th tng userCount ln 1\r\n        userCount++;\r\n\r\n        //mc nh lun cha l chuyn gia\r\n        users[_userId] = User(_userId, _UserURI, _name, false, true);\r\n\r\n        emit Signed(_userId, _UserURI,_name, _isExpert, true);\r\n    }\r\n\r\n    function ExpertSign(address _userId) external {\r\n        //kim tra xem user  tn ti hay cha v l chuyn gia cha\r\n        require(users[_userId].isExist == true, \"You haven't singup yet\");\r\n        require(users[_userId].isExpert == false, \"You has already an expert\");\r\n\r\n        //thay i thnh chuyn gia\r\n        users[_userId].isExpert = true;\r\n    }\r\n\r\n    function getName(uint _tokenId) view external returns (string memory){\r\n        address _seller = items[_tokenId].seller;\r\n        return (users[_seller].name);\r\n    }\r\n}\r\n",
  "sourcePath": "E:\\Code\\React\\marketplace\\src\\contracts\\UserRegister.sol",
  "compiler": {
    "name": "solc",
    "version": "0.8.11+commit.d7f03943.Emscripten.clang"
  },
  "schemaVersion": "3.4.7",
  "updatedAt": "2022-10-06T01:52:29.855Z",
  "networkType": "ethereum",
  "devdoc": {
    "kind": "dev",
    "methods": {},
    "version": 1
  },
  "userdoc": {
    "kind": "user",
    "methods": {},
    "version": 1
  }
}