{
  "contractName": "UserRegister",
  "abi": [
    {
      "anonymous": false,
      "inputs": [
        {
          "indexed": false,
          "internalType": "uint256",
          "name": "itemId",
          "type": "uint256"
        },
        {
          "indexed": true,
          "internalType": "address",
          "name": "nft",
          "type": "address"
        },
        {
          "indexed": false,
          "internalType": "uint256",
          "name": "tokenId",
          "type": "uint256"
        },
        {
          "indexed": false,
          "internalType": "uint256",
          "name": "price",
          "type": "uint256"
        },
        {
          "indexed": true,
          "internalType": "address",
          "name": "seller",
          "type": "address"
        },
        {
          "indexed": true,
          "internalType": "address",
          "name": "buyer",
          "type": "address"
        }
      ],
      "name": "Bought",
      "type": "event"
    },
    {
      "anonymous": false,
      "inputs": [
        {
          "indexed": false,
          "internalType": "uint256",
          "name": "itemId",
          "type": "uint256"
        },
        {
          "indexed": true,
          "internalType": "address",
          "name": "nft",
          "type": "address"
        },
        {
          "indexed": false,
          "internalType": "uint256",
          "name": "tokenId",
          "type": "uint256"
        },
        {
          "indexed": false,
          "internalType": "uint256",
          "name": "price",
          "type": "uint256"
        },
        {
          "indexed": true,
          "internalType": "address",
          "name": "seller",
          "type": "address"
        }
      ],
      "name": "Offered",
      "type": "event"
    },
    {
      "anonymous": false,
      "inputs": [
        {
          "indexed": false,
          "internalType": "address",
          "name": "owner",
          "type": "address"
        },
        {
          "indexed": false,
          "internalType": "string",
          "name": "UserURI",
          "type": "string"
        },
        {
          "indexed": false,
          "internalType": "string",
          "name": "name",
          "type": "string"
        },
        {
          "indexed": false,
          "internalType": "bool",
          "name": "isExpert",
          "type": "bool"
        },
        {
          "indexed": false,
          "internalType": "bool",
          "name": "isExist",
          "type": "bool"
        }
      ],
      "name": "Signed",
      "type": "event"
    },
    {
      "inputs": [
        {
          "internalType": "uint256",
          "name": "_itemId",
          "type": "uint256"
        }
      ],
      "name": "Checked",
      "outputs": [],
      "stateMutability": "nonpayable",
      "type": "function"
    },
    {
      "inputs": [
        {
          "internalType": "uint256",
          "name": "_itemId",
          "type": "uint256"
        },
        {
          "internalType": "string",
          "name": "_eventName",
          "type": "string"
        },
        {
          "internalType": "uint256",
          "name": "_price",
          "type": "uint256"
        },
        {
          "internalType": "address",
          "name": "_from",
          "type": "address"
        },
        {
          "internalType": "address",
          "name": "_to",
          "type": "address"
        },
        {
          "internalType": "uint256",
          "name": "_time",
          "type": "uint256"
        }
      ],
      "name": "addHistory",
      "outputs": [],
      "stateMutability": "nonpayable",
      "type": "function"
    },
    {
      "inputs": [],
      "name": "feeAccount",
      "outputs": [
        {
          "internalType": "address payable",
          "name": "",
          "type": "address"
        }
      ],
      "stateMutability": "view",
      "type": "function",
      "constant": true
    },
    {
      "inputs": [],
      "name": "feePercent",
      "outputs": [
        {
          "internalType": "uint256",
          "name": "",
          "type": "uint256"
        }
      ],
      "stateMutability": "view",
      "type": "function",
      "constant": true
    },
    {
      "inputs": [
        {
          "internalType": "uint256",
          "name": "_itemId",
          "type": "uint256"
        }
      ],
      "name": "getHistories",
      "outputs": [
        {
          "components": [
            {
              "internalType": "uint256",
              "name": "itemId",
              "type": "uint256"
            },
            {
              "internalType": "string",
              "name": "eventName",
              "type": "string"
            },
            {
              "internalType": "uint256",
              "name": "price",
              "type": "uint256"
            },
            {
              "internalType": "address",
              "name": "from",
              "type": "address"
            },
            {
              "internalType": "address",
              "name": "to",
              "type": "address"
            },
            {
              "internalType": "uint256",
              "name": "time",
              "type": "uint256"
            }
          ],
          "internalType": "struct Marketplace.ItemHistory[]",
          "name": "",
          "type": "tuple[]"
        }
      ],
      "stateMutability": "view",
      "type": "function",
      "constant": true
    },
    {
      "inputs": [
        {
          "internalType": "uint256",
          "name": "_itemId",
          "type": "uint256"
        },
        {
          "internalType": "uint256",
          "name": "_historyId",
          "type": "uint256"
        }
      ],
      "name": "getHistory",
      "outputs": [
        {
          "components": [
            {
              "internalType": "uint256",
              "name": "itemId",
              "type": "uint256"
            },
            {
              "internalType": "string",
              "name": "eventName",
              "type": "string"
            },
            {
              "internalType": "uint256",
              "name": "price",
              "type": "uint256"
            },
            {
              "internalType": "address",
              "name": "from",
              "type": "address"
            },
            {
              "internalType": "address",
              "name": "to",
              "type": "address"
            },
            {
              "internalType": "uint256",
              "name": "time",
              "type": "uint256"
            }
          ],
          "internalType": "struct Marketplace.ItemHistory",
          "name": "",
          "type": "tuple"
        }
      ],
      "stateMutability": "view",
      "type": "function",
      "constant": true
    },
    {
      "inputs": [],
      "name": "getItemCount",
      "outputs": [
        {
          "internalType": "uint256",
          "name": "",
          "type": "uint256"
        }
      ],
      "stateMutability": "view",
      "type": "function",
      "constant": true
    },
    {
      "inputs": [
        {
          "internalType": "uint256",
          "name": "_itemId",
          "type": "uint256"
        }
      ],
      "name": "getTotalPrice",
      "outputs": [
        {
          "internalType": "uint256",
          "name": "",
          "type": "uint256"
        }
      ],
      "stateMutability": "view",
      "type": "function",
      "constant": true
    },
    {
      "inputs": [],
      "name": "itemCount",
      "outputs": [
        {
          "internalType": "uint256",
          "name": "",
          "type": "uint256"
        }
      ],
      "stateMutability": "view",
      "type": "function",
      "constant": true
    },
    {
      "inputs": [
        {
          "internalType": "uint256",
          "name": "",
          "type": "uint256"
        },
        {
          "internalType": "uint256",
          "name": "",
          "type": "uint256"
        }
      ],
      "name": "itemTracks",
      "outputs": [
        {
          "internalType": "uint256",
          "name": "itemId",
          "type": "uint256"
        },
        {
          "internalType": "string",
          "name": "eventName",
          "type": "string"
        },
        {
          "internalType": "uint256",
          "name": "price",
          "type": "uint256"
        },
        {
          "internalType": "address",
          "name": "from",
          "type": "address"
        },
        {
          "internalType": "address",
          "name": "to",
          "type": "address"
        },
        {
          "internalType": "uint256",
          "name": "time",
          "type": "uint256"
        }
      ],
      "stateMutability": "view",
      "type": "function",
      "constant": true
    },
    {
      "inputs": [
        {
          "internalType": "uint256",
          "name": "",
          "type": "uint256"
        }
      ],
      "name": "items",
      "outputs": [
        {
          "internalType": "uint256",
          "name": "itemId",
          "type": "uint256"
        },
        {
          "internalType": "contract IERC721",
          "name": "nft",
          "type": "address"
        },
        {
          "internalType": "uint256",
          "name": "tokenId",
          "type": "uint256"
        },
        {
          "internalType": "uint256",
          "name": "price",
          "type": "uint256"
        },
        {
          "internalType": "address payable",
          "name": "seller",
          "type": "address"
        },
        {
          "internalType": "bool",
          "name": "sold",
          "type": "bool"
        },
        {
          "internalType": "bool",
          "name": "check",
          "type": "bool"
        }
      ],
      "stateMutability": "view",
      "type": "function",
      "constant": true
    },
    {
      "inputs": [
        {
          "internalType": "contract IERC721",
          "name": "_nft",
          "type": "address"
        },
        {
          "internalType": "uint256",
          "name": "_tokenId",
          "type": "uint256"
        },
        {
          "internalType": "uint256",
          "name": "_price",
          "type": "uint256"
        },
        {
          "internalType": "address",
          "name": "_seller",
          "type": "address"
        }
      ],
      "name": "makeItem",
      "outputs": [],
      "stateMutability": "nonpayable",
      "type": "function"
    },
    {
      "inputs": [
        {
          "internalType": "uint256",
          "name": "_itemId",
          "type": "uint256"
        },
        {
          "internalType": "address",
          "name": "_buyer",
          "type": "address"
        }
      ],
      "name": "purchaseItem",
      "outputs": [],
      "stateMutability": "payable",
      "type": "function",
      "payable": true
    },
    {
      "inputs": [],
      "name": "userCount",
      "outputs": [
        {
          "internalType": "uint256",
          "name": "",
          "type": "uint256"
        }
      ],
      "stateMutability": "view",
      "type": "function",
      "constant": true
    },
    {
      "inputs": [
        {
          "internalType": "address",
          "name": "",
          "type": "address"
        }
      ],
      "name": "users",
      "outputs": [
        {
          "internalType": "address",
          "name": "UserId",
          "type": "address"
        },
        {
          "internalType": "string",
          "name": "UserURI",
          "type": "string"
        },
        {
          "internalType": "string",
          "name": "name",
          "type": "string"
        },
        {
          "internalType": "bool",
          "name": "isExpert",
          "type": "bool"
        },
        {
          "internalType": "bool",
          "name": "isExist",
          "type": "bool"
        }
      ],
      "stateMutability": "view",
      "type": "function",
      "constant": true
    },
    {
      "inputs": [
        {
          "internalType": "address",
          "name": "_userId",
          "type": "address"
        },
        {
          "internalType": "bool",
          "name": "_isExpert",
          "type": "bool"
        },
        {
          "internalType": "string",
          "name": "_UserURI",
          "type": "string"
        },
        {
          "internalType": "string",
          "name": "_name",
          "type": "string"
        }
      ],
      "name": "creatUser",
      "outputs": [],
      "stateMutability": "nonpayable",
      "type": "function"
    },
    {
      "inputs": [
        {
          "internalType": "address",
          "name": "_userId",
          "type": "address"
        }
      ],
      "name": "ExpertSign",
      "outputs": [],
      "stateMutability": "nonpayable",
      "type": "function"
    },
    {
      "inputs": [
        {
          "internalType": "uint256",
          "name": "_tokenId",
          "type": "uint256"
        }
      ],
      "name": "getName",
      "outputs": [
        {
          "internalType": "string",
          "name": "",
          "type": "string"
        }
      ],
      "stateMutability": "view",
      "type": "function",
      "constant": true
    }
  ],
  "bytecode": "0x60c060405234801561001057600080fd5b5060016000819055503373ffffffffffffffffffffffffffffffffffffffff1660808173ffffffffffffffffffffffffffffffffffffffff1681525050600160a0818152505060805160a051612a946100896000396000818161144601526118f6015260008181610a8901526111e90152612a946000f3fe6080604052600436106101095760003560e01c80636dcb2eff11610095578063a244342811610064578063a244342814610375578063a32cc1271461039e578063a87430ba146103c7578063bfb231d214610408578063ca7dd3751461044b57610109565b80636dcb2eff146102da5780637749cf23146103035780637bfe9efd1461032e5780637fd6f15c1461034a57610109565b806365e17c9d116100dc57806365e17c9d146101c857806368f0d401146101f35780636906679b146102355780636b8ff574146102725780636bfb0d01146102af57610109565b806307973ccf1461010e5780632d121be4146101395780633a945135146101625780635931b1691461018b575b600080fd5b34801561011a57600080fd5b50610123610488565b6040516101309190611a71565b60405180910390f35b34801561014557600080fd5b50610160600480360381019061015b9190611b68565b61048e565b005b34801561016e57600080fd5b5061018960048036038101906101849190611d15565b610751565b005b34801561019757600080fd5b506101b260048036038101906101ad9190611dbe565b6108b9565b6040516101bf9190611fdc565b60405180910390f35b3480156101d457600080fd5b506101dd610a87565b6040516101ea919061201f565b60405180910390f35b3480156101ff57600080fd5b5061021a6004803603810190610215919061203a565b610aab565b60405161022c969594939291906120d3565b60405180910390f35b34801561024157600080fd5b5061025c6004803603810190610257919061203a565b610bcc565b60405161026991906121c4565b60405180910390f35b34801561027e57600080fd5b5061029960048036038101906102949190611dbe565b610d76565b6040516102a691906121e6565b60405180910390f35b3480156102bb57600080fd5b506102c4610e86565b6040516102d19190611a71565b60405180910390f35b3480156102e657600080fd5b5061030160048036038101906102fc9190612208565b610e8c565b005b34801561030f57600080fd5b50610318611016565b6040516103259190611a71565b60405180910390f35b61034860048036038101906103439190612235565b611020565b005b34801561035657600080fd5b5061035f611444565b60405161036c9190611a71565b60405180910390f35b34801561038157600080fd5b5061039c60048036038101906103979190611dbe565b611468565b005b3480156103aa57600080fd5b506103c560048036038101906103c091906122ad565b61149a565b005b3480156103d357600080fd5b506103ee60048036038101906103e99190612208565b6116d4565b6040516103ff95949392919061235b565b60405180910390f35b34801561041457600080fd5b5061042f600480360381019061042a9190611dbe565b611854565b604051610442979695949392919061241b565b60405180910390f35b34801561045757600080fd5b50610472600480360381019061046d9190611dbe565b6118f0565b60405161047f9190611a71565b60405180910390f35b60045481565b600260005414156104d4576040517f08c379a00000000000000000000000000000000000000000000000000000000081526004016104cb906124d6565b60405180910390fd5b600260008190555060008211156105c0578373ffffffffffffffffffffffffffffffffffffffff166323b872dd3330866040518463ffffffff1660e01b8152600401610522939291906124f6565b600060405180830381600087803b15801561053c57600080fd5b505af1158015610550573d6000803e3d6000fd5b505050508073ffffffffffffffffffffffffffffffffffffffff168473ffffffffffffffffffffffffffffffffffffffff167f655a0cf9c8db81512be9a76dc1c5ae5380b8816ce6ad659cd61b715e2999d59a60015486866040516105b79392919061252d565b60405180910390a35b600160008154809291906105d390612593565b91905055506040518060e0016040528060015481526020018573ffffffffffffffffffffffffffffffffffffffff1681526020018481526020018381526020018273ffffffffffffffffffffffffffffffffffffffff168152602001600015158152602001600015158152506003600060015481526020019081526020016000206000820151816000015560208201518160010160006101000a81548173ffffffffffffffffffffffffffffffffffffffff021916908373ffffffffffffffffffffffffffffffffffffffff160217905550604082015181600201556060820151816003015560808201518160040160006101000a81548173ffffffffffffffffffffffffffffffffffffffff021916908373ffffffffffffffffffffffffffffffffffffffff16021790555060a08201518160040160146101000a81548160ff02191690831515021790555060c08201518160040160156101000a81548160ff021916908315150217905550905050600160008190555050505050565b600260008781526020019081526020016000206040518060c001604052808881526020018781526020018681526020018573ffffffffffffffffffffffffffffffffffffffff1681526020018473ffffffffffffffffffffffffffffffffffffffff16815260200183815250908060018154018082558091505060019003906000526020600020906006020160009091909190915060008201518160000155602082015181600101908051906020019061080c929190611953565b506040820151816002015560608201518160030160006101000a81548173ffffffffffffffffffffffffffffffffffffffff021916908373ffffffffffffffffffffffffffffffffffffffff16021790555060808201518160040160006101000a81548173ffffffffffffffffffffffffffffffffffffffff021916908373ffffffffffffffffffffffffffffffffffffffff16021790555060a082015181600501555050505050505050565b606060026000838152602001908152602001600020805480602002602001604051908101604052809291908181526020016000905b82821015610a7c57838290600052602060002090600602016040518060c00160405290816000820154815260200160018201805461092b9061260b565b80601f01602080910402602001604051908101604052809291908181526020018280546109579061260b565b80156109a45780601f10610979576101008083540402835291602001916109a4565b820191906000526020600020905b81548152906001019060200180831161098757829003601f168201915b50505050508152602001600282015481526020016003820160009054906101000a900473ffffffffffffffffffffffffffffffffffffffff1673ffffffffffffffffffffffffffffffffffffffff1673ffffffffffffffffffffffffffffffffffffffff1681526020016004820160009054906101000a900473ffffffffffffffffffffffffffffffffffffffff1673ffffffffffffffffffffffffffffffffffffffff1673ffffffffffffffffffffffffffffffffffffffff168152602001600582015481525050815260200190600101906108ee565b505050509050919050565b7f000000000000000000000000000000000000000000000000000000000000000081565b60026020528160005260406000208181548110610ac757600080fd5b906000526020600020906006020160009150915050806000015490806001018054610af19061260b565b80601f0160208091040260200160405190810160405280929190818152602001828054610b1d9061260b565b8015610b6a5780601f10610b3f57610100808354040283529160200191610b6a565b820191906000526020600020905b815481529060010190602001808311610b4d57829003601f168201915b5050505050908060020154908060030160009054906101000a900473ffffffffffffffffffffffffffffffffffffffff16908060040160009054906101000a900473ffffffffffffffffffffffffffffffffffffffff16908060050154905086565b610bd46119d9565b600260008481526020019081526020016000208281548110610bf957610bf861263d565b5b90600052602060002090600602016040518060c001604052908160008201548152602001600182018054610c2c9061260b565b80601f0160208091040260200160405190810160405280929190818152602001828054610c589061260b565b8015610ca55780601f10610c7a57610100808354040283529160200191610ca5565b820191906000526020600020905b815481529060010190602001808311610c8857829003601f168201915b50505050508152602001600282015481526020016003820160009054906101000a900473ffffffffffffffffffffffffffffffffffffffff1673ffffffffffffffffffffffffffffffffffffffff1673ffffffffffffffffffffffffffffffffffffffff1681526020016004820160009054906101000a900473ffffffffffffffffffffffffffffffffffffffff1673ffffffffffffffffffffffffffffffffffffffff1673ffffffffffffffffffffffffffffffffffffffff168152602001600582015481525050905092915050565b606060006003600084815260200190815260200160002060040160009054906101000a900473ffffffffffffffffffffffffffffffffffffffff169050600560008273ffffffffffffffffffffffffffffffffffffffff1673ffffffffffffffffffffffffffffffffffffffff1681526020019081526020016000206002018054610e009061260b565b80601f0160208091040260200160405190810160405280929190818152602001828054610e2c9061260b565b8015610e795780601f10610e4e57610100808354040283529160200191610e79565b820191906000526020600020905b815481529060010190602001808311610e5c57829003601f168201915b5050505050915050919050565b60015481565b60011515600560008373ffffffffffffffffffffffffffffffffffffffff1673ffffffffffffffffffffffffffffffffffffffff16815260200190815260200160002060030160019054906101000a900460ff16151514610f22576040517f08c379a0000000000000000000000000000000000000000000000000000000008152600401610f19906126b8565b60405180910390fd5b60001515600560008373ffffffffffffffffffffffffffffffffffffffff1673ffffffffffffffffffffffffffffffffffffffff16815260200190815260200160002060030160009054906101000a900460ff16151514610fb8576040517f08c379a0000000000000000000000000000000000000000000000000000000008152600401610faf90612724565b60405180910390fd5b6001600560008373ffffffffffffffffffffffffffffffffffffffff1673ffffffffffffffffffffffffffffffffffffffff16815260200190815260200160002060030160006101000a81548160ff02191690831515021790555050565b6000600154905090565b60026000541415611066576040517f08c379a000000000000000000000000000000000000000000000000000000000815260040161105d906124d6565b60405180910390fd5b60026000819055506000611079836118f0565b905060006003600085815260200190815260200160002090506000841180156110a457506001548411155b6110e3576040517f08c379a00000000000000000000000000000000000000000000000000000000081526004016110da90612790565b60405180910390fd5b81341015611126576040517f08c379a000000000000000000000000000000000000000000000000000000000815260040161111d90612822565b60405180910390fd5b8060040160149054906101000a900460ff1615611178576040517f08c379a000000000000000000000000000000000000000000000000000000000815260040161116f9061288e565b60405180910390fd5b8060040160009054906101000a900473ffffffffffffffffffffffffffffffffffffffff1673ffffffffffffffffffffffffffffffffffffffff166108fc82600301549081150290604051600060405180830381858888f193505050501580156111e6573d6000803e3d6000fd5b507f000000000000000000000000000000000000000000000000000000000000000073ffffffffffffffffffffffffffffffffffffffff166108fc82600301548461123191906128ae565b9081150290604051600060405180830381858888f1935050505015801561125c573d6000803e3d6000fd5b5060018160040160146101000a81548160ff0219169083151502179055508060010160009054906101000a900473ffffffffffffffffffffffffffffffffffffffff1673ffffffffffffffffffffffffffffffffffffffff166323b872dd303384600201546040518463ffffffff1660e01b81526004016112df939291906124f6565b600060405180830381600087803b1580156112f957600080fd5b505af115801561130d573d6000803e3d6000fd5b505050508273ffffffffffffffffffffffffffffffffffffffff168160040160009054906101000a900473ffffffffffffffffffffffffffffffffffffffff1673ffffffffffffffffffffffffffffffffffffffff168260010160009054906101000a900473ffffffffffffffffffffffffffffffffffffffff1673ffffffffffffffffffffffffffffffffffffffff167f8b4c9c8a607d67b321582dd8461041b1dc2ceeca70c8b7f37f8e02095cf2e76d87856002015486600301546040516113d99392919061252d565b60405180910390a4826003600086815260200190815260200160002060040160006101000a81548173ffffffffffffffffffffffffffffffffffffffff021916908373ffffffffffffffffffffffffffffffffffffffff160217905550505060016000819055505050565b7f000000000000000000000000000000000000000000000000000000000000000081565b60016003600083815260200190815260200160002060040160156101000a81548160ff02191690831515021790555050565b60001515600560008673ffffffffffffffffffffffffffffffffffffffff1673ffffffffffffffffffffffffffffffffffffffff16815260200190815260200160002060030160019054906101000a900460ff16151514611530576040517f08c379a00000000000000000000000000000000000000000000000000000000081526004016115279061292e565b60405180910390fd5b6004600081548092919061154390612593565b91905055506040518060a001604052808573ffffffffffffffffffffffffffffffffffffffff16815260200183815260200182815260200160001515815260200160011515815250600560008673ffffffffffffffffffffffffffffffffffffffff1673ffffffffffffffffffffffffffffffffffffffff16815260200190815260200160002060008201518160000160006101000a81548173ffffffffffffffffffffffffffffffffffffffff021916908373ffffffffffffffffffffffffffffffffffffffff160217905550602082015181600101908051906020019061162d929190611953565b50604082015181600201908051906020019061164a929190611953565b5060608201518160030160006101000a81548160ff02191690831515021790555060808201518160030160016101000a81548160ff0219169083151502179055509050507f80d60f685a6f19026b2f189b4731b00cf604f29ea2f42a11c46f769cb9a0197e8483838660016040516116c695949392919061235b565b60405180910390a150505050565b60056020528060005260406000206000915090508060000160009054906101000a900473ffffffffffffffffffffffffffffffffffffffff169080600101805461171d9061260b565b80601f01602080910402602001604051908101604052809291908181526020018280546117499061260b565b80156117965780601f1061176b57610100808354040283529160200191611796565b820191906000526020600020905b81548152906001019060200180831161177957829003601f168201915b5050505050908060020180546117ab9061260b565b80601f01602080910402602001604051908101604052809291908181526020018280546117d79061260b565b80156118245780601f106117f957610100808354040283529160200191611824565b820191906000526020600020905b81548152906001019060200180831161180757829003601f168201915b5050505050908060030160009054906101000a900460ff16908060030160019054906101000a900460ff16905085565b60036020528060005260406000206000915090508060000154908060010160009054906101000a900473ffffffffffffffffffffffffffffffffffffffff16908060020154908060030154908060040160009054906101000a900473ffffffffffffffffffffffffffffffffffffffff16908060040160149054906101000a900460ff16908060040160159054906101000a900460ff16905087565b600060647f00000000000000000000000000000000000000000000000000000000000000006064611921919061294e565b600360008581526020019081526020016000206003015461194291906129a4565b61194c9190612a2d565b9050919050565b82805461195f9061260b565b90600052602060002090601f01602090048101928261198157600085556119c8565b82601f1061199a57805160ff19168380011785556119c8565b828001600101855582156119c8579182015b828111156119c75782518255916020019190600101906119ac565b5b5090506119d59190611a3b565b5090565b6040518060c00160405280600081526020016060815260200160008152602001600073ffffffffffffffffffffffffffffffffffffffff168152602001600073ffffffffffffffffffffffffffffffffffffffff168152602001600081525090565b5b80821115611a54576000816000905550600101611a3c565b5090565b6000819050919050565b611a6b81611a58565b82525050565b6000602082019050611a866000830184611a62565b92915050565b6000604051905090565b600080fd5b600080fd5b600073ffffffffffffffffffffffffffffffffffffffff82169050919050565b6000611acb82611aa0565b9050919050565b6000611add82611ac0565b9050919050565b611aed81611ad2565b8114611af857600080fd5b50565b600081359050611b0a81611ae4565b92915050565b611b1981611a58565b8114611b2457600080fd5b50565b600081359050611b3681611b10565b92915050565b611b4581611ac0565b8114611b5057600080fd5b50565b600081359050611b6281611b3c565b92915050565b60008060008060808587031215611b8257611b81611a96565b5b6000611b9087828801611afb565b9450506020611ba187828801611b27565b9350506040611bb287828801611b27565b9250506060611bc387828801611b53565b91505092959194509250565b600080fd5b600080fd5b6000601f19601f8301169050919050565b7f4e487b7100000000000000000000000000000000000000000000000000000000600052604160045260246000fd5b611c2282611bd9565b810181811067ffffffffffffffff82111715611c4157611c40611bea565b5b80604052505050565b6000611c54611a8c565b9050611c608282611c19565b919050565b600067ffffffffffffffff821115611c8057611c7f611bea565b5b611c8982611bd9565b9050602081019050919050565b82818337600083830152505050565b6000611cb8611cb384611c65565b611c4a565b905082815260208101848484011115611cd457611cd3611bd4565b5b611cdf848285611c96565b509392505050565b600082601f830112611cfc57611cfb611bcf565b5b8135611d0c848260208601611ca5565b91505092915050565b60008060008060008060c08789031215611d3257611d31611a96565b5b6000611d4089828a01611b27565b965050602087013567ffffffffffffffff811115611d6157611d60611a9b565b5b611d6d89828a01611ce7565b9550506040611d7e89828a01611b27565b9450506060611d8f89828a01611b53565b9350506080611da089828a01611b53565b92505060a0611db189828a01611b27565b9150509295509295509295565b600060208284031215611dd457611dd3611a96565b5b6000611de284828501611b27565b91505092915050565b600081519050919050565b600082825260208201905092915050565b6000819050602082019050919050565b611e2081611a58565b82525050565b600081519050919050565b600082825260208201905092915050565b60005b83811015611e60578082015181840152602081019050611e45565b83811115611e6f576000848401525b50505050565b6000611e8082611e26565b611e8a8185611e31565b9350611e9a818560208601611e42565b611ea381611bd9565b840191505092915050565b611eb781611ac0565b82525050565b600060c083016000830151611ed56000860182611e17565b5060208301518482036020860152611eed8282611e75565b9150506040830151611f026040860182611e17565b506060830151611f156060860182611eae565b506080830151611f286080860182611eae565b5060a0830151611f3b60a0860182611e17565b508091505092915050565b6000611f528383611ebd565b905092915050565b6000602082019050919050565b6000611f7282611deb565b611f7c8185611df6565b935083602082028501611f8e85611e07565b8060005b85811015611fca5784840389528151611fab8582611f46565b9450611fb683611f5a565b925060208a01995050600181019050611f92565b50829750879550505050505092915050565b60006020820190508181036000830152611ff68184611f67565b905092915050565b600061200982611aa0565b9050919050565b61201981611ffe565b82525050565b60006020820190506120346000830184612010565b92915050565b6000806040838503121561205157612050611a96565b5b600061205f85828601611b27565b925050602061207085828601611b27565b9150509250929050565b600082825260208201905092915050565b600061209682611e26565b6120a0818561207a565b93506120b0818560208601611e42565b6120b981611bd9565b840191505092915050565b6120cd81611ac0565b82525050565b600060c0820190506120e86000830189611a62565b81810360208301526120fa818861208b565b90506121096040830187611a62565b61211660608301866120c4565b61212360808301856120c4565b61213060a0830184611a62565b979650505050505050565b600060c0830160008301516121536000860182611e17565b506020830151848203602086015261216b8282611e75565b91505060408301516121806040860182611e17565b5060608301516121936060860182611eae565b5060808301516121a66080860182611eae565b5060a08301516121b960a0860182611e17565b508091505092915050565b600060208201905081810360008301526121de818461213b565b905092915050565b60006020820190508181036000830152612200818461208b565b905092915050565b60006020828403121561221e5761221d611a96565b5b600061222c84828501611b53565b91505092915050565b6000806040838503121561224c5761224b611a96565b5b600061225a85828601611b27565b925050602061226b85828601611b53565b9150509250929050565b60008115159050919050565b61228a81612275565b811461229557600080fd5b50565b6000813590506122a781612281565b92915050565b600080600080608085870312156122c7576122c6611a96565b5b60006122d587828801611b53565b94505060206122e687828801612298565b935050604085013567ffffffffffffffff81111561230757612306611a9b565b5b61231387828801611ce7565b925050606085013567ffffffffffffffff81111561233457612333611a9b565b5b61234087828801611ce7565b91505092959194509250565b61235581612275565b82525050565b600060a08201905061237060008301886120c4565b8181036020830152612382818761208b565b90508181036040830152612396818661208b565b90506123a5606083018561234c565b6123b2608083018461234c565b9695505050505050565b6000819050919050565b60006123e16123dc6123d784611aa0565b6123bc565b611aa0565b9050919050565b60006123f3826123c6565b9050919050565b6000612405826123e8565b9050919050565b612415816123fa565b82525050565b600060e082019050612430600083018a611a62565b61243d602083018961240c565b61244a6040830188611a62565b6124576060830187611a62565b6124646080830186612010565b61247160a083018561234c565b61247e60c083018461234c565b98975050505050505050565b7f5265656e7472616e637947756172643a207265656e7472616e742063616c6c00600082015250565b60006124c0601f8361207a565b91506124cb8261248a565b602082019050919050565b600060208201905081810360008301526124ef816124b3565b9050919050565b600060608201905061250b60008301866120c4565b61251860208301856120c4565b6125256040830184611a62565b949350505050565b60006060820190506125426000830186611a62565b61254f6020830185611a62565b61255c6040830184611a62565b949350505050565b7f4e487b7100000000000000000000000000000000000000000000000000000000600052601160045260246000fd5b600061259e82611a58565b91507fffffffffffffffffffffffffffffffffffffffffffffffffffffffffffffffff8214156125d1576125d0612564565b5b600182019050919050565b7f4e487b7100000000000000000000000000000000000000000000000000000000600052602260045260246000fd5b6000600282049050600182168061262357607f821691505b60208210811415612637576126366125dc565b5b50919050565b7f4e487b7100000000000000000000000000000000000000000000000000000000600052603260045260246000fd5b7f596f7520686176656e27742073696e6775702079657400000000000000000000600082015250565b60006126a260168361207a565b91506126ad8261266c565b602082019050919050565b600060208201905081810360008301526126d181612695565b9050919050565b7f596f752068617320616c726561647920616e2065787065727400000000000000600082015250565b600061270e60198361207a565b9150612719826126d8565b602082019050919050565b6000602082019050818103600083015261273d81612701565b9050919050565b7f6974656d20646f65736e27742065786973740000000000000000000000000000600082015250565b600061277a60128361207a565b915061278582612744565b602082019050919050565b600060208201905081810360008301526127a98161276d565b9050919050565b7f6e6f7420656e6f75676820657468657220746f20636f766572206974656d207060008201527f7269636520616e64206d61726b65742066656500000000000000000000000000602082015250565b600061280c60338361207a565b9150612817826127b0565b604082019050919050565b6000602082019050818103600083015261283b816127ff565b9050919050565b7f6974656d20616c726561647920736f6c64000000000000000000000000000000600082015250565b600061287860118361207a565b915061288382612842565b602082019050919050565b600060208201905081810360008301526128a78161286b565b9050919050565b60006128b982611a58565b91506128c483611a58565b9250828210156128d7576128d6612564565b5b828203905092915050565b7f5468697320757365722068617320616c7265616479207369676e656400000000600082015250565b6000612918601c8361207a565b9150612923826128e2565b602082019050919050565b600060208201905081810360008301526129478161290b565b9050919050565b600061295982611a58565b915061296483611a58565b9250827fffffffffffffffffffffffffffffffffffffffffffffffffffffffffffffffff0382111561299957612998612564565b5b828201905092915050565b60006129af82611a58565b91506129ba83611a58565b9250817fffffffffffffffffffffffffffffffffffffffffffffffffffffffffffffffff04831182151516156129f3576129f2612564565b5b828202905092915050565b7f4e487b7100000000000000000000000000000000000000000000000000000000600052601260045260246000fd5b6000612a3882611a58565b9150612a4383611a58565b925082612a5357612a526129fe565b5b82820490509291505056fea264697066735822122023249c23ce78d7781cdd7ee82a57f0aebd6eb76f53bb6e00258c48769cbb750964736f6c634300080b0033",
  "immutableReferences": {
    "2462": [
      {
        "length": 32,
        "start": 2697
      },
      {
        "length": 32,
        "start": 4585
      }
    ],
    "2464": [
      {
        "length": 32,
        "start": 5190
      },
      {
        "length": 32,
        "start": 6390
      }
    ]
  },
  "source": "// SPDX-License-Identifier: MIT\r\npragma solidity ^0.8.0;\r\n\r\nimport \"./Marketplace.sol\";\r\n\r\ncontract UserRegister is Marketplace{\r\n    //bin m userid\r\n    uint256 public userCount;\r\n\r\n    //to user\r\n    struct User {\r\n        address UserId;\r\n        string UserURI;\r\n        string name;\r\n        bool isExpert;\r\n        bool isExist;\r\n    }\r\n\r\n    //mng cha cc user\r\n    mapping(address => User) public users;\r\n\r\n    event Signed(address owner, string UserURI,string name, bool isExpert, bool isExist);\r\n\r\n    function creatUser(\r\n        address _userId,\r\n        bool _isExpert,\r\n        string memory _UserURI,  \r\n        string memory _name\r\n    ) external {\r\n        //kim tra xem user  tn ti cha ny\r\n        require(\r\n            users[_userId].isExist == false,\r\n            \"This user has already signed\"\r\n        );\r\n\r\n        //mi ln create th tng userCount ln 1\r\n        userCount++;\r\n\r\n        //mc nh lun cha l chuyn gia\r\n        users[_userId] = User(_userId, _UserURI, _name, false, true);\r\n\r\n        emit Signed(_userId, _UserURI,_name, _isExpert, true);\r\n    }\r\n\r\n    function ExpertSign(address _userId) external {\r\n        //kim tra xem user  tn ti hay cha v l chuyn gia cha\r\n        require(users[_userId].isExist == true, \"You haven't singup yet\");\r\n        require(users[_userId].isExpert == false, \"You has already an expert\");\r\n\r\n        //thay i thnh chuyn gia\r\n        users[_userId].isExpert = true;\r\n    }\r\n\r\n    function getName(uint _tokenId) view external returns (string memory){\r\n        address _seller = items[_tokenId].seller;\r\n        return (users[_seller].name);\r\n    }\r\n}\r\n",
  "sourcePath": "E:\\Code\\React\\marketplace\\src\\contracts\\UserRegister.sol",
  "compiler": {
    "name": "solc",
    "version": "0.8.11+commit.d7f03943.Emscripten.clang"
  },
  "schemaVersion": "3.4.7",
  "updatedAt": "2022-10-10T16:56:01.903Z",
  "networkType": "ethereum",
  "devdoc": {
    "kind": "dev",
    "methods": {},
    "version": 1
  },
  "userdoc": {
    "kind": "user",
    "methods": {},
    "version": 1
  }
}